{"contracts/SimpleEscrow.sol":{"SimpleEscrow":{"abi":[{"inputs":[{"internalType":"address","name":"_seller","type":"address"},{"internalType":"address","name":"_arbiter","type":"address"}],"stateMutability":"nonpayable","type":"constructor"},{"anonymous":false,"inputs":[],"name":"DisputeRaised","type":"event"},{"anonymous":false,"inputs":[{"indexed":false,"internalType":"address","name":"winner","type":"address"}],"name":"DisputeResolved","type":"event"},{"anonymous":false,"inputs":[{"indexed":false,"internalType":"uint256","name":"amount","type":"uint256"}],"name":"FundsDeposited","type":"event"},{"anonymous":false,"inputs":[{"indexed":false,"internalType":"address","name":"to","type":"address"},{"indexed":false,"internalType":"uint256","name":"amount","type":"uint256"}],"name":"FundsReleased","type":"event"},{"inputs":[],"name":"amount","outputs":[{"internalType":"uint256","name":"","type":"uint256"}],"stateMutability":"view","type":"function"},{"inputs":[],"name":"arbiter","outputs":[{"internalType":"address","name":"","type":"address"}],"stateMutability":"view","type":"function"},{"inputs":[],"name":"buyer","outputs":[{"internalType":"address","name":"","type":"address"}],"stateMutability":"view","type":"function"},{"inputs":[],"name":"confirmDelivery","outputs":[],"stateMutability":"nonpayable","type":"function"},{"inputs":[],"name":"currentState","outputs":[{"internalType":"enum SimpleEscrow.State","name":"","type":"uint8"}],"stateMutability":"view","type":"function"},{"inputs":[],"name":"depositFunds","outputs":[],"stateMutability":"payable","type":"function"},{"inputs":[],"name":"disputed","outputs":[{"internalType":"bool","name":"","type":"bool"}],"stateMutability":"view","type":"function"},{"inputs":[],"name":"fundsDeposited","outputs":[{"internalType":"bool","name":"","type":"bool"}],"stateMutability":"view","type":"function"},{"inputs":[],"name":"fundsReleased","outputs":[{"internalType":"bool","name":"","type":"bool"}],"stateMutability":"view","type":"function"},{"inputs":[],"name":"getBalance","outputs":[{"internalType":"uint256","name":"","type":"uint256"}],"stateMutability":"view","type":"function"},{"inputs":[],"name":"getContractDetails","outputs":[{"internalType":"address","name":"_buyer","type":"address"},{"internalType":"address","name":"_seller","type":"address"},{"internalType":"address","name":"_arbiter","type":"address"},{"internalType":"uint256","name":"_amount","type":"uint256"},{"internalType":"enum SimpleEscrow.State","name":"_state","type":"uint8"},{"internalType":"bool","name":"_disputed","type":"bool"}],"stateMutability":"view","type":"function"},{"inputs":[],"name":"raiseDispute","outputs":[],"stateMutability":"nonpayable","type":"function"},{"inputs":[],"name":"requestRelease","outputs":[],"stateMutability":"nonpayable","type":"function"},{"inputs":[{"internalType":"address","name":"winner","type":"address"}],"name":"resolveDispute","outputs":[],"stateMutability":"nonpayable","type":"function"},{"inputs":[],"name":"seller","outputs":[{"internalType":"address","name":"","type":"address"}],"stateMutability":"view","type":"function"}],"devdoc":{"kind":"dev","methods":{},"version":1},"evm":{"bytecode":{"linkReferences":{},"object":"608060405234801561001057600080fd5b50604051610ab7380380610ab783398101604081905261002f91610094565b600080546001600160a01b03199081163317909155600180546001600160a01b03948516908316179055600280549290931691161790556004805463ff000000191690556100c7565b80516001600160a01b038116811461008f57600080fd5b919050565b600080604083850312156100a757600080fd5b6100b083610078565b91506100be60208401610078565b90509250929050565b6109e1806100d66000396000f3fe6080604052600436106100e85760003560e01c80639dfc91171161008a578063d846118211610059578063d84611821461028f578063e2c41dbc146102af578063fdc5587b146102b7578063fe25e00a146102cc57600080fd5b80639dfc9117146101f1578063aa8c217c14610240578063b564e92614610256578063cacd17151461027557600080fd5b806312065fe0116100c657806312065fe0146101885780635e10177b146101a55780636daa2d44146101bc5780637150d8ae146101d157600080fd5b80630695c46c146100ed57806308551a53146101225780630c3f6acf1461015a575b600080fd5b3480156100f957600080fd5b5060045461010d9062010000900460ff1681565b60405190151581526020015b60405180910390f35b34801561012e57600080fd5b50600154610142906001600160a01b031681565b6040516001600160a01b039091168152602001610119565b34801561016657600080fd5b5060045461017b906301000000900460ff1681565b60405161011991906108e9565b34801561019457600080fd5b50475b604051908152602001610119565b3480156101b157600080fd5b506101ba6102ec565b005b3480156101c857600080fd5b506101ba61039c565b3480156101dd57600080fd5b50600054610142906001600160a01b031681565b3480156101fd57600080fd5b50600054600154600254600354600454604051610119956001600160a01b039081169581169416929160ff630100000082048116926201000090920416906108fd565b34801561024c57600080fd5b5061019760035481565b34801561026257600080fd5b5060045461010d90610100900460ff1681565b34801561028157600080fd5b5060045461010d9060ff1681565b34801561029b57600080fd5b506101ba6102aa366004610944565b610497565b6101ba6105ee565b3480156102c357600080fd5b506101ba61071f565b3480156102d857600080fd5b50600254610142906001600160a01b031681565b6000546001600160a01b031633146103465760405162461bcd60e51b81526020600482015260186024820152774f6e6c792062757965722063616e2063616c6c207468697360401b60448201526064015b60405180910390fd5b6001806004546301000000900460ff166003811115610367576103676108b1565b146103845760405162461bcd60e51b815260040161033d90610974565b600154610399906001600160a01b03166107b7565b50565b6001806004546301000000900460ff1660038111156103bd576103bd6108b1565b146103da5760405162461bcd60e51b815260040161033d90610974565b6000546001600160a01b03163314806103fd57506001546001600160a01b031633145b6104585760405162461bcd60e51b815260206004820152602660248201527f4f6e6c79206275796572206f722073656c6c65722063616e207261697365206460448201526569737075746560d01b606482015260840161033d565b6004805463ffff0000191663030100001790556040517fa9f218df296bdff29869b6b40927376285db89e1726d55dc7a5583eab3f72c4290600090a150565b6002546001600160a01b031633146104f15760405162461bcd60e51b815260206004820152601a60248201527f4f6e6c7920617262697465722063616e2063616c6c2074686973000000000000604482015260640161033d565b6003806004546301000000900460ff166003811115610512576105126108b1565b1461052f5760405162461bcd60e51b815260040161033d90610974565b6000546001600160a01b038381169116148061055857506001546001600160a01b038381169116145b6105a45760405162461bcd60e51b815260206004820152601e60248201527f57696e6e6572206d757374206265206275796572206f722073656c6c65720000604482015260640161033d565b6105ad826107b7565b6040516001600160a01b03831681527f8476b4c4cd5f496cfe2043ed12cd9e3e3540e97649536b9aa3fa67f06a7134db906020015b60405180910390a15050565b6000546001600160a01b031633146106435760405162461bcd60e51b81526020600482015260186024820152774f6e6c792062757965722063616e2063616c6c207468697360401b604482015260640161033d565b6000806004546301000000900460ff166003811115610664576106646108b1565b146106815760405162461bcd60e51b815260040161033d90610974565b600034116106d15760405162461bcd60e51b815260206004820152601760248201527f4d757374206465706f73697420736f6d652066756e6473000000000000000000604482015260640161033d565b3460038190556004805463ff0000ff1916630100000117905560408051918252517f7cb5d45c1071f219bd2da1ea101758715bd52f23f2a707f2d9a0387dea18d9069181900360200190a150565b6001546001600160a01b031633146107795760405162461bcd60e51b815260206004820152601960248201527f4f6e6c792073656c6c65722063616e2063616c6c207468697300000000000000604482015260640161033d565b6001806004546301000000900460ff16600381111561079a5761079a6108b1565b146103995760405162461bcd60e51b815260040161033d90610974565b60045460ff1680156107d15750600454610100900460ff16155b61081d5760405162461bcd60e51b815260206004820152601f60248201527f46756e6473206e6f7420617661696c61626c6520666f722072656c6561736500604482015260640161033d565b6004805463ff00ff00191663020001001790556003805460009182905560405190916001600160a01b0384169183156108fc0291849190818181858888f19350505050158015610871573d6000803e3d6000fd5b50604080516001600160a01b0384168152602081018390527f221c08a06b07a64803b3787861a3f276212fcccb51c2e6234077a9b8cb13047a91016105e2565b634e487b7160e01b600052602160045260246000fd5b600481106108e557634e487b7160e01b600052602160045260246000fd5b9052565b602081016108f782846108c7565b92915050565b6001600160a01b0387811682528681166020830152851660408201526060810184905260c0810161093160808301856108c7565b82151560a0830152979650505050505050565b60006020828403121561095657600080fd5b81356001600160a01b038116811461096d57600080fd5b9392505050565b6020808252601d908201527f496e76616c696420737461746520666f72207468697320616374696f6e00000060408201526060019056fea2646970667358221220d7cf9c760851d6f81b9266f6539356ae739b2b44fd1287235f635e32183aa67164736f6c63430008140033","opcodes":"PUSH1 0x80 PUSH1 0x40 MSTORE CALLVALUE DUP1 ISZERO PUSH2 0x10 JUMPI PUSH1 0x0 DUP1 REVERT JUMPDEST POP PUSH1 0x40 MLOAD PUSH2 0xAB7 CODESIZE SUB DUP1 PUSH2 0xAB7 DUP4 CODECOPY DUP2 ADD PUSH1 0x40 DUP2 SWAP1 MSTORE PUSH2 0x2F SWAP2 PUSH2 0x94 JUMP JUMPDEST PUSH1 0x0 DUP1 SLOAD PUSH1 0x1 PUSH1 0x1 PUSH1 0xA0 SHL SUB NOT SWAP1 DUP2 AND CALLER OR SWAP1 SWAP2 SSTORE PUSH1 0x1 DUP1 SLOAD PUSH1 0x1 PUSH1 0x1 PUSH1 0xA0 SHL SUB SWAP5 DUP6 AND SWAP1 DUP4 AND OR SWAP1 SSTORE PUSH1 0x2 DUP1 SLOAD SWAP3 SWAP1 SWAP4 AND SWAP2 AND OR SWAP1 SSTORE PUSH1 0x4 DUP1 SLOAD PUSH4 0xFF000000 NOT AND SWAP1 SSTORE PUSH2 0xC7 JUMP JUMPDEST DUP1 MLOAD PUSH1 0x1 PUSH1 0x1 PUSH1 0xA0 SHL SUB DUP2 AND DUP2 EQ PUSH2 0x8F JUMPI PUSH1 0x0 DUP1 REVERT JUMPDEST SWAP2 SWAP1 POP JUMP JUMPDEST PUSH1 0x0 DUP1 PUSH1 0x40 DUP4 DUP6 SUB SLT ISZERO PUSH2 0xA7 JUMPI PUSH1 0x0 DUP1 REVERT JUMPDEST PUSH2 0xB0 DUP4 PUSH2 0x78 JUMP JUMPDEST SWAP2 POP PUSH2 0xBE PUSH1 0x20 DUP5 ADD PUSH2 0x78 JUMP JUMPDEST SWAP1 POP SWAP3 POP SWAP3 SWAP1 POP JUMP JUMPDEST PUSH2 0x9E1 DUP1 PUSH2 0xD6 PUSH1 0x0 CODECOPY PUSH1 0x0 RETURN INVALID PUSH1 0x80 PUSH1 0x40 MSTORE PUSH1 0x4 CALLDATASIZE LT PUSH2 0xE8 JUMPI PUSH1 0x0 CALLDATALOAD PUSH1 0xE0 SHR DUP1 PUSH4 0x9DFC9117 GT PUSH2 0x8A JUMPI DUP1 PUSH4 0xD8461182 GT PUSH2 0x59 JUMPI DUP1 PUSH4 0xD8461182 EQ PUSH2 0x28F JUMPI DUP1 PUSH4 0xE2C41DBC EQ PUSH2 0x2AF JUMPI DUP1 PUSH4 0xFDC5587B EQ PUSH2 0x2B7 JUMPI DUP1 PUSH4 0xFE25E00A EQ PUSH2 0x2CC JUMPI PUSH1 0x0 DUP1 REVERT JUMPDEST DUP1 PUSH4 0x9DFC9117 EQ PUSH2 0x1F1 JUMPI DUP1 PUSH4 0xAA8C217C EQ PUSH2 0x240 JUMPI DUP1 PUSH4 0xB564E926 EQ PUSH2 0x256 JUMPI DUP1 PUSH4 0xCACD1715 EQ PUSH2 0x275 JUMPI PUSH1 0x0 DUP1 REVERT JUMPDEST DUP1 PUSH4 0x12065FE0 GT PUSH2 0xC6 JUMPI DUP1 PUSH4 0x12065FE0 EQ PUSH2 0x188 JUMPI DUP1 PUSH4 0x5E10177B EQ PUSH2 0x1A5 JUMPI DUP1 PUSH4 0x6DAA2D44 EQ PUSH2 0x1BC JUMPI DUP1 PUSH4 0x7150D8AE EQ PUSH2 0x1D1 JUMPI PUSH1 0x0 DUP1 REVERT JUMPDEST DUP1 PUSH4 0x695C46C EQ PUSH2 0xED JUMPI DUP1 PUSH4 0x8551A53 EQ PUSH2 0x122 JUMPI DUP1 PUSH4 0xC3F6ACF EQ PUSH2 0x15A JUMPI JUMPDEST PUSH1 0x0 DUP1 REVERT JUMPDEST CALLVALUE DUP1 ISZERO PUSH2 0xF9 JUMPI PUSH1 0x0 DUP1 REVERT JUMPDEST POP PUSH1 0x4 SLOAD PUSH2 0x10D SWAP1 PUSH3 0x10000 SWAP1 DIV PUSH1 0xFF AND DUP2 JUMP JUMPDEST PUSH1 0x40 MLOAD SWAP1 ISZERO ISZERO DUP2 MSTORE PUSH1 0x20 ADD JUMPDEST PUSH1 0x40 MLOAD DUP1 SWAP2 SUB SWAP1 RETURN JUMPDEST CALLVALUE DUP1 ISZERO PUSH2 0x12E JUMPI PUSH1 0x0 DUP1 REVERT JUMPDEST POP PUSH1 0x1 SLOAD PUSH2 0x142 SWAP1 PUSH1 0x1 PUSH1 0x1 PUSH1 0xA0 SHL SUB AND DUP2 JUMP JUMPDEST PUSH1 0x40 MLOAD PUSH1 0x1 PUSH1 0x1 PUSH1 0xA0 SHL SUB SWAP1 SWAP2 AND DUP2 MSTORE PUSH1 0x20 ADD PUSH2 0x119 JUMP JUMPDEST CALLVALUE DUP1 ISZERO PUSH2 0x166 JUMPI PUSH1 0x0 DUP1 REVERT JUMPDEST POP PUSH1 0x4 SLOAD PUSH2 0x17B SWAP1 PUSH4 0x1000000 SWAP1 DIV PUSH1 0xFF AND DUP2 JUMP JUMPDEST PUSH1 0x40 MLOAD PUSH2 0x119 SWAP2 SWAP1 PUSH2 0x8E9 JUMP JUMPDEST CALLVALUE DUP1 ISZERO PUSH2 0x194 JUMPI PUSH1 0x0 DUP1 REVERT JUMPDEST POP SELFBALANCE JUMPDEST PUSH1 0x40 MLOAD SWAP1 DUP2 MSTORE PUSH1 0x20 ADD PUSH2 0x119 JUMP JUMPDEST CALLVALUE DUP1 ISZERO PUSH2 0x1B1 JUMPI PUSH1 0x0 DUP1 REVERT JUMPDEST POP PUSH2 0x1BA PUSH2 0x2EC JUMP JUMPDEST STOP JUMPDEST CALLVALUE DUP1 ISZERO PUSH2 0x1C8 JUMPI PUSH1 0x0 DUP1 REVERT JUMPDEST POP PUSH2 0x1BA PUSH2 0x39C JUMP JUMPDEST CALLVALUE DUP1 ISZERO PUSH2 0x1DD JUMPI PUSH1 0x0 DUP1 REVERT JUMPDEST POP PUSH1 0x0 SLOAD PUSH2 0x142 SWAP1 PUSH1 0x1 PUSH1 0x1 PUSH1 0xA0 SHL SUB AND DUP2 JUMP JUMPDEST CALLVALUE DUP1 ISZERO PUSH2 0x1FD JUMPI PUSH1 0x0 DUP1 REVERT JUMPDEST POP PUSH1 0x0 SLOAD PUSH1 0x1 SLOAD PUSH1 0x2 SLOAD PUSH1 0x3 SLOAD PUSH1 0x4 SLOAD PUSH1 0x40 MLOAD PUSH2 0x119 SWAP6 PUSH1 0x1 PUSH1 0x1 PUSH1 0xA0 SHL SUB SWAP1 DUP2 AND SWAP6 DUP2 AND SWAP5 AND SWAP3 SWAP2 PUSH1 0xFF PUSH4 0x1000000 DUP3 DIV DUP2 AND SWAP3 PUSH3 0x10000 SWAP1 SWAP3 DIV AND SWAP1 PUSH2 0x8FD JUMP JUMPDEST CALLVALUE DUP1 ISZERO PUSH2 0x24C JUMPI PUSH1 0x0 DUP1 REVERT JUMPDEST POP PUSH2 0x197 PUSH1 0x3 SLOAD DUP2 JUMP JUMPDEST CALLVALUE DUP1 ISZERO PUSH2 0x262 JUMPI PUSH1 0x0 DUP1 REVERT JUMPDEST POP PUSH1 0x4 SLOAD PUSH2 0x10D SWAP1 PUSH2 0x100 SWAP1 DIV PUSH1 0xFF AND DUP2 JUMP JUMPDEST CALLVALUE DUP1 ISZERO PUSH2 0x281 JUMPI PUSH1 0x0 DUP1 REVERT JUMPDEST POP PUSH1 0x4 SLOAD PUSH2 0x10D SWAP1 PUSH1 0xFF AND DUP2 JUMP JUMPDEST CALLVALUE DUP1 ISZERO PUSH2 0x29B JUMPI PUSH1 0x0 DUP1 REVERT JUMPDEST POP PUSH2 0x1BA PUSH2 0x2AA CALLDATASIZE PUSH1 0x4 PUSH2 0x944 JUMP JUMPDEST PUSH2 0x497 JUMP JUMPDEST PUSH2 0x1BA PUSH2 0x5EE JUMP JUMPDEST CALLVALUE DUP1 ISZERO PUSH2 0x2C3 JUMPI PUSH1 0x0 DUP1 REVERT JUMPDEST POP PUSH2 0x1BA PUSH2 0x71F JUMP JUMPDEST CALLVALUE DUP1 ISZERO PUSH2 0x2D8 JUMPI PUSH1 0x0 DUP1 REVERT JUMPDEST POP PUSH1 0x2 SLOAD PUSH2 0x142 SWAP1 PUSH1 0x1 PUSH1 0x1 PUSH1 0xA0 SHL SUB AND DUP2 JUMP JUMPDEST PUSH1 0x0 SLOAD PUSH1 0x1 PUSH1 0x1 PUSH1 0xA0 SHL SUB AND CALLER EQ PUSH2 0x346 JUMPI PUSH1 0x40 MLOAD PUSH3 0x461BCD PUSH1 0xE5 SHL DUP2 MSTORE PUSH1 0x20 PUSH1 0x4 DUP3 ADD MSTORE PUSH1 0x18 PUSH1 0x24 DUP3 ADD MSTORE PUSH24 0x4F6E6C792062757965722063616E2063616C6C2074686973 PUSH1 0x40 SHL PUSH1 0x44 DUP3 ADD MSTORE PUSH1 0x64 ADD JUMPDEST PUSH1 0x40 MLOAD DUP1 SWAP2 SUB SWAP1 REVERT JUMPDEST PUSH1 0x1 DUP1 PUSH1 0x4 SLOAD PUSH4 0x1000000 SWAP1 DIV PUSH1 0xFF AND PUSH1 0x3 DUP2 GT ISZERO PUSH2 0x367 JUMPI PUSH2 0x367 PUSH2 0x8B1 JUMP JUMPDEST EQ PUSH2 0x384 JUMPI PUSH1 0x40 MLOAD PUSH3 0x461BCD PUSH1 0xE5 SHL DUP2 MSTORE PUSH1 0x4 ADD PUSH2 0x33D SWAP1 PUSH2 0x974 JUMP JUMPDEST PUSH1 0x1 SLOAD PUSH2 0x399 SWAP1 PUSH1 0x1 PUSH1 0x1 PUSH1 0xA0 SHL SUB AND PUSH2 0x7B7 JUMP JUMPDEST POP JUMP JUMPDEST PUSH1 0x1 DUP1 PUSH1 0x4 SLOAD PUSH4 0x1000000 SWAP1 DIV PUSH1 0xFF AND PUSH1 0x3 DUP2 GT ISZERO PUSH2 0x3BD JUMPI PUSH2 0x3BD PUSH2 0x8B1 JUMP JUMPDEST EQ PUSH2 0x3DA JUMPI PUSH1 0x40 MLOAD PUSH3 0x461BCD PUSH1 0xE5 SHL DUP2 MSTORE PUSH1 0x4 ADD PUSH2 0x33D SWAP1 PUSH2 0x974 JUMP JUMPDEST PUSH1 0x0 SLOAD PUSH1 0x1 PUSH1 0x1 PUSH1 0xA0 SHL SUB AND CALLER EQ DUP1 PUSH2 0x3FD JUMPI POP PUSH1 0x1 SLOAD PUSH1 0x1 PUSH1 0x1 PUSH1 0xA0 SHL SUB AND CALLER EQ JUMPDEST PUSH2 0x458 JUMPI PUSH1 0x40 MLOAD PUSH3 0x461BCD PUSH1 0xE5 SHL DUP2 MSTORE PUSH1 0x20 PUSH1 0x4 DUP3 ADD MSTORE PUSH1 0x26 PUSH1 0x24 DUP3 ADD MSTORE PUSH32 0x4F6E6C79206275796572206F722073656C6C65722063616E2072616973652064 PUSH1 0x44 DUP3 ADD MSTORE PUSH6 0x697370757465 PUSH1 0xD0 SHL PUSH1 0x64 DUP3 ADD MSTORE PUSH1 0x84 ADD PUSH2 0x33D JUMP JUMPDEST PUSH1 0x4 DUP1 SLOAD PUSH4 0xFFFF0000 NOT AND PUSH4 0x3010000 OR SWAP1 SSTORE PUSH1 0x40 MLOAD PUSH32 0xA9F218DF296BDFF29869B6B40927376285DB89E1726D55DC7A5583EAB3F72C42 SWAP1 PUSH1 0x0 SWAP1 LOG1 POP JUMP JUMPDEST PUSH1 0x2 SLOAD PUSH1 0x1 PUSH1 0x1 PUSH1 0xA0 SHL SUB AND CALLER EQ PUSH2 0x4F1 JUMPI PUSH1 0x40 MLOAD PUSH3 0x461BCD PUSH1 0xE5 SHL DUP2 MSTORE PUSH1 0x20 PUSH1 0x4 DUP3 ADD MSTORE PUSH1 0x1A PUSH1 0x24 DUP3 ADD MSTORE PUSH32 0x4F6E6C7920617262697465722063616E2063616C6C2074686973000000000000 PUSH1 0x44 DUP3 ADD MSTORE PUSH1 0x64 ADD PUSH2 0x33D JUMP JUMPDEST PUSH1 0x3 DUP1 PUSH1 0x4 SLOAD PUSH4 0x1000000 SWAP1 DIV PUSH1 0xFF AND PUSH1 0x3 DUP2 GT ISZERO PUSH2 0x512 JUMPI PUSH2 0x512 PUSH2 0x8B1 JUMP JUMPDEST EQ PUSH2 0x52F JUMPI PUSH1 0x40 MLOAD PUSH3 0x461BCD PUSH1 0xE5 SHL DUP2 MSTORE PUSH1 0x4 ADD PUSH2 0x33D SWAP1 PUSH2 0x974 JUMP JUMPDEST PUSH1 0x0 SLOAD PUSH1 0x1 PUSH1 0x1 PUSH1 0xA0 SHL SUB DUP4 DUP2 AND SWAP2 AND EQ DUP1 PUSH2 0x558 JUMPI POP PUSH1 0x1 SLOAD PUSH1 0x1 PUSH1 0x1 PUSH1 0xA0 SHL SUB DUP4 DUP2 AND SWAP2 AND EQ JUMPDEST PUSH2 0x5A4 JUMPI PUSH1 0x40 MLOAD PUSH3 0x461BCD PUSH1 0xE5 SHL DUP2 MSTORE PUSH1 0x20 PUSH1 0x4 DUP3 ADD MSTORE PUSH1 0x1E PUSH1 0x24 DUP3 ADD MSTORE PUSH32 0x57696E6E6572206D757374206265206275796572206F722073656C6C65720000 PUSH1 0x44 DUP3 ADD MSTORE PUSH1 0x64 ADD PUSH2 0x33D JUMP JUMPDEST PUSH2 0x5AD DUP3 PUSH2 0x7B7 JUMP JUMPDEST PUSH1 0x40 MLOAD PUSH1 0x1 PUSH1 0x1 PUSH1 0xA0 SHL SUB DUP4 AND DUP2 MSTORE PUSH32 0x8476B4C4CD5F496CFE2043ED12CD9E3E3540E97649536B9AA3FA67F06A7134DB SWAP1 PUSH1 0x20 ADD JUMPDEST PUSH1 0x40 MLOAD DUP1 SWAP2 SUB SWAP1 LOG1 POP POP JUMP JUMPDEST PUSH1 0x0 SLOAD PUSH1 0x1 PUSH1 0x1 PUSH1 0xA0 SHL SUB AND CALLER EQ PUSH2 0x643 JUMPI PUSH1 0x40 MLOAD PUSH3 0x461BCD PUSH1 0xE5 SHL DUP2 MSTORE PUSH1 0x20 PUSH1 0x4 DUP3 ADD MSTORE PUSH1 0x18 PUSH1 0x24 DUP3 ADD MSTORE PUSH24 0x4F6E6C792062757965722063616E2063616C6C2074686973 PUSH1 0x40 SHL PUSH1 0x44 DUP3 ADD MSTORE PUSH1 0x64 ADD PUSH2 0x33D JUMP JUMPDEST PUSH1 0x0 DUP1 PUSH1 0x4 SLOAD PUSH4 0x1000000 SWAP1 DIV PUSH1 0xFF AND PUSH1 0x3 DUP2 GT ISZERO PUSH2 0x664 JUMPI PUSH2 0x664 PUSH2 0x8B1 JUMP JUMPDEST EQ PUSH2 0x681 JUMPI PUSH1 0x40 MLOAD PUSH3 0x461BCD PUSH1 0xE5 SHL DUP2 MSTORE PUSH1 0x4 ADD PUSH2 0x33D SWAP1 PUSH2 0x974 JUMP JUMPDEST PUSH1 0x0 CALLVALUE GT PUSH2 0x6D1 JUMPI PUSH1 0x40 MLOAD PUSH3 0x461BCD PUSH1 0xE5 SHL DUP2 MSTORE PUSH1 0x20 PUSH1 0x4 DUP3 ADD MSTORE PUSH1 0x17 PUSH1 0x24 DUP3 ADD MSTORE PUSH32 0x4D757374206465706F73697420736F6D652066756E6473000000000000000000 PUSH1 0x44 DUP3 ADD MSTORE PUSH1 0x64 ADD PUSH2 0x33D JUMP JUMPDEST CALLVALUE PUSH1 0x3 DUP2 SWAP1 SSTORE PUSH1 0x4 DUP1 SLOAD PUSH4 0xFF0000FF NOT AND PUSH4 0x1000001 OR SWAP1 SSTORE PUSH1 0x40 DUP1 MLOAD SWAP2 DUP3 MSTORE MLOAD PUSH32 0x7CB5D45C1071F219BD2DA1EA101758715BD52F23F2A707F2D9A0387DEA18D906 SWAP2 DUP2 SWAP1 SUB PUSH1 0x20 ADD SWAP1 LOG1 POP JUMP JUMPDEST PUSH1 0x1 SLOAD PUSH1 0x1 PUSH1 0x1 PUSH1 0xA0 SHL SUB AND CALLER EQ PUSH2 0x779 JUMPI PUSH1 0x40 MLOAD PUSH3 0x461BCD PUSH1 0xE5 SHL DUP2 MSTORE PUSH1 0x20 PUSH1 0x4 DUP3 ADD MSTORE PUSH1 0x19 PUSH1 0x24 DUP3 ADD MSTORE PUSH32 0x4F6E6C792073656C6C65722063616E2063616C6C207468697300000000000000 PUSH1 0x44 DUP3 ADD MSTORE PUSH1 0x64 ADD PUSH2 0x33D JUMP JUMPDEST PUSH1 0x1 DUP1 PUSH1 0x4 SLOAD PUSH4 0x1000000 SWAP1 DIV PUSH1 0xFF AND PUSH1 0x3 DUP2 GT ISZERO PUSH2 0x79A JUMPI PUSH2 0x79A PUSH2 0x8B1 JUMP JUMPDEST EQ PUSH2 0x399 JUMPI PUSH1 0x40 MLOAD PUSH3 0x461BCD PUSH1 0xE5 SHL DUP2 MSTORE PUSH1 0x4 ADD PUSH2 0x33D SWAP1 PUSH2 0x974 JUMP JUMPDEST PUSH1 0x4 SLOAD PUSH1 0xFF AND DUP1 ISZERO PUSH2 0x7D1 JUMPI POP PUSH1 0x4 SLOAD PUSH2 0x100 SWAP1 DIV PUSH1 0xFF AND ISZERO JUMPDEST PUSH2 0x81D JUMPI PUSH1 0x40 MLOAD PUSH3 0x461BCD PUSH1 0xE5 SHL DUP2 MSTORE PUSH1 0x20 PUSH1 0x4 DUP3 ADD MSTORE PUSH1 0x1F PUSH1 0x24 DUP3 ADD MSTORE PUSH32 0x46756E6473206E6F7420617661696C61626C6520666F722072656C6561736500 PUSH1 0x44 DUP3 ADD MSTORE PUSH1 0x64 ADD PUSH2 0x33D JUMP JUMPDEST PUSH1 0x4 DUP1 SLOAD PUSH4 0xFF00FF00 NOT AND PUSH4 0x2000100 OR SWAP1 SSTORE PUSH1 0x3 DUP1 SLOAD PUSH1 0x0 SWAP2 DUP3 SWAP1 SSTORE PUSH1 0x40 MLOAD SWAP1 SWAP2 PUSH1 0x1 PUSH1 0x1 PUSH1 0xA0 SHL SUB DUP5 AND SWAP2 DUP4 ISZERO PUSH2 0x8FC MUL SWAP2 DUP5 SWAP2 SWAP1 DUP2 DUP2 DUP2 DUP6 DUP9 DUP9 CALL SWAP4 POP POP POP POP ISZERO DUP1 ISZERO PUSH2 0x871 JUMPI RETURNDATASIZE PUSH1 0x0 DUP1 RETURNDATACOPY RETURNDATASIZE PUSH1 0x0 REVERT JUMPDEST POP PUSH1 0x40 DUP1 MLOAD PUSH1 0x1 PUSH1 0x1 PUSH1 0xA0 SHL SUB DUP5 AND DUP2 MSTORE PUSH1 0x20 DUP2 ADD DUP4 SWAP1 MSTORE PUSH32 0x221C08A06B07A64803B3787861A3F276212FCCCB51C2E6234077A9B8CB13047A SWAP2 ADD PUSH2 0x5E2 JUMP JUMPDEST PUSH4 0x4E487B71 PUSH1 0xE0 SHL PUSH1 0x0 MSTORE PUSH1 0x21 PUSH1 0x4 MSTORE PUSH1 0x24 PUSH1 0x0 REVERT JUMPDEST PUSH1 0x4 DUP2 LT PUSH2 0x8E5 JUMPI PUSH4 0x4E487B71 PUSH1 0xE0 SHL PUSH1 0x0 MSTORE PUSH1 0x21 PUSH1 0x4 MSTORE PUSH1 0x24 PUSH1 0x0 REVERT JUMPDEST SWAP1 MSTORE JUMP JUMPDEST PUSH1 0x20 DUP2 ADD PUSH2 0x8F7 DUP3 DUP5 PUSH2 0x8C7 JUMP JUMPDEST SWAP3 SWAP2 POP POP JUMP JUMPDEST PUSH1 0x1 PUSH1 0x1 PUSH1 0xA0 SHL SUB DUP8 DUP2 AND DUP3 MSTORE DUP7 DUP2 AND PUSH1 0x20 DUP4 ADD MSTORE DUP6 AND PUSH1 0x40 DUP3 ADD MSTORE PUSH1 0x60 DUP2 ADD DUP5 SWAP1 MSTORE PUSH1 0xC0 DUP2 ADD PUSH2 0x931 PUSH1 0x80 DUP4 ADD DUP6 PUSH2 0x8C7 JUMP JUMPDEST DUP3 ISZERO ISZERO PUSH1 0xA0 DUP4 ADD MSTORE SWAP8 SWAP7 POP POP POP POP POP POP POP JUMP JUMPDEST PUSH1 0x0 PUSH1 0x20 DUP3 DUP5 SUB SLT ISZERO PUSH2 0x956 JUMPI PUSH1 0x0 DUP1 REVERT JUMPDEST DUP2 CALLDATALOAD PUSH1 0x1 PUSH1 0x1 PUSH1 0xA0 SHL SUB DUP2 AND DUP2 EQ PUSH2 0x96D JUMPI PUSH1 0x0 DUP1 REVERT JUMPDEST SWAP4 SWAP3 POP POP POP JUMP JUMPDEST PUSH1 0x20 DUP1 DUP3 MSTORE PUSH1 0x1D SWAP1 DUP3 ADD MSTORE PUSH32 0x496E76616C696420737461746520666F72207468697320616374696F6E000000 PUSH1 0x40 DUP3 ADD MSTORE PUSH1 0x60 ADD SWAP1 JUMP INVALID LOG2 PUSH5 0x6970667358 0x22 SLT KECCAK256 0xD7 0xCF SWAP13 PUSH23 0x851D6F81B9266F6539356AE739B2B44FD1287235F635E ORIGIN XOR GASPRICE 0xA6 PUSH18 0x64736F6C6343000814003300000000000000 "},"gasEstimates":{"creation":{"codeDepositCost":"505800","executionCost":"infinite","totalCost":"infinite"},"external":{"amount()":"2340","arbiter()":"2425","buyer()":"2426","confirmDelivery()":"infinite","currentState()":"2464","depositFunds()":"51889","disputed()":"2334","fundsDeposited()":"2388","fundsReleased()":"2377","getBalance()":"206","getContractDetails()":"11020","raiseDispute()":"31659","requestRelease()":"4647","resolveDispute(address)":"infinite","seller()":"2383"},"internal":{"_releaseFunds(address)":"infinite"}},"methodIdentifiers":{"amount()":"aa8c217c","arbiter()":"fe25e00a","buyer()":"7150d8ae","confirmDelivery()":"5e10177b","currentState()":"0c3f6acf","depositFunds()":"e2c41dbc","disputed()":"0695c46c","fundsDeposited()":"cacd1715","fundsReleased()":"b564e926","getBalance()":"12065fe0","getContractDetails()":"9dfc9117","raiseDispute()":"6daa2d44","requestRelease()":"fdc5587b","resolveDispute(address)":"d8461182","seller()":"08551a53"}},"storageLayout":{"storage":[{"astId":3,"contract":"contracts/SimpleEscrow.sol:SimpleEscrow","label":"buyer","offset":0,"slot":"0","type":"t_address"},{"astId":5,"contract":"contracts/SimpleEscrow.sol:SimpleEscrow","label":"seller","offset":0,"slot":"1","type":"t_address"},{"astId":7,"contract":"contracts/SimpleEscrow.sol:SimpleEscrow","label":"arbiter","offset":0,"slot":"2","type":"t_address"},{"astId":9,"contract":"contracts/SimpleEscrow.sol:SimpleEscrow","label":"amount","offset":0,"slot":"3","type":"t_uint256"},{"astId":11,"contract":"contracts/SimpleEscrow.sol:SimpleEscrow","label":"fundsDeposited","offset":0,"slot":"4","type":"t_bool"},{"astId":13,"contract":"contracts/SimpleEscrow.sol:SimpleEscrow","label":"fundsReleased","offset":1,"slot":"4","type":"t_bool"},{"astId":15,"contract":"contracts/SimpleEscrow.sol:SimpleEscrow","label":"disputed","offset":2,"slot":"4","type":"t_bool"},{"astId":23,"contract":"contracts/SimpleEscrow.sol:SimpleEscrow","label":"currentState","offset":3,"slot":"4","type":"t_enum(State)20"}],"types":{"t_address":{"encoding":"inplace","label":"address","numberOfBytes":"20"},"t_bool":{"encoding":"inplace","label":"bool","numberOfBytes":"1"},"t_enum(State)20":{"encoding":"inplace","label":"enum SimpleEscrow.State","numberOfBytes":"1"},"t_uint256":{"encoding":"inplace","label":"uint256","numberOfBytes":"32"}}},"userdoc":{"kind":"user","methods":{},"version":1}}}}