{"contracts/RandomPacket.sol":{"RandomPacket":{"abi":[{"inputs":[{"internalType":"address","name":"_vrfCoordinator","type":"address"},{"internalType":"bytes32","name":"_keyHash","type":"bytes32"},{"internalType":"uint64","name":"_subscriptionId","type":"uint64"}],"stateMutability":"nonpayable","type":"constructor"},{"anonymous":false,"inputs":[{"indexed":true,"internalType":"uint256","name":"packetId","type":"uint256"},{"indexed":true,"internalType":"address","name":"creator","type":"address"},{"indexed":false,"internalType":"uint256","name":"totalValue","type":"uint256"}],"name":"PacketCreated","type":"event"},{"anonymous":false,"inputs":[{"indexed":true,"internalType":"uint256","name":"packetId","type":"uint256"},{"indexed":true,"internalType":"address","name":"opener","type":"address"},{"indexed":false,"internalType":"uint256","name":"reward","type":"uint256"},{"indexed":false,"internalType":"enum RandomPacket.RewardType","name":"rewardType","type":"uint8"}],"name":"PacketOpened","type":"event"},{"anonymous":false,"inputs":[{"indexed":true,"internalType":"uint256","name":"requestId","type":"uint256"},{"indexed":false,"internalType":"uint256","name":"randomValue","type":"uint256"}],"name":"RandomnessFulfilled","type":"event"},{"anonymous":false,"inputs":[{"indexed":true,"internalType":"uint256","name":"requestId","type":"uint256"},{"indexed":true,"internalType":"uint256","name":"packetId","type":"uint256"}],"name":"RandomnessRequested","type":"event"},{"inputs":[{"internalType":"address","name":"","type":"address"}],"name":"authorizedCreators","outputs":[{"internalType":"bool","name":"","type":"bool"}],"stateMutability":"view","type":"function"},{"inputs":[],"name":"callbackGasLimit","outputs":[{"internalType":"uint32","name":"","type":"uint32"}],"stateMutability":"view","type":"function"},{"inputs":[{"internalType":"uint256","name":"_packetId","type":"uint256"}],"name":"cancelExpiredPacket","outputs":[],"stateMutability":"nonpayable","type":"function"},{"inputs":[{"internalType":"uint256","name":"_packetId","type":"uint256"},{"internalType":"bytes32","name":"_commitment","type":"bytes32"}],"name":"commitForPacket","outputs":[],"stateMutability":"nonpayable","type":"function"},{"inputs":[{"internalType":"uint256","name":"","type":"uint256"}],"name":"commitRevealData","outputs":[{"internalType":"bytes32","name":"commitment","type":"bytes32"},{"internalType":"uint256","name":"revealDeadline","type":"uint256"},{"internalType":"bool","name":"revealed","type":"bool"},{"internalType":"uint256","name":"nonce","type":"uint256"}],"stateMutability":"view","type":"function"},{"inputs":[],"name":"commitRevealWindow","outputs":[{"internalType":"uint256","name":"","type":"uint256"}],"stateMutability":"view","type":"function"},{"inputs":[{"internalType":"uint256","name":"_numRewards","type":"uint256"},{"internalType":"uint256[]","name":"_rewardAmounts","type":"uint256[]"}],"name":"createETHPacket","outputs":[{"internalType":"uint256","name":"","type":"uint256"}],"stateMutability":"payable","type":"function"},{"inputs":[{"internalType":"enum RandomPacket.RewardType[]","name":"_rewardTypes","type":"uint8[]"},{"internalType":"uint256[]","name":"_rewardAmounts","type":"uint256[]"},{"internalType":"address[]","name":"_tokenAddresses","type":"address[]"},{"internalType":"uint256[]","name":"_nftIds","type":"uint256[]"}],"name":"createMixedPacket","outputs":[{"internalType":"uint256","name":"","type":"uint256"}],"stateMutability":"payable","type":"function"},{"inputs":[{"internalType":"address","name":"_tokenAddress","type":"address"},{"internalType":"uint256[]","name":"_rewardAmounts","type":"uint256[]"},{"internalType":"bool","name":"_useVRF","type":"bool"}],"name":"createTokenPacket","outputs":[{"internalType":"uint256","name":"","type":"uint256"}],"stateMutability":"nonpayable","type":"function"},{"inputs":[],"name":"defaultExpiryTime","outputs":[{"internalType":"uint256","name":"","type":"uint256"}],"stateMutability":"view","type":"function"},{"inputs":[],"name":"emergencyWithdraw","outputs":[],"stateMutability":"nonpayable","type":"function"},{"inputs":[{"internalType":"uint256","name":"_requestId","type":"uint256"},{"internalType":"uint256[]","name":"_randomWords","type":"uint256[]"}],"name":"fulfillRandomWords","outputs":[],"stateMutability":"nonpayable","type":"function"},{"inputs":[{"internalType":"uint256","name":"_packetId","type":"uint256"}],"name":"getPacket","outputs":[{"internalType":"address","name":"creator","type":"address"},{"internalType":"uint256","name":"totalValue","type":"uint256"},{"internalType":"uint256","name":"createdAt","type":"uint256"},{"internalType":"uint256","name":"expiresAt","type":"uint256"},{"internalType":"enum RandomPacket.PacketStatus","name":"status","type":"uint8"},{"internalType":"uint256","name":"rewardCount","type":"uint256"}],"stateMutability":"view","type":"function"},{"inputs":[{"internalType":"address","name":"_user","type":"address"}],"name":"getUserPackets","outputs":[{"internalType":"uint256[]","name":"","type":"uint256[]"}],"stateMutability":"view","type":"function"},{"inputs":[],"name":"keyHash","outputs":[{"internalType":"bytes32","name":"","type":"bytes32"}],"stateMutability":"view","type":"function"},{"inputs":[],"name":"nextPacketId","outputs":[{"internalType":"uint256","name":"","type":"uint256"}],"stateMutability":"view","type":"function"},{"inputs":[{"internalType":"uint256","name":"_packetId","type":"uint256"}],"name":"openPacket","outputs":[],"stateMutability":"nonpayable","type":"function"},{"inputs":[{"internalType":"uint256","name":"_packetId","type":"uint256"}],"name":"openPacketWithVRF","outputs":[],"stateMutability":"nonpayable","type":"function"},{"inputs":[],"name":"owner","outputs":[{"internalType":"address","name":"","type":"address"}],"stateMutability":"view","type":"function"},{"inputs":[{"internalType":"uint256","name":"","type":"uint256"}],"name":"packets","outputs":[{"internalType":"address","name":"creator","type":"address"},{"internalType":"uint256","name":"totalValue","type":"uint256"},{"internalType":"uint256","name":"createdAt","type":"uint256"},{"internalType":"uint256","name":"expiresAt","type":"uint256"},{"internalType":"enum RandomPacket.PacketStatus","name":"status","type":"uint8"},{"internalType":"enum RandomPacket.RandomnessSource","name":"randomnessSource","type":"uint8"},{"internalType":"bool","name":"requiresVRF","type":"bool"},{"internalType":"uint256","name":"vrfRequestId","type":"uint256"}],"stateMutability":"view","type":"function"},{"inputs":[],"name":"requestConfirmations","outputs":[{"internalType":"uint16","name":"","type":"uint16"}],"stateMutability":"view","type":"function"},{"inputs":[{"internalType":"uint256","name":"_packetId","type":"uint256"},{"internalType":"uint256","name":"_nonce","type":"uint256"},{"internalType":"uint256","name":"_value","type":"uint256"}],"name":"revealAndOpen","outputs":[],"stateMutability":"nonpayable","type":"function"},{"inputs":[{"internalType":"address","name":"_creator","type":"address"},{"internalType":"bool","name":"_authorized","type":"bool"}],"name":"setAuthorizedCreator","outputs":[],"stateMutability":"nonpayable","type":"function"},{"inputs":[{"internalType":"uint256","name":"_expiryTime","type":"uint256"}],"name":"setDefaultExpiryTime","outputs":[],"stateMutability":"nonpayable","type":"function"},{"inputs":[{"internalType":"bytes32","name":"_keyHash","type":"bytes32"},{"internalType":"uint64","name":"_subscriptionId","type":"uint64"},{"internalType":"uint16","name":"_requestConfirmations","type":"uint16"},{"internalType":"uint32","name":"_callbackGasLimit","type":"uint32"}],"name":"setVRFParameters","outputs":[],"stateMutability":"nonpayable","type":"function"},{"inputs":[],"name":"subscriptionId","outputs":[{"internalType":"uint64","name":"","type":"uint64"}],"stateMutability":"view","type":"function"},{"inputs":[{"internalType":"address","name":"","type":"address"},{"internalType":"uint256","name":"","type":"uint256"}],"name":"userPackets","outputs":[{"internalType":"uint256","name":"","type":"uint256"}],"stateMutability":"view","type":"function"},{"inputs":[],"name":"vrfCoordinator","outputs":[{"internalType":"contract VRFCoordinatorV2Interface","name":"","type":"address"}],"stateMutability":"view","type":"function"},{"inputs":[{"internalType":"uint256","name":"","type":"uint256"}],"name":"vrfRequestToPacket","outputs":[{"internalType":"uint256","name":"","type":"uint256"}],"stateMutability":"view","type":"function"},{"stateMutability":"payable","type":"receive"}],"devdoc":{"details":"A smart contract for creating random packets with various reward types Supports multiple randomness sources and packet types","kind":"dev","methods":{"cancelExpiredPacket(uint256)":{"details":"Cancel an expired packet and refund creator"},"commitForPacket(uint256,bytes32)":{"details":"Commit phase for commit-reveal randomness"},"createETHPacket(uint256,uint256[])":{"details":"Create a simple ETH packet with block hash randomness"},"createMixedPacket(uint8[],uint256[],address[],uint256[])":{"details":"Create a mixed packet with commit-reveal randomness"},"createTokenPacket(address,uint256[],bool)":{"details":"Create a token packet with VRF randomness"},"emergencyWithdraw()":{"details":"Emergency withdrawal function"},"fulfillRandomWords(uint256,uint256[])":{"details":"Chainlink VRF callback"},"getPacket(uint256)":{"details":"Get packet details"},"getUserPackets(address)":{"details":"Get user's packets"},"openPacket(uint256)":{"details":"Open a packet using block hash randomness"},"openPacketWithVRF(uint256)":{"details":"Open packet with VRF randomness"},"revealAndOpen(uint256,uint256,uint256)":{"details":"Reveal phase for commit-reveal randomness"},"setAuthorizedCreator(address,bool)":{"details":"Admin functions"}},"title":"RandomPacket","version":1},"evm":{"bytecode":{"linkReferences":{},"object":"6080604052600160045562093a80600555610e106006556009805465ffffffffffff60401b19166c0186a0000300000000000000001790553480156200004457600080fd5b506040516200285d3803806200285d8339810160408190526200006791620000d9565b600a8054336001600160a01b031991821681179092556000918252600b6020526040909120805460ff19166001179055600780549091166001600160a01b039490941693909317909255600855600980546001600160401b0319166001600160401b0390921691909117905562000137565b600080600060608486031215620000ef57600080fd5b83516001600160a01b03811681146200010757600080fd5b6020850151604086015191945092506001600160401b03811681146200012c57600080fd5b809150509250925092565b61271680620001476000396000f3fe6080604052600436106101c65760003560e01c80636636a448116100f7578063b0fb162f11610095578063e1434f4e11610064578063e1434f4e14610654578063ed4c167b14610674578063f29d04ab14610694578063f32c51b1146106b457600080fd5b8063b0fb162f14610545578063c695502a1461057a578063d0a9e0c0146105ba578063db2e21bc1461063f57600080fd5b80639d570502116100d15780639d57050214610467578063a2600b1c14610487578063a3e56fa8146104b4578063a59455dc146104d457600080fd5b80636636a448146103ad5780636917d78c146104195780638da5cb5b1461042f57600080fd5b806335ad95b911610164578063390b57861161013e578063390b5786146103445780633f1a4c8c146103645780635ca6fcea1461037757806361728f391461039757600080fd5b806335ad95b9146102d757806335b69ed51461030457806338ba46141461032457600080fd5b806326947a14116101a057806326947a141461026c5780632864f57b146102825780632c606568146102955780632cb1f024146102b757600080fd5b806309c1ba2e146101d25780631aefa1b61461020f57806324f746971461023357600080fd5b366101cd57005b600080fd5b3480156101de57600080fd5b506009546101f2906001600160401b031681565b6040516001600160401b0390911681526020015b60405180910390f35b34801561021b57600080fd5b5061022560065481565b604051908152602001610206565b34801561023f57600080fd5b5060095461025790600160501b900463ffffffff1681565b60405163ffffffff9091168152602001610206565b34801561027857600080fd5b5061022560055481565b6102256102903660046120d9565b6106d4565b3480156102a157600080fd5b506102b56102b036600461211f565b610924565b005b3480156102c357600080fd5b506102b56102d2366004612141565b610a43565b3480156102e357600080fd5b506102256102f2366004612141565b60026020526000908152604090205481565b34801561031057600080fd5b506102b561031f366004612141565b610ba5565b34801561033057600080fd5b506102b561033f3660046120d9565b610bd4565b34801561035057600080fd5b5061022561035f366004612176565b610cfe565b610225610372366004612202565b610d2f565b34801561038357600080fd5b506102b5610392366004612141565b610fec565b3480156103a357600080fd5b5061022560085481565b3480156103b957600080fd5b506103f36103c8366004612141565b60016020819052600091825260409091208054918101546002820154600390920154909160ff169084565b604080519485526020850193909352901515918301919091526060820152608001610206565b34801561042557600080fd5b5061022560045481565b34801561043b57600080fd5b50600a5461044f906001600160a01b031681565b6040516001600160a01b039091168152602001610206565b34801561047357600080fd5b506102b5610482366004612311565b611211565b34801561049357600080fd5b506104a76104a236600461233d565b6113b9565b604051610206919061235f565b3480156104c057600080fd5b5060075461044f906001600160a01b031681565b3480156104e057600080fd5b506105336104ef366004612141565b6000908152602081905260409020805460018201546002830154600384015460048501546005909501546001600160a01b039094169592949193909260ff90921691565b604051610206969594939291906123c9565b34801561055157600080fd5b5060095461056790600160401b900461ffff1681565b60405161ffff9091168152602001610206565b34801561058657600080fd5b506105aa61059536600461233d565b600b6020526000908152604090205460ff1681565b6040519015158152602001610206565b3480156105c657600080fd5b5061062b6105d5366004612141565b6000602081905290815260409020805460018201546002830154600384015460048501546009860154600a909601546001600160a01b039095169593949293919260ff9182169280831692610100909104169088565b60405161020698979695949392919061240b565b34801561064b57600080fd5b506102b5611425565b34801561066057600080fd5b506102b561066f36600461247d565b61148b565b34801561068057600080fd5b506102b561068f366004612141565b6114e0565b3480156106a057600080fd5b506102b56106af3660046124b4565b61175d565b3480156106c057600080fd5b506102256106cf366004612523565b6117dc565b600080831180156106e65750600a8311155b61070b5760405162461bcd60e51b815260040161070290612584565b60405180910390fd5b8282511461074f5760405162461bcd60e51b81526020600482015260116024820152704d69736d6174636865642061727261797360781b6044820152606401610702565b6000805b83518110156107955783818151811061076e5761076e6125b2565b60200260200101518261078191906125de565b91508061078d816125f1565b915050610753565b50803410156107de5760405162461bcd60e51b8152602060048201526015602482015274125b9cdd59999a58da595b9d08115512081cd95b9d605a1b6044820152606401610702565b6000846001600160401b038111156107f8576107f8612005565b604051908082528060200260200182016040528015610821578160200160208202803683370190505b50905060005b85811015610884576000828281518110610843576108436125b2565b6020026020010190600381111561085c5761085c6123a3565b9081600381111561086f5761086f6123a3565b9052508061087c816125f1565b915050610827565b506000610918838387896001600160401b038111156108a5576108a5612005565b6040519080825280602002602001820160405280156108ce578160200160208202803683370190505b508a6001600160401b038111156108e7576108e7612005565b604051908082528060200260200182016040528015610910578160200160208202803683370190505b506000611a98565b93505050505b92915050565b600082815260208190526040812090600482015460ff16600381111561094c5761094c6123a3565b146109695760405162461bcd60e51b81526004016107029061260a565b6002600982015460ff166002811115610984576109846123a3565b146109d15760405162461bcd60e51b815260206004820152601860248201527f4e6f7420636f6d6d69742d72657665616c207061636b657400000000000000006044820152606401610702565b6040518060800160405280838152602001600654426109f091906125de565b815260006020808301829052604092830182905295815260018087529082902083518155958301519086015581015160028501805460ff1916911515919091179055606001516003909301929092555050565b600081815260208190526040812090600482015460ff166003811115610a6b57610a6b6123a3565b14610a885760405162461bcd60e51b81526004016107029061260a565b8060030154421115610acd5760405162461bcd60e51b815260206004820152600e60248201526d141858dad95d08195e1c1a5c995960921b6044820152606401610702565b6009810154610100900460ff1615610b205760405162461bcd60e51b8152602060048201526016602482015275155cd948159491881bdc195b9a5b99c81b595d1a1bd960521b6044820152606401610702565b6002600982015460ff166002811115610b3b57610b3b6123a3565b03610b885760405162461bcd60e51b815260206004820152601860248201527f55736520636f6d6d69742d72657665616c206d6574686f6400000000000000006044820152606401610702565b6000610b9383611c0c565b9050610ba0838233611c76565b505050565b600a546001600160a01b03163314610bcf5760405162461bcd60e51b815260040161070290612635565b600555565b6007546001600160a01b03163314610c255760405162461bcd60e51b815260206004820152601460248201527327b7363c902b29231031b7b7b93234b730ba37b960611b6044820152606401610702565b60008281526002602052604081205490819003610c795760405162461bcd60e51b8152602060048201526012602482015271125b9d985b1a59081c995c5d595cdd08125160721b6044820152606401610702565b600082600081518110610c8e57610c8e6125b2565b60200260200101519050837f546aca7b2683440b8f02fa95faeb8efc79dd0f16af3d815a002742ea6f76116c82604051610cca91815260200190565b60405180910390a2600082815260208190526040902080546001600160a01b0316610cf6848483611c76565b505050505050565b60036020528160005260406000208181548110610d1a57600080fd5b90600052602060002001600091509150505481565b6000808551118015610d435750600a855111155b610d5f5760405162461bcd60e51b815260040161070290612584565b8351855114610da45760405162461bcd60e51b81526020600482015260116024820152704d69736d6174636865642061727261797360781b6044820152606401610702565b6000805b8651811015610f87576000878281518110610dc557610dc56125b2565b60200260200101516003811115610dde57610dde6123a3565b03610e0f57858181518110610df557610df56125b2565b602002602001015182610e0891906125de565b9150610f75565b6001878281518110610e2357610e236125b2565b60200260200101516003811115610e3c57610e3c6123a3565b03610f755760006001600160a01b0316858281518110610e5e57610e5e6125b2565b60200260200101516001600160a01b031603610eb45760405162461bcd60e51b8152602060048201526015602482015274496e76616c696420746f6b656e206164647265737360581b6044820152606401610702565b848181518110610ec657610ec66125b2565b60200260200101516001600160a01b03166323b872dd3330898581518110610ef057610ef06125b2565b60209081029190910101516040516001600160e01b031960e086901b1681526001600160a01b03938416600482015292909116602483015260448201526064016020604051808303816000875af1158015610f4f573d6000803e3d6000fd5b505050506040513d601f19601f82011682018060405250810190610f739190612658565b505b80610f7f816125f1565b915050610da8565b5080341015610fd05760405162461bcd60e51b8152602060048201526015602482015274125b9cdd59999a58da595b9d08115512081cd95b9d605a1b6044820152606401610702565b6000610fe134888888886002611a98565b979650505050505050565b600081815260208190526040812090600482015460ff166003811115611014576110146123a3565b146110315760405162461bcd60e51b81526004016107029061260a565b80600301544211156110765760405162461bcd60e51b815260206004820152600e60248201526d141858dad95d08195e1c1a5c995960921b6044820152606401610702565b6009810154610100900460ff166110cf5760405162461bcd60e51b815260206004820152601a60248201527f55736520726567756c6172206f70656e696e67206d6574686f640000000000006044820152606401610702565b600a810154156111195760405162461bcd60e51b815260206004820152601560248201527415949188185b1c9958591e481c995c5d595cdd1959605a1b6044820152606401610702565b6007546008546009546040516305d3b1d360e41b815260048101929092526001600160401b0381166024830152600160401b810461ffff166044830152600160501b900463ffffffff166064820152600160848201526000916001600160a01b031690635d3b1d309060a4016020604051808303816000875af11580156111a4573d6000803e3d6000fd5b505050506040513d601f19601f820116820180604052508101906111c89190612675565b600a830181905560008181526002602052604080822086905551919250849183917f3d94fecedaa4f90b8bd459797adb95f5bb11426025c5541390d9ccc1ad1b60a191a3505050565b600083815260208181526040808320600190925282209091600483015460ff166003811115611242576112426123a3565b1461125f5760405162461bcd60e51b81526004016107029061260a565b80600101544211156112ac5760405162461bcd60e51b815260206004820152601660248201527514995d99585b08191958591b1a5b99481c185cdcd95960521b6044820152606401610702565b600281015460ff16156112f45760405162461bcd60e51b815260206004820152601060248201526f105b1c9958591e481c995d99585b195960821b6044820152606401610702565b80546040805160208101869052908101869052606001604051602081830303815290604052805190602001201461135e5760405162461bcd60e51b815260206004820152600e60248201526d125b9d985b1a59081c995d99585b60921b6044820152606401610702565b60028101805460ff1916600117905560038101849055604080516020810185905242918101919091524460608201526000906080016040516020818303038152906040528051906020012060001c9050610cf6868233611c76565b6001600160a01b03811660009081526003602090815260409182902080548351818402810184019094528084526060939283018282801561141957602002820191906000526020600020905b815481526020019060010190808311611405575b50505050509050919050565b600a546001600160a01b0316331461144f5760405162461bcd60e51b815260040161070290612635565b600a546040516001600160a01b03909116904780156108fc02916000818181858888f19350505050158015611488573d6000803e3d6000fd5b50565b600a546001600160a01b031633146114b55760405162461bcd60e51b815260040161070290612635565b6001600160a01b03919091166000908152600b60205260409020805460ff1916911515919091179055565b600081815260208190526040812090600482015460ff166003811115611508576115086123a3565b146115255760405162461bcd60e51b81526004016107029061260a565b8060030154421161156d5760405162461bcd60e51b8152602060048201526012602482015271141858dad95d081b9bdd08195e1c1a5c995960721b6044820152606401610702565b80546001600160a01b031633148061158f5750600a546001600160a01b031633145b6115cc5760405162461bcd60e51b815260206004820152600e60248201526d139bdd08185d5d1a1bdc9a5e995960921b6044820152606401610702565b60048101805460ff1916600317905560018101541561162457805460018201546040516001600160a01b039092169181156108fc0291906000818181858888f19350505050158015611622573d6000803e3d6000fd5b505b60005b6005820154811015610ba057600182600501828154811061164a5761164a6125b2565b90600052602060002090602091828204019190069054906101000a900460ff16600381111561167b5761167b6123a3565b0361174b57816007018181548110611695576116956125b2565b60009182526020909120015482546006840180546001600160a01b039384169363a9059cbb93169190859081106116ce576116ce6125b2565b6000918252602090912001546040516001600160e01b031960e085901b1681526001600160a01b03909216600483015260248201526044016020604051808303816000875af1158015611725573d6000803e3d6000fd5b505050506040513d601f19601f820116820180604052508101906117499190612658565b505b80611755816125f1565b915050611627565b600a546001600160a01b031633146117875760405162461bcd60e51b815260040161070290612635565b6008939093556009805463ffffffff909416600160501b0263ffffffff60501b1961ffff909316600160401b0269ffffffffffffffffffff199095166001600160401b03909416939093179390931716179055565b60008083511180156117f05750600a835111155b61180c5760405162461bcd60e51b815260040161070290612584565b6000805b84518110156118525784818151811061182b5761182b6125b2565b60200260200101518261183e91906125de565b91508061184a816125f1565b915050611810565b506040516323b872dd60e01b81523360048201523060248201526044810182905285906001600160a01b038216906323b872dd906064016020604051808303816000875af11580156118a8573d6000803e3d6000fd5b505050506040513d601f19601f820116820180604052508101906118cc9190612658565b6119105760405162461bcd60e51b8152602060048201526015602482015274151bdad95b881d1c985b9cd9995c8819985a5b1959605a1b6044820152606401610702565b600085516001600160401b0381111561192b5761192b612005565b604051908082528060200260200182016040528015611954578160200160208202803683370190505b509050600086516001600160401b0381111561197257611972612005565b60405190808252806020026020018201604052801561199b578160200160208202803683370190505b50905060005b8751811015611a2b5760018382815181106119be576119be6125b2565b602002602001019060038111156119d7576119d76123a3565b908160038111156119ea576119ea6123a3565b8152505088828281518110611a0157611a016125b2565b6001600160a01b039092166020928302919091019091015280611a23816125f1565b9150506119a1565b506000611a8b85848a858c516001600160401b03811115611a4e57611a4e612005565b604051908082528060200260200182016040528015611a77578160200160208202803683370190505b508c611a84576000611a98565b6001611a98565b9998505050505050505050565b6004805460009182919082611aac836125f1565b90915550600081815260208190526040902080546001600160a01b03191633178155600181018a905542600282018190556005549293509091611aee916125de565b600382015560048101805460ff191690558751611b1490600583019060208b0190611eac565b508651611b2a90600683019060208a0190611f60565b508551611b409060078301906020890190611f9b565b508451611b569060088301906020880190611f60565b5060098101805485919060ff19166001836002811115611b7857611b786123a3565b02179055506001846002811115611b9157611b916123a3565b60098301805461ff001916919092146101000217905533600081815260036020908152604080832080546001810182559084529282902090920185905590518b815284917f1d999e6d0aed36ea80544d0939873285e49b1592ea68247f048e63ffc1b01171910160405180910390a350979650505050505050565b600042443384611c1d60014361268e565b6040805160208101969096528501939093526bffffffffffffffffffffffff19606092831b1691840191909152607483015240609482015260b40160408051601f19818403018152919052805160209091012092915050565b600083815260208190526040812060048101805460ff191660011790556005810154909103611ceb57816001600160a01b0316847f96733c83c38055dc9ad5960359e547536db97d423905a340cc18be0dabc9d79960006003604051611cdd9291906126a1565b60405180910390a350505050565b6005810154600090611cfd90856126be565b90506000826005018281548110611d1657611d166125b2565b90600052602060002090602091828204019190069054906101000a900460ff1690506000836006018381548110611d4f57611d4f6125b2565b60009182526020822001549150826003811115611d6e57611d6e6123a3565b03611daf576040516001600160a01b0386169082156108fc029083906000818181858888f19350505050158015611da9573d6000803e3d6000fd5b50611e5f565b6001826003811115611dc357611dc36123a3565b03611e5f57836007018381548110611ddd57611ddd6125b2565b60009182526020909120015460405163a9059cbb60e01b81526001600160a01b038781166004830152602482018490529091169063a9059cbb906044016020604051808303816000875af1158015611e39573d6000803e3d6000fd5b505050506040513d601f19601f82011682018060405250810190611e5d9190612658565b505b846001600160a01b0316877f96733c83c38055dc9ad5960359e547536db97d423905a340cc18be0dabc9d7998385604051611e9b9291906126a1565b60405180910390a350505050505050565b82805482825590600052602060002090601f01602090048101928215611f505791602002820160005b83821115611f2157835183826101000a81548160ff02191690836003811115611f0057611f006123a3565b02179055509260200192600101602081600001049283019260010302611ed5565b8015611f4e5782816101000a81549060ff0219169055600101602081600001049283019260010302611f21565b505b50611f5c929150611ff0565b5090565b828054828255906000526020600020908101928215611f50579160200282015b82811115611f50578251825591602001919060010190611f80565b828054828255906000526020600020908101928215611f50579160200282015b82811115611f5057825182546001600160a01b0319166001600160a01b03909116178255602090920191600190910190611fbb565b5b80821115611f5c5760008155600101611ff1565b634e487b7160e01b600052604160045260246000fd5b604051601f8201601f191681016001600160401b038111828210171561204357612043612005565b604052919050565b60006001600160401b0382111561206457612064612005565b5060051b60200190565b600082601f83011261207f57600080fd5b8135602061209461208f8361204b565b61201b565b82815260059290921b840181019181810190868411156120b357600080fd5b8286015b848110156120ce57803583529183019183016120b7565b509695505050505050565b600080604083850312156120ec57600080fd5b8235915060208301356001600160401b0381111561210957600080fd5b6121158582860161206e565b9150509250929050565b6000806040838503121561213257600080fd5b50508035926020909101359150565b60006020828403121561215357600080fd5b5035919050565b80356001600160a01b038116811461217157600080fd5b919050565b6000806040838503121561218957600080fd5b6121928361215a565b946020939093013593505050565b600082601f8301126121b157600080fd5b813560206121c161208f8361204b565b82815260059290921b840181019181810190868411156121e057600080fd5b8286015b848110156120ce576121f58161215a565b83529183019183016121e4565b6000806000806080858703121561221857600080fd5b84356001600160401b038082111561222f57600080fd5b818701915087601f83011261224357600080fd5b8135602061225361208f8361204b565b82815260059290921b8401810191818101908b84111561227257600080fd5b948201945b8386101561229e5785356004811061228f5760008081fd5b82529482019490820190612277565b985050880135925050808211156122b457600080fd5b6122c08883890161206e565b945060408701359150808211156122d657600080fd5b6122e2888389016121a0565b935060608701359150808211156122f857600080fd5b506123058782880161206e565b91505092959194509250565b60008060006060848603121561232657600080fd5b505081359360208301359350604090920135919050565b60006020828403121561234f57600080fd5b6123588261215a565b9392505050565b6020808252825182820181905260009190848201906040850190845b818110156123975783518352928401929184019160010161237b565b50909695505050505050565b634e487b7160e01b600052602160045260246000fd5b60048110611488576114886123a3565b6001600160a01b038716815260208101869052604081018590526060810184905260c081016123f7846123b9565b608082019390935260a00152949350505050565b6001600160a01b0389168152602081018890526040810187905260608101869052610100810161243a866123b9565b85608083015260038510612450576124506123a3565b60a082019490945291151560c083015260e09091015295945050505050565b801515811461148857600080fd5b6000806040838503121561249057600080fd5b6124998361215a565b915060208301356124a98161246f565b809150509250929050565b600080600080608085870312156124ca57600080fd5b8435935060208501356001600160401b03811681146124e857600080fd5b9250604085013561ffff811681146124ff57600080fd5b9150606085013563ffffffff8116811461251857600080fd5b939692955090935050565b60008060006060848603121561253857600080fd5b6125418461215a565b925060208401356001600160401b0381111561255c57600080fd5b6125688682870161206e565b92505060408401356125798161246f565b809150509250925092565b602080825260149082015273125b9d985b1a59081c995dd85c990818dbdd5b9d60621b604082015260600190565b634e487b7160e01b600052603260045260246000fd5b634e487b7160e01b600052601160045260246000fd5b8082018082111561091e5761091e6125c8565b600060018201612603576126036125c8565b5060010190565b6020808252601190820152705061636b6574206e6f742061637469766560781b604082015260600190565b6020808252600990820152682737ba1037bbb732b960b91b604082015260600190565b60006020828403121561266a57600080fd5b81516123588161246f565b60006020828403121561268757600080fd5b5051919050565b8181038181111561091e5761091e6125c8565b828152604081016126b1836123b9565b8260208301529392505050565b6000826126db57634e487b7160e01b600052601260045260246000fd5b50069056fea2646970667358221220fe9afea67cb26d3ae3f0bf077499ce13c803992150d5e4c6724337e65519c06a64736f6c63430008140033","opcodes":"PUSH1 0x80 PUSH1 0x40 MSTORE PUSH1 0x1 PUSH1 0x4 SSTORE PUSH3 0x93A80 PUSH1 0x5 SSTORE PUSH2 0xE10 PUSH1 0x6 SSTORE PUSH1 0x9 DUP1 SLOAD PUSH6 0xFFFFFFFFFFFF PUSH1 0x40 SHL NOT AND PUSH13 0x186A000030000000000000000 OR SWAP1 SSTORE CALLVALUE DUP1 ISZERO PUSH3 0x44 JUMPI PUSH1 0x0 DUP1 REVERT JUMPDEST POP PUSH1 0x40 MLOAD PUSH3 0x285D CODESIZE SUB DUP1 PUSH3 0x285D DUP4 CODECOPY DUP2 ADD PUSH1 0x40 DUP2 SWAP1 MSTORE PUSH3 0x67 SWAP2 PUSH3 0xD9 JUMP JUMPDEST PUSH1 0xA DUP1 SLOAD CALLER PUSH1 0x1 PUSH1 0x1 PUSH1 0xA0 SHL SUB NOT SWAP2 DUP3 AND DUP2 OR SWAP1 SWAP3 SSTORE PUSH1 0x0 SWAP2 DUP3 MSTORE PUSH1 0xB PUSH1 0x20 MSTORE PUSH1 0x40 SWAP1 SWAP2 KECCAK256 DUP1 SLOAD PUSH1 0xFF NOT AND PUSH1 0x1 OR SWAP1 SSTORE PUSH1 0x7 DUP1 SLOAD SWAP1 SWAP2 AND PUSH1 0x1 PUSH1 0x1 PUSH1 0xA0 SHL SUB SWAP5 SWAP1 SWAP5 AND SWAP4 SWAP1 SWAP4 OR SWAP1 SWAP3 SSTORE PUSH1 0x8 SSTORE PUSH1 0x9 DUP1 SLOAD PUSH1 0x1 PUSH1 0x1 PUSH1 0x40 SHL SUB NOT AND PUSH1 0x1 PUSH1 0x1 PUSH1 0x40 SHL SUB SWAP1 SWAP3 AND SWAP2 SWAP1 SWAP2 OR SWAP1 SSTORE PUSH3 0x137 JUMP JUMPDEST PUSH1 0x0 DUP1 PUSH1 0x0 PUSH1 0x60 DUP5 DUP7 SUB SLT ISZERO PUSH3 0xEF JUMPI PUSH1 0x0 DUP1 REVERT JUMPDEST DUP4 MLOAD PUSH1 0x1 PUSH1 0x1 PUSH1 0xA0 SHL SUB DUP2 AND DUP2 EQ PUSH3 0x107 JUMPI PUSH1 0x0 DUP1 REVERT JUMPDEST PUSH1 0x20 DUP6 ADD MLOAD PUSH1 0x40 DUP7 ADD MLOAD SWAP2 SWAP5 POP SWAP3 POP PUSH1 0x1 PUSH1 0x1 PUSH1 0x40 SHL SUB DUP2 AND DUP2 EQ PUSH3 0x12C JUMPI PUSH1 0x0 DUP1 REVERT JUMPDEST DUP1 SWAP2 POP POP SWAP3 POP SWAP3 POP SWAP3 JUMP JUMPDEST PUSH2 0x2716 DUP1 PUSH3 0x147 PUSH1 0x0 CODECOPY PUSH1 0x0 RETURN INVALID PUSH1 0x80 PUSH1 0x40 MSTORE PUSH1 0x4 CALLDATASIZE LT PUSH2 0x1C6 JUMPI PUSH1 0x0 CALLDATALOAD PUSH1 0xE0 SHR DUP1 PUSH4 0x6636A448 GT PUSH2 0xF7 JUMPI DUP1 PUSH4 0xB0FB162F GT PUSH2 0x95 JUMPI DUP1 PUSH4 0xE1434F4E GT PUSH2 0x64 JUMPI DUP1 PUSH4 0xE1434F4E EQ PUSH2 0x654 JUMPI DUP1 PUSH4 0xED4C167B EQ PUSH2 0x674 JUMPI DUP1 PUSH4 0xF29D04AB EQ PUSH2 0x694 JUMPI DUP1 PUSH4 0xF32C51B1 EQ PUSH2 0x6B4 JUMPI PUSH1 0x0 DUP1 REVERT JUMPDEST DUP1 PUSH4 0xB0FB162F EQ PUSH2 0x545 JUMPI DUP1 PUSH4 0xC695502A EQ PUSH2 0x57A JUMPI DUP1 PUSH4 0xD0A9E0C0 EQ PUSH2 0x5BA JUMPI DUP1 PUSH4 0xDB2E21BC EQ PUSH2 0x63F JUMPI PUSH1 0x0 DUP1 REVERT JUMPDEST DUP1 PUSH4 0x9D570502 GT PUSH2 0xD1 JUMPI DUP1 PUSH4 0x9D570502 EQ PUSH2 0x467 JUMPI DUP1 PUSH4 0xA2600B1C EQ PUSH2 0x487 JUMPI DUP1 PUSH4 0xA3E56FA8 EQ PUSH2 0x4B4 JUMPI DUP1 PUSH4 0xA59455DC EQ PUSH2 0x4D4 JUMPI PUSH1 0x0 DUP1 REVERT JUMPDEST DUP1 PUSH4 0x6636A448 EQ PUSH2 0x3AD JUMPI DUP1 PUSH4 0x6917D78C EQ PUSH2 0x419 JUMPI DUP1 PUSH4 0x8DA5CB5B EQ PUSH2 0x42F JUMPI PUSH1 0x0 DUP1 REVERT JUMPDEST DUP1 PUSH4 0x35AD95B9 GT PUSH2 0x164 JUMPI DUP1 PUSH4 0x390B5786 GT PUSH2 0x13E JUMPI DUP1 PUSH4 0x390B5786 EQ PUSH2 0x344 JUMPI DUP1 PUSH4 0x3F1A4C8C EQ PUSH2 0x364 JUMPI DUP1 PUSH4 0x5CA6FCEA EQ PUSH2 0x377 JUMPI DUP1 PUSH4 0x61728F39 EQ PUSH2 0x397 JUMPI PUSH1 0x0 DUP1 REVERT JUMPDEST DUP1 PUSH4 0x35AD95B9 EQ PUSH2 0x2D7 JUMPI DUP1 PUSH4 0x35B69ED5 EQ PUSH2 0x304 JUMPI DUP1 PUSH4 0x38BA4614 EQ PUSH2 0x324 JUMPI PUSH1 0x0 DUP1 REVERT JUMPDEST DUP1 PUSH4 0x26947A14 GT PUSH2 0x1A0 JUMPI DUP1 PUSH4 0x26947A14 EQ PUSH2 0x26C JUMPI DUP1 PUSH4 0x2864F57B EQ PUSH2 0x282 JUMPI DUP1 PUSH4 0x2C606568 EQ PUSH2 0x295 JUMPI DUP1 PUSH4 0x2CB1F024 EQ PUSH2 0x2B7 JUMPI PUSH1 0x0 DUP1 REVERT JUMPDEST DUP1 PUSH4 0x9C1BA2E EQ PUSH2 0x1D2 JUMPI DUP1 PUSH4 0x1AEFA1B6 EQ PUSH2 0x20F JUMPI DUP1 PUSH4 0x24F74697 EQ PUSH2 0x233 JUMPI PUSH1 0x0 DUP1 REVERT JUMPDEST CALLDATASIZE PUSH2 0x1CD JUMPI STOP JUMPDEST PUSH1 0x0 DUP1 REVERT JUMPDEST CALLVALUE DUP1 ISZERO PUSH2 0x1DE JUMPI PUSH1 0x0 DUP1 REVERT JUMPDEST POP PUSH1 0x9 SLOAD PUSH2 0x1F2 SWAP1 PUSH1 0x1 PUSH1 0x1 PUSH1 0x40 SHL SUB AND DUP2 JUMP JUMPDEST PUSH1 0x40 MLOAD PUSH1 0x1 PUSH1 0x1 PUSH1 0x40 SHL SUB SWAP1 SWAP2 AND DUP2 MSTORE PUSH1 0x20 ADD JUMPDEST PUSH1 0x40 MLOAD DUP1 SWAP2 SUB SWAP1 RETURN JUMPDEST CALLVALUE DUP1 ISZERO PUSH2 0x21B JUMPI PUSH1 0x0 DUP1 REVERT JUMPDEST POP PUSH2 0x225 PUSH1 0x6 SLOAD DUP2 JUMP JUMPDEST PUSH1 0x40 MLOAD SWAP1 DUP2 MSTORE PUSH1 0x20 ADD PUSH2 0x206 JUMP JUMPDEST CALLVALUE DUP1 ISZERO PUSH2 0x23F JUMPI PUSH1 0x0 DUP1 REVERT JUMPDEST POP PUSH1 0x9 SLOAD PUSH2 0x257 SWAP1 PUSH1 0x1 PUSH1 0x50 SHL SWAP1 DIV PUSH4 0xFFFFFFFF AND DUP2 JUMP JUMPDEST PUSH1 0x40 MLOAD PUSH4 0xFFFFFFFF SWAP1 SWAP2 AND DUP2 MSTORE PUSH1 0x20 ADD PUSH2 0x206 JUMP JUMPDEST CALLVALUE DUP1 ISZERO PUSH2 0x278 JUMPI PUSH1 0x0 DUP1 REVERT JUMPDEST POP PUSH2 0x225 PUSH1 0x5 SLOAD DUP2 JUMP JUMPDEST PUSH2 0x225 PUSH2 0x290 CALLDATASIZE PUSH1 0x4 PUSH2 0x20D9 JUMP JUMPDEST PUSH2 0x6D4 JUMP JUMPDEST CALLVALUE DUP1 ISZERO PUSH2 0x2A1 JUMPI PUSH1 0x0 DUP1 REVERT JUMPDEST POP PUSH2 0x2B5 PUSH2 0x2B0 CALLDATASIZE PUSH1 0x4 PUSH2 0x211F JUMP JUMPDEST PUSH2 0x924 JUMP JUMPDEST STOP JUMPDEST CALLVALUE DUP1 ISZERO PUSH2 0x2C3 JUMPI PUSH1 0x0 DUP1 REVERT JUMPDEST POP PUSH2 0x2B5 PUSH2 0x2D2 CALLDATASIZE PUSH1 0x4 PUSH2 0x2141 JUMP JUMPDEST PUSH2 0xA43 JUMP JUMPDEST CALLVALUE DUP1 ISZERO PUSH2 0x2E3 JUMPI PUSH1 0x0 DUP1 REVERT JUMPDEST POP PUSH2 0x225 PUSH2 0x2F2 CALLDATASIZE PUSH1 0x4 PUSH2 0x2141 JUMP JUMPDEST PUSH1 0x2 PUSH1 0x20 MSTORE PUSH1 0x0 SWAP1 DUP2 MSTORE PUSH1 0x40 SWAP1 KECCAK256 SLOAD DUP2 JUMP JUMPDEST CALLVALUE DUP1 ISZERO PUSH2 0x310 JUMPI PUSH1 0x0 DUP1 REVERT JUMPDEST POP PUSH2 0x2B5 PUSH2 0x31F CALLDATASIZE PUSH1 0x4 PUSH2 0x2141 JUMP JUMPDEST PUSH2 0xBA5 JUMP JUMPDEST CALLVALUE DUP1 ISZERO PUSH2 0x330 JUMPI PUSH1 0x0 DUP1 REVERT JUMPDEST POP PUSH2 0x2B5 PUSH2 0x33F CALLDATASIZE PUSH1 0x4 PUSH2 0x20D9 JUMP JUMPDEST PUSH2 0xBD4 JUMP JUMPDEST CALLVALUE DUP1 ISZERO PUSH2 0x350 JUMPI PUSH1 0x0 DUP1 REVERT JUMPDEST POP PUSH2 0x225 PUSH2 0x35F CALLDATASIZE PUSH1 0x4 PUSH2 0x2176 JUMP JUMPDEST PUSH2 0xCFE JUMP JUMPDEST PUSH2 0x225 PUSH2 0x372 CALLDATASIZE PUSH1 0x4 PUSH2 0x2202 JUMP JUMPDEST PUSH2 0xD2F JUMP JUMPDEST CALLVALUE DUP1 ISZERO PUSH2 0x383 JUMPI PUSH1 0x0 DUP1 REVERT JUMPDEST POP PUSH2 0x2B5 PUSH2 0x392 CALLDATASIZE PUSH1 0x4 PUSH2 0x2141 JUMP JUMPDEST PUSH2 0xFEC JUMP JUMPDEST CALLVALUE DUP1 ISZERO PUSH2 0x3A3 JUMPI PUSH1 0x0 DUP1 REVERT JUMPDEST POP PUSH2 0x225 PUSH1 0x8 SLOAD DUP2 JUMP JUMPDEST CALLVALUE DUP1 ISZERO PUSH2 0x3B9 JUMPI PUSH1 0x0 DUP1 REVERT JUMPDEST POP PUSH2 0x3F3 PUSH2 0x3C8 CALLDATASIZE PUSH1 0x4 PUSH2 0x2141 JUMP JUMPDEST PUSH1 0x1 PUSH1 0x20 DUP2 SWAP1 MSTORE PUSH1 0x0 SWAP2 DUP3 MSTORE PUSH1 0x40 SWAP1 SWAP2 KECCAK256 DUP1 SLOAD SWAP2 DUP2 ADD SLOAD PUSH1 0x2 DUP3 ADD SLOAD PUSH1 0x3 SWAP1 SWAP3 ADD SLOAD SWAP1 SWAP2 PUSH1 0xFF AND SWAP1 DUP5 JUMP JUMPDEST PUSH1 0x40 DUP1 MLOAD SWAP5 DUP6 MSTORE PUSH1 0x20 DUP6 ADD SWAP4 SWAP1 SWAP4 MSTORE SWAP1 ISZERO ISZERO SWAP2 DUP4 ADD SWAP2 SWAP1 SWAP2 MSTORE PUSH1 0x60 DUP3 ADD MSTORE PUSH1 0x80 ADD PUSH2 0x206 JUMP JUMPDEST CALLVALUE DUP1 ISZERO PUSH2 0x425 JUMPI PUSH1 0x0 DUP1 REVERT JUMPDEST POP PUSH2 0x225 PUSH1 0x4 SLOAD DUP2 JUMP JUMPDEST CALLVALUE DUP1 ISZERO PUSH2 0x43B JUMPI PUSH1 0x0 DUP1 REVERT JUMPDEST POP PUSH1 0xA SLOAD PUSH2 0x44F SWAP1 PUSH1 0x1 PUSH1 0x1 PUSH1 0xA0 SHL SUB AND DUP2 JUMP JUMPDEST PUSH1 0x40 MLOAD PUSH1 0x1 PUSH1 0x1 PUSH1 0xA0 SHL SUB SWAP1 SWAP2 AND DUP2 MSTORE PUSH1 0x20 ADD PUSH2 0x206 JUMP JUMPDEST CALLVALUE DUP1 ISZERO PUSH2 0x473 JUMPI PUSH1 0x0 DUP1 REVERT JUMPDEST POP PUSH2 0x2B5 PUSH2 0x482 CALLDATASIZE PUSH1 0x4 PUSH2 0x2311 JUMP JUMPDEST PUSH2 0x1211 JUMP JUMPDEST CALLVALUE DUP1 ISZERO PUSH2 0x493 JUMPI PUSH1 0x0 DUP1 REVERT JUMPDEST POP PUSH2 0x4A7 PUSH2 0x4A2 CALLDATASIZE PUSH1 0x4 PUSH2 0x233D JUMP JUMPDEST PUSH2 0x13B9 JUMP JUMPDEST PUSH1 0x40 MLOAD PUSH2 0x206 SWAP2 SWAP1 PUSH2 0x235F JUMP JUMPDEST CALLVALUE DUP1 ISZERO PUSH2 0x4C0 JUMPI PUSH1 0x0 DUP1 REVERT JUMPDEST POP PUSH1 0x7 SLOAD PUSH2 0x44F SWAP1 PUSH1 0x1 PUSH1 0x1 PUSH1 0xA0 SHL SUB AND DUP2 JUMP JUMPDEST CALLVALUE DUP1 ISZERO PUSH2 0x4E0 JUMPI PUSH1 0x0 DUP1 REVERT JUMPDEST POP PUSH2 0x533 PUSH2 0x4EF CALLDATASIZE PUSH1 0x4 PUSH2 0x2141 JUMP JUMPDEST PUSH1 0x0 SWAP1 DUP2 MSTORE PUSH1 0x20 DUP2 SWAP1 MSTORE PUSH1 0x40 SWAP1 KECCAK256 DUP1 SLOAD PUSH1 0x1 DUP3 ADD SLOAD PUSH1 0x2 DUP4 ADD SLOAD PUSH1 0x3 DUP5 ADD SLOAD PUSH1 0x4 DUP6 ADD SLOAD PUSH1 0x5 SWAP1 SWAP6 ADD SLOAD PUSH1 0x1 PUSH1 0x1 PUSH1 0xA0 SHL SUB SWAP1 SWAP5 AND SWAP6 SWAP3 SWAP5 SWAP2 SWAP4 SWAP1 SWAP3 PUSH1 0xFF SWAP1 SWAP3 AND SWAP2 JUMP JUMPDEST PUSH1 0x40 MLOAD PUSH2 0x206 SWAP7 SWAP6 SWAP5 SWAP4 SWAP3 SWAP2 SWAP1 PUSH2 0x23C9 JUMP JUMPDEST CALLVALUE DUP1 ISZERO PUSH2 0x551 JUMPI PUSH1 0x0 DUP1 REVERT JUMPDEST POP PUSH1 0x9 SLOAD PUSH2 0x567 SWAP1 PUSH1 0x1 PUSH1 0x40 SHL SWAP1 DIV PUSH2 0xFFFF AND DUP2 JUMP JUMPDEST PUSH1 0x40 MLOAD PUSH2 0xFFFF SWAP1 SWAP2 AND DUP2 MSTORE PUSH1 0x20 ADD PUSH2 0x206 JUMP JUMPDEST CALLVALUE DUP1 ISZERO PUSH2 0x586 JUMPI PUSH1 0x0 DUP1 REVERT JUMPDEST POP PUSH2 0x5AA PUSH2 0x595 CALLDATASIZE PUSH1 0x4 PUSH2 0x233D JUMP JUMPDEST PUSH1 0xB PUSH1 0x20 MSTORE PUSH1 0x0 SWAP1 DUP2 MSTORE PUSH1 0x40 SWAP1 KECCAK256 SLOAD PUSH1 0xFF AND DUP2 JUMP JUMPDEST PUSH1 0x40 MLOAD SWAP1 ISZERO ISZERO DUP2 MSTORE PUSH1 0x20 ADD PUSH2 0x206 JUMP JUMPDEST CALLVALUE DUP1 ISZERO PUSH2 0x5C6 JUMPI PUSH1 0x0 DUP1 REVERT JUMPDEST POP PUSH2 0x62B PUSH2 0x5D5 CALLDATASIZE PUSH1 0x4 PUSH2 0x2141 JUMP JUMPDEST PUSH1 0x0 PUSH1 0x20 DUP2 SWAP1 MSTORE SWAP1 DUP2 MSTORE PUSH1 0x40 SWAP1 KECCAK256 DUP1 SLOAD PUSH1 0x1 DUP3 ADD SLOAD PUSH1 0x2 DUP4 ADD SLOAD PUSH1 0x3 DUP5 ADD SLOAD PUSH1 0x4 DUP6 ADD SLOAD PUSH1 0x9 DUP7 ADD SLOAD PUSH1 0xA SWAP1 SWAP7 ADD SLOAD PUSH1 0x1 PUSH1 0x1 PUSH1 0xA0 SHL SUB SWAP1 SWAP6 AND SWAP6 SWAP4 SWAP5 SWAP3 SWAP4 SWAP2 SWAP3 PUSH1 0xFF SWAP2 DUP3 AND SWAP3 DUP1 DUP4 AND SWAP3 PUSH2 0x100 SWAP1 SWAP2 DIV AND SWAP1 DUP9 JUMP JUMPDEST PUSH1 0x40 MLOAD PUSH2 0x206 SWAP9 SWAP8 SWAP7 SWAP6 SWAP5 SWAP4 SWAP3 SWAP2 SWAP1 PUSH2 0x240B JUMP JUMPDEST CALLVALUE DUP1 ISZERO PUSH2 0x64B JUMPI PUSH1 0x0 DUP1 REVERT JUMPDEST POP PUSH2 0x2B5 PUSH2 0x1425 JUMP JUMPDEST CALLVALUE DUP1 ISZERO PUSH2 0x660 JUMPI PUSH1 0x0 DUP1 REVERT JUMPDEST POP PUSH2 0x2B5 PUSH2 0x66F CALLDATASIZE PUSH1 0x4 PUSH2 0x247D JUMP JUMPDEST PUSH2 0x148B JUMP JUMPDEST CALLVALUE DUP1 ISZERO PUSH2 0x680 JUMPI PUSH1 0x0 DUP1 REVERT JUMPDEST POP PUSH2 0x2B5 PUSH2 0x68F CALLDATASIZE PUSH1 0x4 PUSH2 0x2141 JUMP JUMPDEST PUSH2 0x14E0 JUMP JUMPDEST CALLVALUE DUP1 ISZERO PUSH2 0x6A0 JUMPI PUSH1 0x0 DUP1 REVERT JUMPDEST POP PUSH2 0x2B5 PUSH2 0x6AF CALLDATASIZE PUSH1 0x4 PUSH2 0x24B4 JUMP JUMPDEST PUSH2 0x175D JUMP JUMPDEST CALLVALUE DUP1 ISZERO PUSH2 0x6C0 JUMPI PUSH1 0x0 DUP1 REVERT JUMPDEST POP PUSH2 0x225 PUSH2 0x6CF CALLDATASIZE PUSH1 0x4 PUSH2 0x2523 JUMP JUMPDEST PUSH2 0x17DC JUMP JUMPDEST PUSH1 0x0 DUP1 DUP4 GT DUP1 ISZERO PUSH2 0x6E6 JUMPI POP PUSH1 0xA DUP4 GT ISZERO JUMPDEST PUSH2 0x70B JUMPI PUSH1 0x40 MLOAD PUSH3 0x461BCD PUSH1 0xE5 SHL DUP2 MSTORE PUSH1 0x4 ADD PUSH2 0x702 SWAP1 PUSH2 0x2584 JUMP JUMPDEST PUSH1 0x40 MLOAD DUP1 SWAP2 SUB SWAP1 REVERT JUMPDEST DUP3 DUP3 MLOAD EQ PUSH2 0x74F JUMPI PUSH1 0x40 MLOAD PUSH3 0x461BCD PUSH1 0xE5 SHL DUP2 MSTORE PUSH1 0x20 PUSH1 0x4 DUP3 ADD MSTORE PUSH1 0x11 PUSH1 0x24 DUP3 ADD MSTORE PUSH17 0x4D69736D61746368656420617272617973 PUSH1 0x78 SHL PUSH1 0x44 DUP3 ADD MSTORE PUSH1 0x64 ADD PUSH2 0x702 JUMP JUMPDEST PUSH1 0x0 DUP1 JUMPDEST DUP4 MLOAD DUP2 LT ISZERO PUSH2 0x795 JUMPI DUP4 DUP2 DUP2 MLOAD DUP2 LT PUSH2 0x76E JUMPI PUSH2 0x76E PUSH2 0x25B2 JUMP JUMPDEST PUSH1 0x20 MUL PUSH1 0x20 ADD ADD MLOAD DUP3 PUSH2 0x781 SWAP2 SWAP1 PUSH2 0x25DE JUMP JUMPDEST SWAP2 POP DUP1 PUSH2 0x78D DUP2 PUSH2 0x25F1 JUMP JUMPDEST SWAP2 POP POP PUSH2 0x753 JUMP JUMPDEST POP DUP1 CALLVALUE LT ISZERO PUSH2 0x7DE JUMPI PUSH1 0x40 MLOAD PUSH3 0x461BCD PUSH1 0xE5 SHL DUP2 MSTORE PUSH1 0x20 PUSH1 0x4 DUP3 ADD MSTORE PUSH1 0x15 PUSH1 0x24 DUP3 ADD MSTORE PUSH21 0x125B9CDD59999A58DA595B9D08115512081CD95B9D PUSH1 0x5A SHL PUSH1 0x44 DUP3 ADD MSTORE PUSH1 0x64 ADD PUSH2 0x702 JUMP JUMPDEST PUSH1 0x0 DUP5 PUSH1 0x1 PUSH1 0x1 PUSH1 0x40 SHL SUB DUP2 GT ISZERO PUSH2 0x7F8 JUMPI PUSH2 0x7F8 PUSH2 0x2005 JUMP JUMPDEST PUSH1 0x40 MLOAD SWAP1 DUP1 DUP3 MSTORE DUP1 PUSH1 0x20 MUL PUSH1 0x20 ADD DUP3 ADD PUSH1 0x40 MSTORE DUP1 ISZERO PUSH2 0x821 JUMPI DUP2 PUSH1 0x20 ADD PUSH1 0x20 DUP3 MUL DUP1 CALLDATASIZE DUP4 CALLDATACOPY ADD SWAP1 POP JUMPDEST POP SWAP1 POP PUSH1 0x0 JUMPDEST DUP6 DUP2 LT ISZERO PUSH2 0x884 JUMPI PUSH1 0x0 DUP3 DUP3 DUP2 MLOAD DUP2 LT PUSH2 0x843 JUMPI PUSH2 0x843 PUSH2 0x25B2 JUMP JUMPDEST PUSH1 0x20 MUL PUSH1 0x20 ADD ADD SWAP1 PUSH1 0x3 DUP2 GT ISZERO PUSH2 0x85C JUMPI PUSH2 0x85C PUSH2 0x23A3 JUMP JUMPDEST SWAP1 DUP2 PUSH1 0x3 DUP2 GT ISZERO PUSH2 0x86F JUMPI PUSH2 0x86F PUSH2 0x23A3 JUMP JUMPDEST SWAP1 MSTORE POP DUP1 PUSH2 0x87C DUP2 PUSH2 0x25F1 JUMP JUMPDEST SWAP2 POP POP PUSH2 0x827 JUMP JUMPDEST POP PUSH1 0x0 PUSH2 0x918 DUP4 DUP4 DUP8 DUP10 PUSH1 0x1 PUSH1 0x1 PUSH1 0x40 SHL SUB DUP2 GT ISZERO PUSH2 0x8A5 JUMPI PUSH2 0x8A5 PUSH2 0x2005 JUMP JUMPDEST PUSH1 0x40 MLOAD SWAP1 DUP1 DUP3 MSTORE DUP1 PUSH1 0x20 MUL PUSH1 0x20 ADD DUP3 ADD PUSH1 0x40 MSTORE DUP1 ISZERO PUSH2 0x8CE JUMPI DUP2 PUSH1 0x20 ADD PUSH1 0x20 DUP3 MUL DUP1 CALLDATASIZE DUP4 CALLDATACOPY ADD SWAP1 POP JUMPDEST POP DUP11 PUSH1 0x1 PUSH1 0x1 PUSH1 0x40 SHL SUB DUP2 GT ISZERO PUSH2 0x8E7 JUMPI PUSH2 0x8E7 PUSH2 0x2005 JUMP JUMPDEST PUSH1 0x40 MLOAD SWAP1 DUP1 DUP3 MSTORE DUP1 PUSH1 0x20 MUL PUSH1 0x20 ADD DUP3 ADD PUSH1 0x40 MSTORE DUP1 ISZERO PUSH2 0x910 JUMPI DUP2 PUSH1 0x20 ADD PUSH1 0x20 DUP3 MUL DUP1 CALLDATASIZE DUP4 CALLDATACOPY ADD SWAP1 POP JUMPDEST POP PUSH1 0x0 PUSH2 0x1A98 JUMP JUMPDEST SWAP4 POP POP POP POP JUMPDEST SWAP3 SWAP2 POP POP JUMP JUMPDEST PUSH1 0x0 DUP3 DUP2 MSTORE PUSH1 0x20 DUP2 SWAP1 MSTORE PUSH1 0x40 DUP2 KECCAK256 SWAP1 PUSH1 0x4 DUP3 ADD SLOAD PUSH1 0xFF AND PUSH1 0x3 DUP2 GT ISZERO PUSH2 0x94C JUMPI PUSH2 0x94C PUSH2 0x23A3 JUMP JUMPDEST EQ PUSH2 0x969 JUMPI PUSH1 0x40 MLOAD PUSH3 0x461BCD PUSH1 0xE5 SHL DUP2 MSTORE PUSH1 0x4 ADD PUSH2 0x702 SWAP1 PUSH2 0x260A JUMP JUMPDEST PUSH1 0x2 PUSH1 0x9 DUP3 ADD SLOAD PUSH1 0xFF AND PUSH1 0x2 DUP2 GT ISZERO PUSH2 0x984 JUMPI PUSH2 0x984 PUSH2 0x23A3 JUMP JUMPDEST EQ PUSH2 0x9D1 JUMPI PUSH1 0x40 MLOAD PUSH3 0x461BCD PUSH1 0xE5 SHL DUP2 MSTORE PUSH1 0x20 PUSH1 0x4 DUP3 ADD MSTORE PUSH1 0x18 PUSH1 0x24 DUP3 ADD MSTORE PUSH32 0x4E6F7420636F6D6D69742D72657665616C207061636B65740000000000000000 PUSH1 0x44 DUP3 ADD MSTORE PUSH1 0x64 ADD PUSH2 0x702 JUMP JUMPDEST PUSH1 0x40 MLOAD DUP1 PUSH1 0x80 ADD PUSH1 0x40 MSTORE DUP1 DUP4 DUP2 MSTORE PUSH1 0x20 ADD PUSH1 0x6 SLOAD TIMESTAMP PUSH2 0x9F0 SWAP2 SWAP1 PUSH2 0x25DE JUMP JUMPDEST DUP2 MSTORE PUSH1 0x0 PUSH1 0x20 DUP1 DUP4 ADD DUP3 SWAP1 MSTORE PUSH1 0x40 SWAP3 DUP4 ADD DUP3 SWAP1 MSTORE SWAP6 DUP2 MSTORE PUSH1 0x1 DUP1 DUP8 MSTORE SWAP1 DUP3 SWAP1 KECCAK256 DUP4 MLOAD DUP2 SSTORE SWAP6 DUP4 ADD MLOAD SWAP1 DUP7 ADD SSTORE DUP2 ADD MLOAD PUSH1 0x2 DUP6 ADD DUP1 SLOAD PUSH1 0xFF NOT AND SWAP2 ISZERO ISZERO SWAP2 SWAP1 SWAP2 OR SWAP1 SSTORE PUSH1 0x60 ADD MLOAD PUSH1 0x3 SWAP1 SWAP4 ADD SWAP3 SWAP1 SWAP3 SSTORE POP POP JUMP JUMPDEST PUSH1 0x0 DUP2 DUP2 MSTORE PUSH1 0x20 DUP2 SWAP1 MSTORE PUSH1 0x40 DUP2 KECCAK256 SWAP1 PUSH1 0x4 DUP3 ADD SLOAD PUSH1 0xFF AND PUSH1 0x3 DUP2 GT ISZERO PUSH2 0xA6B JUMPI PUSH2 0xA6B PUSH2 0x23A3 JUMP JUMPDEST EQ PUSH2 0xA88 JUMPI PUSH1 0x40 MLOAD PUSH3 0x461BCD PUSH1 0xE5 SHL DUP2 MSTORE PUSH1 0x4 ADD PUSH2 0x702 SWAP1 PUSH2 0x260A JUMP JUMPDEST DUP1 PUSH1 0x3 ADD SLOAD TIMESTAMP GT ISZERO PUSH2 0xACD JUMPI PUSH1 0x40 MLOAD PUSH3 0x461BCD PUSH1 0xE5 SHL DUP2 MSTORE PUSH1 0x20 PUSH1 0x4 DUP3 ADD MSTORE PUSH1 0xE PUSH1 0x24 DUP3 ADD MSTORE PUSH14 0x141858DAD95D08195E1C1A5C9959 PUSH1 0x92 SHL PUSH1 0x44 DUP3 ADD MSTORE PUSH1 0x64 ADD PUSH2 0x702 JUMP JUMPDEST PUSH1 0x9 DUP2 ADD SLOAD PUSH2 0x100 SWAP1 DIV PUSH1 0xFF AND ISZERO PUSH2 0xB20 JUMPI PUSH1 0x40 MLOAD PUSH3 0x461BCD PUSH1 0xE5 SHL DUP2 MSTORE PUSH1 0x20 PUSH1 0x4 DUP3 ADD MSTORE PUSH1 0x16 PUSH1 0x24 DUP3 ADD MSTORE PUSH22 0x155CD948159491881BDC195B9A5B99C81B595D1A1BD9 PUSH1 0x52 SHL PUSH1 0x44 DUP3 ADD MSTORE PUSH1 0x64 ADD PUSH2 0x702 JUMP JUMPDEST PUSH1 0x2 PUSH1 0x9 DUP3 ADD SLOAD PUSH1 0xFF AND PUSH1 0x2 DUP2 GT ISZERO PUSH2 0xB3B JUMPI PUSH2 0xB3B PUSH2 0x23A3 JUMP JUMPDEST SUB PUSH2 0xB88 JUMPI PUSH1 0x40 MLOAD PUSH3 0x461BCD PUSH1 0xE5 SHL DUP2 MSTORE PUSH1 0x20 PUSH1 0x4 DUP3 ADD MSTORE PUSH1 0x18 PUSH1 0x24 DUP3 ADD MSTORE PUSH32 0x55736520636F6D6D69742D72657665616C206D6574686F640000000000000000 PUSH1 0x44 DUP3 ADD MSTORE PUSH1 0x64 ADD PUSH2 0x702 JUMP JUMPDEST PUSH1 0x0 PUSH2 0xB93 DUP4 PUSH2 0x1C0C JUMP JUMPDEST SWAP1 POP PUSH2 0xBA0 DUP4 DUP3 CALLER PUSH2 0x1C76 JUMP JUMPDEST POP POP POP JUMP JUMPDEST PUSH1 0xA SLOAD PUSH1 0x1 PUSH1 0x1 PUSH1 0xA0 SHL SUB AND CALLER EQ PUSH2 0xBCF JUMPI PUSH1 0x40 MLOAD PUSH3 0x461BCD PUSH1 0xE5 SHL DUP2 MSTORE PUSH1 0x4 ADD PUSH2 0x702 SWAP1 PUSH2 0x2635 JUMP JUMPDEST PUSH1 0x5 SSTORE JUMP JUMPDEST PUSH1 0x7 SLOAD PUSH1 0x1 PUSH1 0x1 PUSH1 0xA0 SHL SUB AND CALLER EQ PUSH2 0xC25 JUMPI PUSH1 0x40 MLOAD PUSH3 0x461BCD PUSH1 0xE5 SHL DUP2 MSTORE PUSH1 0x20 PUSH1 0x4 DUP3 ADD MSTORE PUSH1 0x14 PUSH1 0x24 DUP3 ADD MSTORE PUSH20 0x27B7363C902B29231031B7B7B93234B730BA37B9 PUSH1 0x61 SHL PUSH1 0x44 DUP3 ADD MSTORE PUSH1 0x64 ADD PUSH2 0x702 JUMP JUMPDEST PUSH1 0x0 DUP3 DUP2 MSTORE PUSH1 0x2 PUSH1 0x20 MSTORE PUSH1 0x40 DUP2 KECCAK256 SLOAD SWAP1 DUP2 SWAP1 SUB PUSH2 0xC79 JUMPI PUSH1 0x40 MLOAD PUSH3 0x461BCD PUSH1 0xE5 SHL DUP2 MSTORE PUSH1 0x20 PUSH1 0x4 DUP3 ADD MSTORE PUSH1 0x12 PUSH1 0x24 DUP3 ADD MSTORE PUSH18 0x125B9D985B1A59081C995C5D595CDD081251 PUSH1 0x72 SHL PUSH1 0x44 DUP3 ADD MSTORE PUSH1 0x64 ADD PUSH2 0x702 JUMP JUMPDEST PUSH1 0x0 DUP3 PUSH1 0x0 DUP2 MLOAD DUP2 LT PUSH2 0xC8E JUMPI PUSH2 0xC8E PUSH2 0x25B2 JUMP JUMPDEST PUSH1 0x20 MUL PUSH1 0x20 ADD ADD MLOAD SWAP1 POP DUP4 PUSH32 0x546ACA7B2683440B8F02FA95FAEB8EFC79DD0F16AF3D815A002742EA6F76116C DUP3 PUSH1 0x40 MLOAD PUSH2 0xCCA SWAP2 DUP2 MSTORE PUSH1 0x20 ADD SWAP1 JUMP JUMPDEST PUSH1 0x40 MLOAD DUP1 SWAP2 SUB SWAP1 LOG2 PUSH1 0x0 DUP3 DUP2 MSTORE PUSH1 0x20 DUP2 SWAP1 MSTORE PUSH1 0x40 SWAP1 KECCAK256 DUP1 SLOAD PUSH1 0x1 PUSH1 0x1 PUSH1 0xA0 SHL SUB AND PUSH2 0xCF6 DUP5 DUP5 DUP4 PUSH2 0x1C76 JUMP JUMPDEST POP POP POP POP POP POP JUMP JUMPDEST PUSH1 0x3 PUSH1 0x20 MSTORE DUP2 PUSH1 0x0 MSTORE PUSH1 0x40 PUSH1 0x0 KECCAK256 DUP2 DUP2 SLOAD DUP2 LT PUSH2 0xD1A JUMPI PUSH1 0x0 DUP1 REVERT JUMPDEST SWAP1 PUSH1 0x0 MSTORE PUSH1 0x20 PUSH1 0x0 KECCAK256 ADD PUSH1 0x0 SWAP2 POP SWAP2 POP POP SLOAD DUP2 JUMP JUMPDEST PUSH1 0x0 DUP1 DUP6 MLOAD GT DUP1 ISZERO PUSH2 0xD43 JUMPI POP PUSH1 0xA DUP6 MLOAD GT ISZERO JUMPDEST PUSH2 0xD5F JUMPI PUSH1 0x40 MLOAD PUSH3 0x461BCD PUSH1 0xE5 SHL DUP2 MSTORE PUSH1 0x4 ADD PUSH2 0x702 SWAP1 PUSH2 0x2584 JUMP JUMPDEST DUP4 MLOAD DUP6 MLOAD EQ PUSH2 0xDA4 JUMPI PUSH1 0x40 MLOAD PUSH3 0x461BCD PUSH1 0xE5 SHL DUP2 MSTORE PUSH1 0x20 PUSH1 0x4 DUP3 ADD MSTORE PUSH1 0x11 PUSH1 0x24 DUP3 ADD MSTORE PUSH17 0x4D69736D61746368656420617272617973 PUSH1 0x78 SHL PUSH1 0x44 DUP3 ADD MSTORE PUSH1 0x64 ADD PUSH2 0x702 JUMP JUMPDEST PUSH1 0x0 DUP1 JUMPDEST DUP7 MLOAD DUP2 LT ISZERO PUSH2 0xF87 JUMPI PUSH1 0x0 DUP8 DUP3 DUP2 MLOAD DUP2 LT PUSH2 0xDC5 JUMPI PUSH2 0xDC5 PUSH2 0x25B2 JUMP JUMPDEST PUSH1 0x20 MUL PUSH1 0x20 ADD ADD MLOAD PUSH1 0x3 DUP2 GT ISZERO PUSH2 0xDDE JUMPI PUSH2 0xDDE PUSH2 0x23A3 JUMP JUMPDEST SUB PUSH2 0xE0F JUMPI DUP6 DUP2 DUP2 MLOAD DUP2 LT PUSH2 0xDF5 JUMPI PUSH2 0xDF5 PUSH2 0x25B2 JUMP JUMPDEST PUSH1 0x20 MUL PUSH1 0x20 ADD ADD MLOAD DUP3 PUSH2 0xE08 SWAP2 SWAP1 PUSH2 0x25DE JUMP JUMPDEST SWAP2 POP PUSH2 0xF75 JUMP JUMPDEST PUSH1 0x1 DUP8 DUP3 DUP2 MLOAD DUP2 LT PUSH2 0xE23 JUMPI PUSH2 0xE23 PUSH2 0x25B2 JUMP JUMPDEST PUSH1 0x20 MUL PUSH1 0x20 ADD ADD MLOAD PUSH1 0x3 DUP2 GT ISZERO PUSH2 0xE3C JUMPI PUSH2 0xE3C PUSH2 0x23A3 JUMP JUMPDEST SUB PUSH2 0xF75 JUMPI PUSH1 0x0 PUSH1 0x1 PUSH1 0x1 PUSH1 0xA0 SHL SUB AND DUP6 DUP3 DUP2 MLOAD DUP2 LT PUSH2 0xE5E JUMPI PUSH2 0xE5E PUSH2 0x25B2 JUMP JUMPDEST PUSH1 0x20 MUL PUSH1 0x20 ADD ADD MLOAD PUSH1 0x1 PUSH1 0x1 PUSH1 0xA0 SHL SUB AND SUB PUSH2 0xEB4 JUMPI PUSH1 0x40 MLOAD PUSH3 0x461BCD PUSH1 0xE5 SHL DUP2 MSTORE PUSH1 0x20 PUSH1 0x4 DUP3 ADD MSTORE PUSH1 0x15 PUSH1 0x24 DUP3 ADD MSTORE PUSH21 0x496E76616C696420746F6B656E2061646472657373 PUSH1 0x58 SHL PUSH1 0x44 DUP3 ADD MSTORE PUSH1 0x64 ADD PUSH2 0x702 JUMP JUMPDEST DUP5 DUP2 DUP2 MLOAD DUP2 LT PUSH2 0xEC6 JUMPI PUSH2 0xEC6 PUSH2 0x25B2 JUMP JUMPDEST PUSH1 0x20 MUL PUSH1 0x20 ADD ADD MLOAD PUSH1 0x1 PUSH1 0x1 PUSH1 0xA0 SHL SUB AND PUSH4 0x23B872DD CALLER ADDRESS DUP10 DUP6 DUP2 MLOAD DUP2 LT PUSH2 0xEF0 JUMPI PUSH2 0xEF0 PUSH2 0x25B2 JUMP JUMPDEST PUSH1 0x20 SWAP1 DUP2 MUL SWAP2 SWAP1 SWAP2 ADD ADD MLOAD PUSH1 0x40 MLOAD PUSH1 0x1 PUSH1 0x1 PUSH1 0xE0 SHL SUB NOT PUSH1 0xE0 DUP7 SWAP1 SHL AND DUP2 MSTORE PUSH1 0x1 PUSH1 0x1 PUSH1 0xA0 SHL SUB SWAP4 DUP5 AND PUSH1 0x4 DUP3 ADD MSTORE SWAP3 SWAP1 SWAP2 AND PUSH1 0x24 DUP4 ADD MSTORE PUSH1 0x44 DUP3 ADD MSTORE PUSH1 0x64 ADD PUSH1 0x20 PUSH1 0x40 MLOAD DUP1 DUP4 SUB DUP2 PUSH1 0x0 DUP8 GAS CALL ISZERO DUP1 ISZERO PUSH2 0xF4F JUMPI RETURNDATASIZE PUSH1 0x0 DUP1 RETURNDATACOPY RETURNDATASIZE PUSH1 0x0 REVERT JUMPDEST POP POP POP POP PUSH1 0x40 MLOAD RETURNDATASIZE PUSH1 0x1F NOT PUSH1 0x1F DUP3 ADD AND DUP3 ADD DUP1 PUSH1 0x40 MSTORE POP DUP2 ADD SWAP1 PUSH2 0xF73 SWAP2 SWAP1 PUSH2 0x2658 JUMP JUMPDEST POP JUMPDEST DUP1 PUSH2 0xF7F DUP2 PUSH2 0x25F1 JUMP JUMPDEST SWAP2 POP POP PUSH2 0xDA8 JUMP JUMPDEST POP DUP1 CALLVALUE LT ISZERO PUSH2 0xFD0 JUMPI PUSH1 0x40 MLOAD PUSH3 0x461BCD PUSH1 0xE5 SHL DUP2 MSTORE PUSH1 0x20 PUSH1 0x4 DUP3 ADD MSTORE PUSH1 0x15 PUSH1 0x24 DUP3 ADD MSTORE PUSH21 0x125B9CDD59999A58DA595B9D08115512081CD95B9D PUSH1 0x5A SHL PUSH1 0x44 DUP3 ADD MSTORE PUSH1 0x64 ADD PUSH2 0x702 JUMP JUMPDEST PUSH1 0x0 PUSH2 0xFE1 CALLVALUE DUP9 DUP9 DUP9 DUP9 PUSH1 0x2 PUSH2 0x1A98 JUMP JUMPDEST SWAP8 SWAP7 POP POP POP POP POP POP POP JUMP JUMPDEST PUSH1 0x0 DUP2 DUP2 MSTORE PUSH1 0x20 DUP2 SWAP1 MSTORE PUSH1 0x40 DUP2 KECCAK256 SWAP1 PUSH1 0x4 DUP3 ADD SLOAD PUSH1 0xFF AND PUSH1 0x3 DUP2 GT ISZERO PUSH2 0x1014 JUMPI PUSH2 0x1014 PUSH2 0x23A3 JUMP JUMPDEST EQ PUSH2 0x1031 JUMPI PUSH1 0x40 MLOAD PUSH3 0x461BCD PUSH1 0xE5 SHL DUP2 MSTORE PUSH1 0x4 ADD PUSH2 0x702 SWAP1 PUSH2 0x260A JUMP JUMPDEST DUP1 PUSH1 0x3 ADD SLOAD TIMESTAMP GT ISZERO PUSH2 0x1076 JUMPI PUSH1 0x40 MLOAD PUSH3 0x461BCD PUSH1 0xE5 SHL DUP2 MSTORE PUSH1 0x20 PUSH1 0x4 DUP3 ADD MSTORE PUSH1 0xE PUSH1 0x24 DUP3 ADD MSTORE PUSH14 0x141858DAD95D08195E1C1A5C9959 PUSH1 0x92 SHL PUSH1 0x44 DUP3 ADD MSTORE PUSH1 0x64 ADD PUSH2 0x702 JUMP JUMPDEST PUSH1 0x9 DUP2 ADD SLOAD PUSH2 0x100 SWAP1 DIV PUSH1 0xFF AND PUSH2 0x10CF JUMPI PUSH1 0x40 MLOAD PUSH3 0x461BCD PUSH1 0xE5 SHL DUP2 MSTORE PUSH1 0x20 PUSH1 0x4 DUP3 ADD MSTORE PUSH1 0x1A PUSH1 0x24 DUP3 ADD MSTORE PUSH32 0x55736520726567756C6172206F70656E696E67206D6574686F64000000000000 PUSH1 0x44 DUP3 ADD MSTORE PUSH1 0x64 ADD PUSH2 0x702 JUMP JUMPDEST PUSH1 0xA DUP2 ADD SLOAD ISZERO PUSH2 0x1119 JUMPI PUSH1 0x40 MLOAD PUSH3 0x461BCD PUSH1 0xE5 SHL DUP2 MSTORE PUSH1 0x20 PUSH1 0x4 DUP3 ADD MSTORE PUSH1 0x15 PUSH1 0x24 DUP3 ADD MSTORE PUSH21 0x15949188185B1C9958591E481C995C5D595CDD1959 PUSH1 0x5A SHL PUSH1 0x44 DUP3 ADD MSTORE PUSH1 0x64 ADD PUSH2 0x702 JUMP JUMPDEST PUSH1 0x7 SLOAD PUSH1 0x8 SLOAD PUSH1 0x9 SLOAD PUSH1 0x40 MLOAD PUSH4 0x5D3B1D3 PUSH1 0xE4 SHL DUP2 MSTORE PUSH1 0x4 DUP2 ADD SWAP3 SWAP1 SWAP3 MSTORE PUSH1 0x1 PUSH1 0x1 PUSH1 0x40 SHL SUB DUP2 AND PUSH1 0x24 DUP4 ADD MSTORE PUSH1 0x1 PUSH1 0x40 SHL DUP2 DIV PUSH2 0xFFFF AND PUSH1 0x44 DUP4 ADD MSTORE PUSH1 0x1 PUSH1 0x50 SHL SWAP1 DIV PUSH4 0xFFFFFFFF AND PUSH1 0x64 DUP3 ADD MSTORE PUSH1 0x1 PUSH1 0x84 DUP3 ADD MSTORE PUSH1 0x0 SWAP2 PUSH1 0x1 PUSH1 0x1 PUSH1 0xA0 SHL SUB AND SWAP1 PUSH4 0x5D3B1D30 SWAP1 PUSH1 0xA4 ADD PUSH1 0x20 PUSH1 0x40 MLOAD DUP1 DUP4 SUB DUP2 PUSH1 0x0 DUP8 GAS CALL ISZERO DUP1 ISZERO PUSH2 0x11A4 JUMPI RETURNDATASIZE PUSH1 0x0 DUP1 RETURNDATACOPY RETURNDATASIZE PUSH1 0x0 REVERT JUMPDEST POP POP POP POP PUSH1 0x40 MLOAD RETURNDATASIZE PUSH1 0x1F NOT PUSH1 0x1F DUP3 ADD AND DUP3 ADD DUP1 PUSH1 0x40 MSTORE POP DUP2 ADD SWAP1 PUSH2 0x11C8 SWAP2 SWAP1 PUSH2 0x2675 JUMP JUMPDEST PUSH1 0xA DUP4 ADD DUP2 SWAP1 SSTORE PUSH1 0x0 DUP2 DUP2 MSTORE PUSH1 0x2 PUSH1 0x20 MSTORE PUSH1 0x40 DUP1 DUP3 KECCAK256 DUP7 SWAP1 SSTORE MLOAD SWAP2 SWAP3 POP DUP5 SWAP2 DUP4 SWAP2 PUSH32 0x3D94FECEDAA4F90B8BD459797ADB95F5BB11426025C5541390D9CCC1AD1B60A1 SWAP2 LOG3 POP POP POP JUMP JUMPDEST PUSH1 0x0 DUP4 DUP2 MSTORE PUSH1 0x20 DUP2 DUP2 MSTORE PUSH1 0x40 DUP1 DUP4 KECCAK256 PUSH1 0x1 SWAP1 SWAP3 MSTORE DUP3 KECCAK256 SWAP1 SWAP2 PUSH1 0x4 DUP4 ADD SLOAD PUSH1 0xFF AND PUSH1 0x3 DUP2 GT ISZERO PUSH2 0x1242 JUMPI PUSH2 0x1242 PUSH2 0x23A3 JUMP JUMPDEST EQ PUSH2 0x125F JUMPI PUSH1 0x40 MLOAD PUSH3 0x461BCD PUSH1 0xE5 SHL DUP2 MSTORE PUSH1 0x4 ADD PUSH2 0x702 SWAP1 PUSH2 0x260A JUMP JUMPDEST DUP1 PUSH1 0x1 ADD SLOAD TIMESTAMP GT ISZERO PUSH2 0x12AC JUMPI PUSH1 0x40 MLOAD PUSH3 0x461BCD PUSH1 0xE5 SHL DUP2 MSTORE PUSH1 0x20 PUSH1 0x4 DUP3 ADD MSTORE PUSH1 0x16 PUSH1 0x24 DUP3 ADD MSTORE PUSH22 0x14995D99585B08191958591B1A5B99481C185CDCD959 PUSH1 0x52 SHL PUSH1 0x44 DUP3 ADD MSTORE PUSH1 0x64 ADD PUSH2 0x702 JUMP JUMPDEST PUSH1 0x2 DUP2 ADD SLOAD PUSH1 0xFF AND ISZERO PUSH2 0x12F4 JUMPI PUSH1 0x40 MLOAD PUSH3 0x461BCD PUSH1 0xE5 SHL DUP2 MSTORE PUSH1 0x20 PUSH1 0x4 DUP3 ADD MSTORE PUSH1 0x10 PUSH1 0x24 DUP3 ADD MSTORE PUSH16 0x105B1C9958591E481C995D99585B1959 PUSH1 0x82 SHL PUSH1 0x44 DUP3 ADD MSTORE PUSH1 0x64 ADD PUSH2 0x702 JUMP JUMPDEST DUP1 SLOAD PUSH1 0x40 DUP1 MLOAD PUSH1 0x20 DUP2 ADD DUP7 SWAP1 MSTORE SWAP1 DUP2 ADD DUP7 SWAP1 MSTORE PUSH1 0x60 ADD PUSH1 0x40 MLOAD PUSH1 0x20 DUP2 DUP4 SUB SUB DUP2 MSTORE SWAP1 PUSH1 0x40 MSTORE DUP1 MLOAD SWAP1 PUSH1 0x20 ADD KECCAK256 EQ PUSH2 0x135E JUMPI PUSH1 0x40 MLOAD PUSH3 0x461BCD PUSH1 0xE5 SHL DUP2 MSTORE PUSH1 0x20 PUSH1 0x4 DUP3 ADD MSTORE PUSH1 0xE PUSH1 0x24 DUP3 ADD MSTORE PUSH14 0x125B9D985B1A59081C995D99585B PUSH1 0x92 SHL PUSH1 0x44 DUP3 ADD MSTORE PUSH1 0x64 ADD PUSH2 0x702 JUMP JUMPDEST PUSH1 0x2 DUP2 ADD DUP1 SLOAD PUSH1 0xFF NOT AND PUSH1 0x1 OR SWAP1 SSTORE PUSH1 0x3 DUP2 ADD DUP5 SWAP1 SSTORE PUSH1 0x40 DUP1 MLOAD PUSH1 0x20 DUP2 ADD DUP6 SWAP1 MSTORE TIMESTAMP SWAP2 DUP2 ADD SWAP2 SWAP1 SWAP2 MSTORE PREVRANDAO PUSH1 0x60 DUP3 ADD MSTORE PUSH1 0x0 SWAP1 PUSH1 0x80 ADD PUSH1 0x40 MLOAD PUSH1 0x20 DUP2 DUP4 SUB SUB DUP2 MSTORE SWAP1 PUSH1 0x40 MSTORE DUP1 MLOAD SWAP1 PUSH1 0x20 ADD KECCAK256 PUSH1 0x0 SHR SWAP1 POP PUSH2 0xCF6 DUP7 DUP3 CALLER PUSH2 0x1C76 JUMP JUMPDEST PUSH1 0x1 PUSH1 0x1 PUSH1 0xA0 SHL SUB DUP2 AND PUSH1 0x0 SWAP1 DUP2 MSTORE PUSH1 0x3 PUSH1 0x20 SWAP1 DUP2 MSTORE PUSH1 0x40 SWAP2 DUP3 SWAP1 KECCAK256 DUP1 SLOAD DUP4 MLOAD DUP2 DUP5 MUL DUP2 ADD DUP5 ADD SWAP1 SWAP5 MSTORE DUP1 DUP5 MSTORE PUSH1 0x60 SWAP4 SWAP3 DUP4 ADD DUP3 DUP3 DUP1 ISZERO PUSH2 0x1419 JUMPI PUSH1 0x20 MUL DUP3 ADD SWAP2 SWAP1 PUSH1 0x0 MSTORE PUSH1 0x20 PUSH1 0x0 KECCAK256 SWAP1 JUMPDEST DUP2 SLOAD DUP2 MSTORE PUSH1 0x20 ADD SWAP1 PUSH1 0x1 ADD SWAP1 DUP1 DUP4 GT PUSH2 0x1405 JUMPI JUMPDEST POP POP POP POP POP SWAP1 POP SWAP2 SWAP1 POP JUMP JUMPDEST PUSH1 0xA SLOAD PUSH1 0x1 PUSH1 0x1 PUSH1 0xA0 SHL SUB AND CALLER EQ PUSH2 0x144F JUMPI PUSH1 0x40 MLOAD PUSH3 0x461BCD PUSH1 0xE5 SHL DUP2 MSTORE PUSH1 0x4 ADD PUSH2 0x702 SWAP1 PUSH2 0x2635 JUMP JUMPDEST PUSH1 0xA SLOAD PUSH1 0x40 MLOAD PUSH1 0x1 PUSH1 0x1 PUSH1 0xA0 SHL SUB SWAP1 SWAP2 AND SWAP1 SELFBALANCE DUP1 ISZERO PUSH2 0x8FC MUL SWAP2 PUSH1 0x0 DUP2 DUP2 DUP2 DUP6 DUP9 DUP9 CALL SWAP4 POP POP POP POP ISZERO DUP1 ISZERO PUSH2 0x1488 JUMPI RETURNDATASIZE PUSH1 0x0 DUP1 RETURNDATACOPY RETURNDATASIZE PUSH1 0x0 REVERT JUMPDEST POP JUMP JUMPDEST PUSH1 0xA SLOAD PUSH1 0x1 PUSH1 0x1 PUSH1 0xA0 SHL SUB AND CALLER EQ PUSH2 0x14B5 JUMPI PUSH1 0x40 MLOAD PUSH3 0x461BCD PUSH1 0xE5 SHL DUP2 MSTORE PUSH1 0x4 ADD PUSH2 0x702 SWAP1 PUSH2 0x2635 JUMP JUMPDEST PUSH1 0x1 PUSH1 0x1 PUSH1 0xA0 SHL SUB SWAP2 SWAP1 SWAP2 AND PUSH1 0x0 SWAP1 DUP2 MSTORE PUSH1 0xB PUSH1 0x20 MSTORE PUSH1 0x40 SWAP1 KECCAK256 DUP1 SLOAD PUSH1 0xFF NOT AND SWAP2 ISZERO ISZERO SWAP2 SWAP1 SWAP2 OR SWAP1 SSTORE JUMP JUMPDEST PUSH1 0x0 DUP2 DUP2 MSTORE PUSH1 0x20 DUP2 SWAP1 MSTORE PUSH1 0x40 DUP2 KECCAK256 SWAP1 PUSH1 0x4 DUP3 ADD SLOAD PUSH1 0xFF AND PUSH1 0x3 DUP2 GT ISZERO PUSH2 0x1508 JUMPI PUSH2 0x1508 PUSH2 0x23A3 JUMP JUMPDEST EQ PUSH2 0x1525 JUMPI PUSH1 0x40 MLOAD PUSH3 0x461BCD PUSH1 0xE5 SHL DUP2 MSTORE PUSH1 0x4 ADD PUSH2 0x702 SWAP1 PUSH2 0x260A JUMP JUMPDEST DUP1 PUSH1 0x3 ADD SLOAD TIMESTAMP GT PUSH2 0x156D JUMPI PUSH1 0x40 MLOAD PUSH3 0x461BCD PUSH1 0xE5 SHL DUP2 MSTORE PUSH1 0x20 PUSH1 0x4 DUP3 ADD MSTORE PUSH1 0x12 PUSH1 0x24 DUP3 ADD MSTORE PUSH18 0x141858DAD95D081B9BDD08195E1C1A5C9959 PUSH1 0x72 SHL PUSH1 0x44 DUP3 ADD MSTORE PUSH1 0x64 ADD PUSH2 0x702 JUMP JUMPDEST DUP1 SLOAD PUSH1 0x1 PUSH1 0x1 PUSH1 0xA0 SHL SUB AND CALLER EQ DUP1 PUSH2 0x158F JUMPI POP PUSH1 0xA SLOAD PUSH1 0x1 PUSH1 0x1 PUSH1 0xA0 SHL SUB AND CALLER EQ JUMPDEST PUSH2 0x15CC JUMPI PUSH1 0x40 MLOAD PUSH3 0x461BCD PUSH1 0xE5 SHL DUP2 MSTORE PUSH1 0x20 PUSH1 0x4 DUP3 ADD MSTORE PUSH1 0xE PUSH1 0x24 DUP3 ADD MSTORE PUSH14 0x139BDD08185D5D1A1BDC9A5E9959 PUSH1 0x92 SHL PUSH1 0x44 DUP3 ADD MSTORE PUSH1 0x64 ADD PUSH2 0x702 JUMP JUMPDEST PUSH1 0x4 DUP2 ADD DUP1 SLOAD PUSH1 0xFF NOT AND PUSH1 0x3 OR SWAP1 SSTORE PUSH1 0x1 DUP2 ADD SLOAD ISZERO PUSH2 0x1624 JUMPI DUP1 SLOAD PUSH1 0x1 DUP3 ADD SLOAD PUSH1 0x40 MLOAD PUSH1 0x1 PUSH1 0x1 PUSH1 0xA0 SHL SUB SWAP1 SWAP3 AND SWAP2 DUP2 ISZERO PUSH2 0x8FC MUL SWAP2 SWAP1 PUSH1 0x0 DUP2 DUP2 DUP2 DUP6 DUP9 DUP9 CALL SWAP4 POP POP POP POP ISZERO DUP1 ISZERO PUSH2 0x1622 JUMPI RETURNDATASIZE PUSH1 0x0 DUP1 RETURNDATACOPY RETURNDATASIZE PUSH1 0x0 REVERT JUMPDEST POP JUMPDEST PUSH1 0x0 JUMPDEST PUSH1 0x5 DUP3 ADD SLOAD DUP2 LT ISZERO PUSH2 0xBA0 JUMPI PUSH1 0x1 DUP3 PUSH1 0x5 ADD DUP3 DUP2 SLOAD DUP2 LT PUSH2 0x164A JUMPI PUSH2 0x164A PUSH2 0x25B2 JUMP JUMPDEST SWAP1 PUSH1 0x0 MSTORE PUSH1 0x20 PUSH1 0x0 KECCAK256 SWAP1 PUSH1 0x20 SWAP2 DUP3 DUP3 DIV ADD SWAP2 SWAP1 MOD SWAP1 SLOAD SWAP1 PUSH2 0x100 EXP SWAP1 DIV PUSH1 0xFF AND PUSH1 0x3 DUP2 GT ISZERO PUSH2 0x167B JUMPI PUSH2 0x167B PUSH2 0x23A3 JUMP JUMPDEST SUB PUSH2 0x174B JUMPI DUP2 PUSH1 0x7 ADD DUP2 DUP2 SLOAD DUP2 LT PUSH2 0x1695 JUMPI PUSH2 0x1695 PUSH2 0x25B2 JUMP JUMPDEST PUSH1 0x0 SWAP2 DUP3 MSTORE PUSH1 0x20 SWAP1 SWAP2 KECCAK256 ADD SLOAD DUP3 SLOAD PUSH1 0x6 DUP5 ADD DUP1 SLOAD PUSH1 0x1 PUSH1 0x1 PUSH1 0xA0 SHL SUB SWAP4 DUP5 AND SWAP4 PUSH4 0xA9059CBB SWAP4 AND SWAP2 SWAP1 DUP6 SWAP1 DUP2 LT PUSH2 0x16CE JUMPI PUSH2 0x16CE PUSH2 0x25B2 JUMP JUMPDEST PUSH1 0x0 SWAP2 DUP3 MSTORE PUSH1 0x20 SWAP1 SWAP2 KECCAK256 ADD SLOAD PUSH1 0x40 MLOAD PUSH1 0x1 PUSH1 0x1 PUSH1 0xE0 SHL SUB NOT PUSH1 0xE0 DUP6 SWAP1 SHL AND DUP2 MSTORE PUSH1 0x1 PUSH1 0x1 PUSH1 0xA0 SHL SUB SWAP1 SWAP3 AND PUSH1 0x4 DUP4 ADD MSTORE PUSH1 0x24 DUP3 ADD MSTORE PUSH1 0x44 ADD PUSH1 0x20 PUSH1 0x40 MLOAD DUP1 DUP4 SUB DUP2 PUSH1 0x0 DUP8 GAS CALL ISZERO DUP1 ISZERO PUSH2 0x1725 JUMPI RETURNDATASIZE PUSH1 0x0 DUP1 RETURNDATACOPY RETURNDATASIZE PUSH1 0x0 REVERT JUMPDEST POP POP POP POP PUSH1 0x40 MLOAD RETURNDATASIZE PUSH1 0x1F NOT PUSH1 0x1F DUP3 ADD AND DUP3 ADD DUP1 PUSH1 0x40 MSTORE POP DUP2 ADD SWAP1 PUSH2 0x1749 SWAP2 SWAP1 PUSH2 0x2658 JUMP JUMPDEST POP JUMPDEST DUP1 PUSH2 0x1755 DUP2 PUSH2 0x25F1 JUMP JUMPDEST SWAP2 POP POP PUSH2 0x1627 JUMP JUMPDEST PUSH1 0xA SLOAD PUSH1 0x1 PUSH1 0x1 PUSH1 0xA0 SHL SUB AND CALLER EQ PUSH2 0x1787 JUMPI PUSH1 0x40 MLOAD PUSH3 0x461BCD PUSH1 0xE5 SHL DUP2 MSTORE PUSH1 0x4 ADD PUSH2 0x702 SWAP1 PUSH2 0x2635 JUMP JUMPDEST PUSH1 0x8 SWAP4 SWAP1 SWAP4 SSTORE PUSH1 0x9 DUP1 SLOAD PUSH4 0xFFFFFFFF SWAP1 SWAP5 AND PUSH1 0x1 PUSH1 0x50 SHL MUL PUSH4 0xFFFFFFFF PUSH1 0x50 SHL NOT PUSH2 0xFFFF SWAP1 SWAP4 AND PUSH1 0x1 PUSH1 0x40 SHL MUL PUSH10 0xFFFFFFFFFFFFFFFFFFFF NOT SWAP1 SWAP6 AND PUSH1 0x1 PUSH1 0x1 PUSH1 0x40 SHL SUB SWAP1 SWAP5 AND SWAP4 SWAP1 SWAP4 OR SWAP4 SWAP1 SWAP4 OR AND OR SWAP1 SSTORE JUMP JUMPDEST PUSH1 0x0 DUP1 DUP4 MLOAD GT DUP1 ISZERO PUSH2 0x17F0 JUMPI POP PUSH1 0xA DUP4 MLOAD GT ISZERO JUMPDEST PUSH2 0x180C JUMPI PUSH1 0x40 MLOAD PUSH3 0x461BCD PUSH1 0xE5 SHL DUP2 MSTORE PUSH1 0x4 ADD PUSH2 0x702 SWAP1 PUSH2 0x2584 JUMP JUMPDEST PUSH1 0x0 DUP1 JUMPDEST DUP5 MLOAD DUP2 LT ISZERO PUSH2 0x1852 JUMPI DUP5 DUP2 DUP2 MLOAD DUP2 LT PUSH2 0x182B JUMPI PUSH2 0x182B PUSH2 0x25B2 JUMP JUMPDEST PUSH1 0x20 MUL PUSH1 0x20 ADD ADD MLOAD DUP3 PUSH2 0x183E SWAP2 SWAP1 PUSH2 0x25DE JUMP JUMPDEST SWAP2 POP DUP1 PUSH2 0x184A DUP2 PUSH2 0x25F1 JUMP JUMPDEST SWAP2 POP POP PUSH2 0x1810 JUMP JUMPDEST POP PUSH1 0x40 MLOAD PUSH4 0x23B872DD PUSH1 0xE0 SHL DUP2 MSTORE CALLER PUSH1 0x4 DUP3 ADD MSTORE ADDRESS PUSH1 0x24 DUP3 ADD MSTORE PUSH1 0x44 DUP2 ADD DUP3 SWAP1 MSTORE DUP6 SWAP1 PUSH1 0x1 PUSH1 0x1 PUSH1 0xA0 SHL SUB DUP3 AND SWAP1 PUSH4 0x23B872DD SWAP1 PUSH1 0x64 ADD PUSH1 0x20 PUSH1 0x40 MLOAD DUP1 DUP4 SUB DUP2 PUSH1 0x0 DUP8 GAS CALL ISZERO DUP1 ISZERO PUSH2 0x18A8 JUMPI RETURNDATASIZE PUSH1 0x0 DUP1 RETURNDATACOPY RETURNDATASIZE PUSH1 0x0 REVERT JUMPDEST POP POP POP POP PUSH1 0x40 MLOAD RETURNDATASIZE PUSH1 0x1F NOT PUSH1 0x1F DUP3 ADD AND DUP3 ADD DUP1 PUSH1 0x40 MSTORE POP DUP2 ADD SWAP1 PUSH2 0x18CC SWAP2 SWAP1 PUSH2 0x2658 JUMP JUMPDEST PUSH2 0x1910 JUMPI PUSH1 0x40 MLOAD PUSH3 0x461BCD PUSH1 0xE5 SHL DUP2 MSTORE PUSH1 0x20 PUSH1 0x4 DUP3 ADD MSTORE PUSH1 0x15 PUSH1 0x24 DUP3 ADD MSTORE PUSH21 0x151BDAD95B881D1C985B9CD9995C8819985A5B1959 PUSH1 0x5A SHL PUSH1 0x44 DUP3 ADD MSTORE PUSH1 0x64 ADD PUSH2 0x702 JUMP JUMPDEST PUSH1 0x0 DUP6 MLOAD PUSH1 0x1 PUSH1 0x1 PUSH1 0x40 SHL SUB DUP2 GT ISZERO PUSH2 0x192B JUMPI PUSH2 0x192B PUSH2 0x2005 JUMP JUMPDEST PUSH1 0x40 MLOAD SWAP1 DUP1 DUP3 MSTORE DUP1 PUSH1 0x20 MUL PUSH1 0x20 ADD DUP3 ADD PUSH1 0x40 MSTORE DUP1 ISZERO PUSH2 0x1954 JUMPI DUP2 PUSH1 0x20 ADD PUSH1 0x20 DUP3 MUL DUP1 CALLDATASIZE DUP4 CALLDATACOPY ADD SWAP1 POP JUMPDEST POP SWAP1 POP PUSH1 0x0 DUP7 MLOAD PUSH1 0x1 PUSH1 0x1 PUSH1 0x40 SHL SUB DUP2 GT ISZERO PUSH2 0x1972 JUMPI PUSH2 0x1972 PUSH2 0x2005 JUMP JUMPDEST PUSH1 0x40 MLOAD SWAP1 DUP1 DUP3 MSTORE DUP1 PUSH1 0x20 MUL PUSH1 0x20 ADD DUP3 ADD PUSH1 0x40 MSTORE DUP1 ISZERO PUSH2 0x199B JUMPI DUP2 PUSH1 0x20 ADD PUSH1 0x20 DUP3 MUL DUP1 CALLDATASIZE DUP4 CALLDATACOPY ADD SWAP1 POP JUMPDEST POP SWAP1 POP PUSH1 0x0 JUMPDEST DUP8 MLOAD DUP2 LT ISZERO PUSH2 0x1A2B JUMPI PUSH1 0x1 DUP4 DUP3 DUP2 MLOAD DUP2 LT PUSH2 0x19BE JUMPI PUSH2 0x19BE PUSH2 0x25B2 JUMP JUMPDEST PUSH1 0x20 MUL PUSH1 0x20 ADD ADD SWAP1 PUSH1 0x3 DUP2 GT ISZERO PUSH2 0x19D7 JUMPI PUSH2 0x19D7 PUSH2 0x23A3 JUMP JUMPDEST SWAP1 DUP2 PUSH1 0x3 DUP2 GT ISZERO PUSH2 0x19EA JUMPI PUSH2 0x19EA PUSH2 0x23A3 JUMP JUMPDEST DUP2 MSTORE POP POP DUP9 DUP3 DUP3 DUP2 MLOAD DUP2 LT PUSH2 0x1A01 JUMPI PUSH2 0x1A01 PUSH2 0x25B2 JUMP JUMPDEST PUSH1 0x1 PUSH1 0x1 PUSH1 0xA0 SHL SUB SWAP1 SWAP3 AND PUSH1 0x20 SWAP3 DUP4 MUL SWAP2 SWAP1 SWAP2 ADD SWAP1 SWAP2 ADD MSTORE DUP1 PUSH2 0x1A23 DUP2 PUSH2 0x25F1 JUMP JUMPDEST SWAP2 POP POP PUSH2 0x19A1 JUMP JUMPDEST POP PUSH1 0x0 PUSH2 0x1A8B DUP6 DUP5 DUP11 DUP6 DUP13 MLOAD PUSH1 0x1 PUSH1 0x1 PUSH1 0x40 SHL SUB DUP2 GT ISZERO PUSH2 0x1A4E JUMPI PUSH2 0x1A4E PUSH2 0x2005 JUMP JUMPDEST PUSH1 0x40 MLOAD SWAP1 DUP1 DUP3 MSTORE DUP1 PUSH1 0x20 MUL PUSH1 0x20 ADD DUP3 ADD PUSH1 0x40 MSTORE DUP1 ISZERO PUSH2 0x1A77 JUMPI DUP2 PUSH1 0x20 ADD PUSH1 0x20 DUP3 MUL DUP1 CALLDATASIZE DUP4 CALLDATACOPY ADD SWAP1 POP JUMPDEST POP DUP13 PUSH2 0x1A84 JUMPI PUSH1 0x0 PUSH2 0x1A98 JUMP JUMPDEST PUSH1 0x1 PUSH2 0x1A98 JUMP JUMPDEST SWAP10 SWAP9 POP POP POP POP POP POP POP POP POP JUMP JUMPDEST PUSH1 0x4 DUP1 SLOAD PUSH1 0x0 SWAP2 DUP3 SWAP2 SWAP1 DUP3 PUSH2 0x1AAC DUP4 PUSH2 0x25F1 JUMP JUMPDEST SWAP1 SWAP2 SSTORE POP PUSH1 0x0 DUP2 DUP2 MSTORE PUSH1 0x20 DUP2 SWAP1 MSTORE PUSH1 0x40 SWAP1 KECCAK256 DUP1 SLOAD PUSH1 0x1 PUSH1 0x1 PUSH1 0xA0 SHL SUB NOT AND CALLER OR DUP2 SSTORE PUSH1 0x1 DUP2 ADD DUP11 SWAP1 SSTORE TIMESTAMP PUSH1 0x2 DUP3 ADD DUP2 SWAP1 SSTORE PUSH1 0x5 SLOAD SWAP3 SWAP4 POP SWAP1 SWAP2 PUSH2 0x1AEE SWAP2 PUSH2 0x25DE JUMP JUMPDEST PUSH1 0x3 DUP3 ADD SSTORE PUSH1 0x4 DUP2 ADD DUP1 SLOAD PUSH1 0xFF NOT AND SWAP1 SSTORE DUP8 MLOAD PUSH2 0x1B14 SWAP1 PUSH1 0x5 DUP4 ADD SWAP1 PUSH1 0x20 DUP12 ADD SWAP1 PUSH2 0x1EAC JUMP JUMPDEST POP DUP7 MLOAD PUSH2 0x1B2A SWAP1 PUSH1 0x6 DUP4 ADD SWAP1 PUSH1 0x20 DUP11 ADD SWAP1 PUSH2 0x1F60 JUMP JUMPDEST POP DUP6 MLOAD PUSH2 0x1B40 SWAP1 PUSH1 0x7 DUP4 ADD SWAP1 PUSH1 0x20 DUP10 ADD SWAP1 PUSH2 0x1F9B JUMP JUMPDEST POP DUP5 MLOAD PUSH2 0x1B56 SWAP1 PUSH1 0x8 DUP4 ADD SWAP1 PUSH1 0x20 DUP9 ADD SWAP1 PUSH2 0x1F60 JUMP JUMPDEST POP PUSH1 0x9 DUP2 ADD DUP1 SLOAD DUP6 SWAP2 SWAP1 PUSH1 0xFF NOT AND PUSH1 0x1 DUP4 PUSH1 0x2 DUP2 GT ISZERO PUSH2 0x1B78 JUMPI PUSH2 0x1B78 PUSH2 0x23A3 JUMP JUMPDEST MUL OR SWAP1 SSTORE POP PUSH1 0x1 DUP5 PUSH1 0x2 DUP2 GT ISZERO PUSH2 0x1B91 JUMPI PUSH2 0x1B91 PUSH2 0x23A3 JUMP JUMPDEST PUSH1 0x9 DUP4 ADD DUP1 SLOAD PUSH2 0xFF00 NOT AND SWAP2 SWAP1 SWAP3 EQ PUSH2 0x100 MUL OR SWAP1 SSTORE CALLER PUSH1 0x0 DUP2 DUP2 MSTORE PUSH1 0x3 PUSH1 0x20 SWAP1 DUP2 MSTORE PUSH1 0x40 DUP1 DUP4 KECCAK256 DUP1 SLOAD PUSH1 0x1 DUP2 ADD DUP3 SSTORE SWAP1 DUP5 MSTORE SWAP3 DUP3 SWAP1 KECCAK256 SWAP1 SWAP3 ADD DUP6 SWAP1 SSTORE SWAP1 MLOAD DUP12 DUP2 MSTORE DUP5 SWAP2 PUSH32 0x1D999E6D0AED36EA80544D0939873285E49B1592EA68247F048E63FFC1B01171 SWAP2 ADD PUSH1 0x40 MLOAD DUP1 SWAP2 SUB SWAP1 LOG3 POP SWAP8 SWAP7 POP POP POP POP POP POP POP JUMP JUMPDEST PUSH1 0x0 TIMESTAMP PREVRANDAO CALLER DUP5 PUSH2 0x1C1D PUSH1 0x1 NUMBER PUSH2 0x268E JUMP JUMPDEST PUSH1 0x40 DUP1 MLOAD PUSH1 0x20 DUP2 ADD SWAP7 SWAP1 SWAP7 MSTORE DUP6 ADD SWAP4 SWAP1 SWAP4 MSTORE PUSH12 0xFFFFFFFFFFFFFFFFFFFFFFFF NOT PUSH1 0x60 SWAP3 DUP4 SHL AND SWAP2 DUP5 ADD SWAP2 SWAP1 SWAP2 MSTORE PUSH1 0x74 DUP4 ADD MSTORE BLOCKHASH PUSH1 0x94 DUP3 ADD MSTORE PUSH1 0xB4 ADD PUSH1 0x40 DUP1 MLOAD PUSH1 0x1F NOT DUP2 DUP5 SUB ADD DUP2 MSTORE SWAP2 SWAP1 MSTORE DUP1 MLOAD PUSH1 0x20 SWAP1 SWAP2 ADD KECCAK256 SWAP3 SWAP2 POP POP JUMP JUMPDEST PUSH1 0x0 DUP4 DUP2 MSTORE PUSH1 0x20 DUP2 SWAP1 MSTORE PUSH1 0x40 DUP2 KECCAK256 PUSH1 0x4 DUP2 ADD DUP1 SLOAD PUSH1 0xFF NOT AND PUSH1 0x1 OR SWAP1 SSTORE PUSH1 0x5 DUP2 ADD SLOAD SWAP1 SWAP2 SUB PUSH2 0x1CEB JUMPI DUP2 PUSH1 0x1 PUSH1 0x1 PUSH1 0xA0 SHL SUB AND DUP5 PUSH32 0x96733C83C38055DC9AD5960359E547536DB97D423905A340CC18BE0DABC9D799 PUSH1 0x0 PUSH1 0x3 PUSH1 0x40 MLOAD PUSH2 0x1CDD SWAP3 SWAP2 SWAP1 PUSH2 0x26A1 JUMP JUMPDEST PUSH1 0x40 MLOAD DUP1 SWAP2 SUB SWAP1 LOG3 POP POP POP POP JUMP JUMPDEST PUSH1 0x5 DUP2 ADD SLOAD PUSH1 0x0 SWAP1 PUSH2 0x1CFD SWAP1 DUP6 PUSH2 0x26BE JUMP JUMPDEST SWAP1 POP PUSH1 0x0 DUP3 PUSH1 0x5 ADD DUP3 DUP2 SLOAD DUP2 LT PUSH2 0x1D16 JUMPI PUSH2 0x1D16 PUSH2 0x25B2 JUMP JUMPDEST SWAP1 PUSH1 0x0 MSTORE PUSH1 0x20 PUSH1 0x0 KECCAK256 SWAP1 PUSH1 0x20 SWAP2 DUP3 DUP3 DIV ADD SWAP2 SWAP1 MOD SWAP1 SLOAD SWAP1 PUSH2 0x100 EXP SWAP1 DIV PUSH1 0xFF AND SWAP1 POP PUSH1 0x0 DUP4 PUSH1 0x6 ADD DUP4 DUP2 SLOAD DUP2 LT PUSH2 0x1D4F JUMPI PUSH2 0x1D4F PUSH2 0x25B2 JUMP JUMPDEST PUSH1 0x0 SWAP2 DUP3 MSTORE PUSH1 0x20 DUP3 KECCAK256 ADD SLOAD SWAP2 POP DUP3 PUSH1 0x3 DUP2 GT ISZERO PUSH2 0x1D6E JUMPI PUSH2 0x1D6E PUSH2 0x23A3 JUMP JUMPDEST SUB PUSH2 0x1DAF JUMPI PUSH1 0x40 MLOAD PUSH1 0x1 PUSH1 0x1 PUSH1 0xA0 SHL SUB DUP7 AND SWAP1 DUP3 ISZERO PUSH2 0x8FC MUL SWAP1 DUP4 SWAP1 PUSH1 0x0 DUP2 DUP2 DUP2 DUP6 DUP9 DUP9 CALL SWAP4 POP POP POP POP ISZERO DUP1 ISZERO PUSH2 0x1DA9 JUMPI RETURNDATASIZE PUSH1 0x0 DUP1 RETURNDATACOPY RETURNDATASIZE PUSH1 0x0 REVERT JUMPDEST POP PUSH2 0x1E5F JUMP JUMPDEST PUSH1 0x1 DUP3 PUSH1 0x3 DUP2 GT ISZERO PUSH2 0x1DC3 JUMPI PUSH2 0x1DC3 PUSH2 0x23A3 JUMP JUMPDEST SUB PUSH2 0x1E5F JUMPI DUP4 PUSH1 0x7 ADD DUP4 DUP2 SLOAD DUP2 LT PUSH2 0x1DDD JUMPI PUSH2 0x1DDD PUSH2 0x25B2 JUMP JUMPDEST PUSH1 0x0 SWAP2 DUP3 MSTORE PUSH1 0x20 SWAP1 SWAP2 KECCAK256 ADD SLOAD PUSH1 0x40 MLOAD PUSH4 0xA9059CBB PUSH1 0xE0 SHL DUP2 MSTORE PUSH1 0x1 PUSH1 0x1 PUSH1 0xA0 SHL SUB DUP8 DUP2 AND PUSH1 0x4 DUP4 ADD MSTORE PUSH1 0x24 DUP3 ADD DUP5 SWAP1 MSTORE SWAP1 SWAP2 AND SWAP1 PUSH4 0xA9059CBB SWAP1 PUSH1 0x44 ADD PUSH1 0x20 PUSH1 0x40 MLOAD DUP1 DUP4 SUB DUP2 PUSH1 0x0 DUP8 GAS CALL ISZERO DUP1 ISZERO PUSH2 0x1E39 JUMPI RETURNDATASIZE PUSH1 0x0 DUP1 RETURNDATACOPY RETURNDATASIZE PUSH1 0x0 REVERT JUMPDEST POP POP POP POP PUSH1 0x40 MLOAD RETURNDATASIZE PUSH1 0x1F NOT PUSH1 0x1F DUP3 ADD AND DUP3 ADD DUP1 PUSH1 0x40 MSTORE POP DUP2 ADD SWAP1 PUSH2 0x1E5D SWAP2 SWAP1 PUSH2 0x2658 JUMP JUMPDEST POP JUMPDEST DUP5 PUSH1 0x1 PUSH1 0x1 PUSH1 0xA0 SHL SUB AND DUP8 PUSH32 0x96733C83C38055DC9AD5960359E547536DB97D423905A340CC18BE0DABC9D799 DUP4 DUP6 PUSH1 0x40 MLOAD PUSH2 0x1E9B SWAP3 SWAP2 SWAP1 PUSH2 0x26A1 JUMP JUMPDEST PUSH1 0x40 MLOAD DUP1 SWAP2 SUB SWAP1 LOG3 POP POP POP POP POP POP POP JUMP JUMPDEST DUP3 DUP1 SLOAD DUP3 DUP3 SSTORE SWAP1 PUSH1 0x0 MSTORE PUSH1 0x20 PUSH1 0x0 KECCAK256 SWAP1 PUSH1 0x1F ADD PUSH1 0x20 SWAP1 DIV DUP2 ADD SWAP3 DUP3 ISZERO PUSH2 0x1F50 JUMPI SWAP2 PUSH1 0x20 MUL DUP3 ADD PUSH1 0x0 JUMPDEST DUP4 DUP3 GT ISZERO PUSH2 0x1F21 JUMPI DUP4 MLOAD DUP4 DUP3 PUSH2 0x100 EXP DUP2 SLOAD DUP2 PUSH1 0xFF MUL NOT AND SWAP1 DUP4 PUSH1 0x3 DUP2 GT ISZERO PUSH2 0x1F00 JUMPI PUSH2 0x1F00 PUSH2 0x23A3 JUMP JUMPDEST MUL OR SWAP1 SSTORE POP SWAP3 PUSH1 0x20 ADD SWAP3 PUSH1 0x1 ADD PUSH1 0x20 DUP2 PUSH1 0x0 ADD DIV SWAP3 DUP4 ADD SWAP3 PUSH1 0x1 SUB MUL PUSH2 0x1ED5 JUMP JUMPDEST DUP1 ISZERO PUSH2 0x1F4E JUMPI DUP3 DUP2 PUSH2 0x100 EXP DUP2 SLOAD SWAP1 PUSH1 0xFF MUL NOT AND SWAP1 SSTORE PUSH1 0x1 ADD PUSH1 0x20 DUP2 PUSH1 0x0 ADD DIV SWAP3 DUP4 ADD SWAP3 PUSH1 0x1 SUB MUL PUSH2 0x1F21 JUMP JUMPDEST POP JUMPDEST POP PUSH2 0x1F5C SWAP3 SWAP2 POP PUSH2 0x1FF0 JUMP JUMPDEST POP SWAP1 JUMP JUMPDEST DUP3 DUP1 SLOAD DUP3 DUP3 SSTORE SWAP1 PUSH1 0x0 MSTORE PUSH1 0x20 PUSH1 0x0 KECCAK256 SWAP1 DUP2 ADD SWAP3 DUP3 ISZERO PUSH2 0x1F50 JUMPI SWAP2 PUSH1 0x20 MUL DUP3 ADD JUMPDEST DUP3 DUP2 GT ISZERO PUSH2 0x1F50 JUMPI DUP3 MLOAD DUP3 SSTORE SWAP2 PUSH1 0x20 ADD SWAP2 SWAP1 PUSH1 0x1 ADD SWAP1 PUSH2 0x1F80 JUMP JUMPDEST DUP3 DUP1 SLOAD DUP3 DUP3 SSTORE SWAP1 PUSH1 0x0 MSTORE PUSH1 0x20 PUSH1 0x0 KECCAK256 SWAP1 DUP2 ADD SWAP3 DUP3 ISZERO PUSH2 0x1F50 JUMPI SWAP2 PUSH1 0x20 MUL DUP3 ADD JUMPDEST DUP3 DUP2 GT ISZERO PUSH2 0x1F50 JUMPI DUP3 MLOAD DUP3 SLOAD PUSH1 0x1 PUSH1 0x1 PUSH1 0xA0 SHL SUB NOT AND PUSH1 0x1 PUSH1 0x1 PUSH1 0xA0 SHL SUB SWAP1 SWAP2 AND OR DUP3 SSTORE PUSH1 0x20 SWAP1 SWAP3 ADD SWAP2 PUSH1 0x1 SWAP1 SWAP2 ADD SWAP1 PUSH2 0x1FBB JUMP JUMPDEST JUMPDEST DUP1 DUP3 GT ISZERO PUSH2 0x1F5C JUMPI PUSH1 0x0 DUP2 SSTORE PUSH1 0x1 ADD PUSH2 0x1FF1 JUMP JUMPDEST PUSH4 0x4E487B71 PUSH1 0xE0 SHL PUSH1 0x0 MSTORE PUSH1 0x41 PUSH1 0x4 MSTORE PUSH1 0x24 PUSH1 0x0 REVERT JUMPDEST PUSH1 0x40 MLOAD PUSH1 0x1F DUP3 ADD PUSH1 0x1F NOT AND DUP2 ADD PUSH1 0x1 PUSH1 0x1 PUSH1 0x40 SHL SUB DUP2 GT DUP3 DUP3 LT OR ISZERO PUSH2 0x2043 JUMPI PUSH2 0x2043 PUSH2 0x2005 JUMP JUMPDEST PUSH1 0x40 MSTORE SWAP2 SWAP1 POP JUMP JUMPDEST PUSH1 0x0 PUSH1 0x1 PUSH1 0x1 PUSH1 0x40 SHL SUB DUP3 GT ISZERO PUSH2 0x2064 JUMPI PUSH2 0x2064 PUSH2 0x2005 JUMP JUMPDEST POP PUSH1 0x5 SHL PUSH1 0x20 ADD SWAP1 JUMP JUMPDEST PUSH1 0x0 DUP3 PUSH1 0x1F DUP4 ADD SLT PUSH2 0x207F JUMPI PUSH1 0x0 DUP1 REVERT JUMPDEST DUP2 CALLDATALOAD PUSH1 0x20 PUSH2 0x2094 PUSH2 0x208F DUP4 PUSH2 0x204B JUMP JUMPDEST PUSH2 0x201B JUMP JUMPDEST DUP3 DUP2 MSTORE PUSH1 0x5 SWAP3 SWAP1 SWAP3 SHL DUP5 ADD DUP2 ADD SWAP2 DUP2 DUP2 ADD SWAP1 DUP7 DUP5 GT ISZERO PUSH2 0x20B3 JUMPI PUSH1 0x0 DUP1 REVERT JUMPDEST DUP3 DUP7 ADD JUMPDEST DUP5 DUP2 LT ISZERO PUSH2 0x20CE JUMPI DUP1 CALLDATALOAD DUP4 MSTORE SWAP2 DUP4 ADD SWAP2 DUP4 ADD PUSH2 0x20B7 JUMP JUMPDEST POP SWAP7 SWAP6 POP POP POP POP POP POP JUMP JUMPDEST PUSH1 0x0 DUP1 PUSH1 0x40 DUP4 DUP6 SUB SLT ISZERO PUSH2 0x20EC JUMPI PUSH1 0x0 DUP1 REVERT JUMPDEST DUP3 CALLDATALOAD SWAP2 POP PUSH1 0x20 DUP4 ADD CALLDATALOAD PUSH1 0x1 PUSH1 0x1 PUSH1 0x40 SHL SUB DUP2 GT ISZERO PUSH2 0x2109 JUMPI PUSH1 0x0 DUP1 REVERT JUMPDEST PUSH2 0x2115 DUP6 DUP3 DUP7 ADD PUSH2 0x206E JUMP JUMPDEST SWAP2 POP POP SWAP3 POP SWAP3 SWAP1 POP JUMP JUMPDEST PUSH1 0x0 DUP1 PUSH1 0x40 DUP4 DUP6 SUB SLT ISZERO PUSH2 0x2132 JUMPI PUSH1 0x0 DUP1 REVERT JUMPDEST POP POP DUP1 CALLDATALOAD SWAP3 PUSH1 0x20 SWAP1 SWAP2 ADD CALLDATALOAD SWAP2 POP JUMP JUMPDEST PUSH1 0x0 PUSH1 0x20 DUP3 DUP5 SUB SLT ISZERO PUSH2 0x2153 JUMPI PUSH1 0x0 DUP1 REVERT JUMPDEST POP CALLDATALOAD SWAP2 SWAP1 POP JUMP JUMPDEST DUP1 CALLDATALOAD PUSH1 0x1 PUSH1 0x1 PUSH1 0xA0 SHL SUB DUP2 AND DUP2 EQ PUSH2 0x2171 JUMPI PUSH1 0x0 DUP1 REVERT JUMPDEST SWAP2 SWAP1 POP JUMP JUMPDEST PUSH1 0x0 DUP1 PUSH1 0x40 DUP4 DUP6 SUB SLT ISZERO PUSH2 0x2189 JUMPI PUSH1 0x0 DUP1 REVERT JUMPDEST PUSH2 0x2192 DUP4 PUSH2 0x215A JUMP JUMPDEST SWAP5 PUSH1 0x20 SWAP4 SWAP1 SWAP4 ADD CALLDATALOAD SWAP4 POP POP POP JUMP JUMPDEST PUSH1 0x0 DUP3 PUSH1 0x1F DUP4 ADD SLT PUSH2 0x21B1 JUMPI PUSH1 0x0 DUP1 REVERT JUMPDEST DUP2 CALLDATALOAD PUSH1 0x20 PUSH2 0x21C1 PUSH2 0x208F DUP4 PUSH2 0x204B JUMP JUMPDEST DUP3 DUP2 MSTORE PUSH1 0x5 SWAP3 SWAP1 SWAP3 SHL DUP5 ADD DUP2 ADD SWAP2 DUP2 DUP2 ADD SWAP1 DUP7 DUP5 GT ISZERO PUSH2 0x21E0 JUMPI PUSH1 0x0 DUP1 REVERT JUMPDEST DUP3 DUP7 ADD JUMPDEST DUP5 DUP2 LT ISZERO PUSH2 0x20CE JUMPI PUSH2 0x21F5 DUP2 PUSH2 0x215A JUMP JUMPDEST DUP4 MSTORE SWAP2 DUP4 ADD SWAP2 DUP4 ADD PUSH2 0x21E4 JUMP JUMPDEST PUSH1 0x0 DUP1 PUSH1 0x0 DUP1 PUSH1 0x80 DUP6 DUP8 SUB SLT ISZERO PUSH2 0x2218 JUMPI PUSH1 0x0 DUP1 REVERT JUMPDEST DUP5 CALLDATALOAD PUSH1 0x1 PUSH1 0x1 PUSH1 0x40 SHL SUB DUP1 DUP3 GT ISZERO PUSH2 0x222F JUMPI PUSH1 0x0 DUP1 REVERT JUMPDEST DUP2 DUP8 ADD SWAP2 POP DUP8 PUSH1 0x1F DUP4 ADD SLT PUSH2 0x2243 JUMPI PUSH1 0x0 DUP1 REVERT JUMPDEST DUP2 CALLDATALOAD PUSH1 0x20 PUSH2 0x2253 PUSH2 0x208F DUP4 PUSH2 0x204B JUMP JUMPDEST DUP3 DUP2 MSTORE PUSH1 0x5 SWAP3 SWAP1 SWAP3 SHL DUP5 ADD DUP2 ADD SWAP2 DUP2 DUP2 ADD SWAP1 DUP12 DUP5 GT ISZERO PUSH2 0x2272 JUMPI PUSH1 0x0 DUP1 REVERT JUMPDEST SWAP5 DUP3 ADD SWAP5 JUMPDEST DUP4 DUP7 LT ISZERO PUSH2 0x229E JUMPI DUP6 CALLDATALOAD PUSH1 0x4 DUP2 LT PUSH2 0x228F JUMPI PUSH1 0x0 DUP1 DUP2 REVERT JUMPDEST DUP3 MSTORE SWAP5 DUP3 ADD SWAP5 SWAP1 DUP3 ADD SWAP1 PUSH2 0x2277 JUMP JUMPDEST SWAP9 POP POP DUP9 ADD CALLDATALOAD SWAP3 POP POP DUP1 DUP3 GT ISZERO PUSH2 0x22B4 JUMPI PUSH1 0x0 DUP1 REVERT JUMPDEST PUSH2 0x22C0 DUP9 DUP4 DUP10 ADD PUSH2 0x206E JUMP JUMPDEST SWAP5 POP PUSH1 0x40 DUP8 ADD CALLDATALOAD SWAP2 POP DUP1 DUP3 GT ISZERO PUSH2 0x22D6 JUMPI PUSH1 0x0 DUP1 REVERT JUMPDEST PUSH2 0x22E2 DUP9 DUP4 DUP10 ADD PUSH2 0x21A0 JUMP JUMPDEST SWAP4 POP PUSH1 0x60 DUP8 ADD CALLDATALOAD SWAP2 POP DUP1 DUP3 GT ISZERO PUSH2 0x22F8 JUMPI PUSH1 0x0 DUP1 REVERT JUMPDEST POP PUSH2 0x2305 DUP8 DUP3 DUP9 ADD PUSH2 0x206E JUMP JUMPDEST SWAP2 POP POP SWAP3 SWAP6 SWAP2 SWAP5 POP SWAP3 POP JUMP JUMPDEST PUSH1 0x0 DUP1 PUSH1 0x0 PUSH1 0x60 DUP5 DUP7 SUB SLT ISZERO PUSH2 0x2326 JUMPI PUSH1 0x0 DUP1 REVERT JUMPDEST POP POP DUP2 CALLDATALOAD SWAP4 PUSH1 0x20 DUP4 ADD CALLDATALOAD SWAP4 POP PUSH1 0x40 SWAP1 SWAP3 ADD CALLDATALOAD SWAP2 SWAP1 POP JUMP JUMPDEST PUSH1 0x0 PUSH1 0x20 DUP3 DUP5 SUB SLT ISZERO PUSH2 0x234F JUMPI PUSH1 0x0 DUP1 REVERT JUMPDEST PUSH2 0x2358 DUP3 PUSH2 0x215A JUMP JUMPDEST SWAP4 SWAP3 POP POP POP JUMP JUMPDEST PUSH1 0x20 DUP1 DUP3 MSTORE DUP3 MLOAD DUP3 DUP3 ADD DUP2 SWAP1 MSTORE PUSH1 0x0 SWAP2 SWAP1 DUP5 DUP3 ADD SWAP1 PUSH1 0x40 DUP6 ADD SWAP1 DUP5 JUMPDEST DUP2 DUP2 LT ISZERO PUSH2 0x2397 JUMPI DUP4 MLOAD DUP4 MSTORE SWAP3 DUP5 ADD SWAP3 SWAP2 DUP5 ADD SWAP2 PUSH1 0x1 ADD PUSH2 0x237B JUMP JUMPDEST POP SWAP1 SWAP7 SWAP6 POP POP POP POP POP POP JUMP JUMPDEST PUSH4 0x4E487B71 PUSH1 0xE0 SHL PUSH1 0x0 MSTORE PUSH1 0x21 PUSH1 0x4 MSTORE PUSH1 0x24 PUSH1 0x0 REVERT JUMPDEST PUSH1 0x4 DUP2 LT PUSH2 0x1488 JUMPI PUSH2 0x1488 PUSH2 0x23A3 JUMP JUMPDEST PUSH1 0x1 PUSH1 0x1 PUSH1 0xA0 SHL SUB DUP8 AND DUP2 MSTORE PUSH1 0x20 DUP2 ADD DUP7 SWAP1 MSTORE PUSH1 0x40 DUP2 ADD DUP6 SWAP1 MSTORE PUSH1 0x60 DUP2 ADD DUP5 SWAP1 MSTORE PUSH1 0xC0 DUP2 ADD PUSH2 0x23F7 DUP5 PUSH2 0x23B9 JUMP JUMPDEST PUSH1 0x80 DUP3 ADD SWAP4 SWAP1 SWAP4 MSTORE PUSH1 0xA0 ADD MSTORE SWAP5 SWAP4 POP POP POP POP JUMP JUMPDEST PUSH1 0x1 PUSH1 0x1 PUSH1 0xA0 SHL SUB DUP10 AND DUP2 MSTORE PUSH1 0x20 DUP2 ADD DUP9 SWAP1 MSTORE PUSH1 0x40 DUP2 ADD DUP8 SWAP1 MSTORE PUSH1 0x60 DUP2 ADD DUP7 SWAP1 MSTORE PUSH2 0x100 DUP2 ADD PUSH2 0x243A DUP7 PUSH2 0x23B9 JUMP JUMPDEST DUP6 PUSH1 0x80 DUP4 ADD MSTORE PUSH1 0x3 DUP6 LT PUSH2 0x2450 JUMPI PUSH2 0x2450 PUSH2 0x23A3 JUMP JUMPDEST PUSH1 0xA0 DUP3 ADD SWAP5 SWAP1 SWAP5 MSTORE SWAP2 ISZERO ISZERO PUSH1 0xC0 DUP4 ADD MSTORE PUSH1 0xE0 SWAP1 SWAP2 ADD MSTORE SWAP6 SWAP5 POP POP POP POP POP JUMP JUMPDEST DUP1 ISZERO ISZERO DUP2 EQ PUSH2 0x1488 JUMPI PUSH1 0x0 DUP1 REVERT JUMPDEST PUSH1 0x0 DUP1 PUSH1 0x40 DUP4 DUP6 SUB SLT ISZERO PUSH2 0x2490 JUMPI PUSH1 0x0 DUP1 REVERT JUMPDEST PUSH2 0x2499 DUP4 PUSH2 0x215A JUMP JUMPDEST SWAP2 POP PUSH1 0x20 DUP4 ADD CALLDATALOAD PUSH2 0x24A9 DUP2 PUSH2 0x246F JUMP JUMPDEST DUP1 SWAP2 POP POP SWAP3 POP SWAP3 SWAP1 POP JUMP JUMPDEST PUSH1 0x0 DUP1 PUSH1 0x0 DUP1 PUSH1 0x80 DUP6 DUP8 SUB SLT ISZERO PUSH2 0x24CA JUMPI PUSH1 0x0 DUP1 REVERT JUMPDEST DUP5 CALLDATALOAD SWAP4 POP PUSH1 0x20 DUP6 ADD CALLDATALOAD PUSH1 0x1 PUSH1 0x1 PUSH1 0x40 SHL SUB DUP2 AND DUP2 EQ PUSH2 0x24E8 JUMPI PUSH1 0x0 DUP1 REVERT JUMPDEST SWAP3 POP PUSH1 0x40 DUP6 ADD CALLDATALOAD PUSH2 0xFFFF DUP2 AND DUP2 EQ PUSH2 0x24FF JUMPI PUSH1 0x0 DUP1 REVERT JUMPDEST SWAP2 POP PUSH1 0x60 DUP6 ADD CALLDATALOAD PUSH4 0xFFFFFFFF DUP2 AND DUP2 EQ PUSH2 0x2518 JUMPI PUSH1 0x0 DUP1 REVERT JUMPDEST SWAP4 SWAP7 SWAP3 SWAP6 POP SWAP1 SWAP4 POP POP JUMP JUMPDEST PUSH1 0x0 DUP1 PUSH1 0x0 PUSH1 0x60 DUP5 DUP7 SUB SLT ISZERO PUSH2 0x2538 JUMPI PUSH1 0x0 DUP1 REVERT JUMPDEST PUSH2 0x2541 DUP5 PUSH2 0x215A JUMP JUMPDEST SWAP3 POP PUSH1 0x20 DUP5 ADD CALLDATALOAD PUSH1 0x1 PUSH1 0x1 PUSH1 0x40 SHL SUB DUP2 GT ISZERO PUSH2 0x255C JUMPI PUSH1 0x0 DUP1 REVERT JUMPDEST PUSH2 0x2568 DUP7 DUP3 DUP8 ADD PUSH2 0x206E JUMP JUMPDEST SWAP3 POP POP PUSH1 0x40 DUP5 ADD CALLDATALOAD PUSH2 0x2579 DUP2 PUSH2 0x246F JUMP JUMPDEST DUP1 SWAP2 POP POP SWAP3 POP SWAP3 POP SWAP3 JUMP JUMPDEST PUSH1 0x20 DUP1 DUP3 MSTORE PUSH1 0x14 SWAP1 DUP3 ADD MSTORE PUSH20 0x125B9D985B1A59081C995DD85C990818DBDD5B9D PUSH1 0x62 SHL PUSH1 0x40 DUP3 ADD MSTORE PUSH1 0x60 ADD SWAP1 JUMP JUMPDEST PUSH4 0x4E487B71 PUSH1 0xE0 SHL PUSH1 0x0 MSTORE PUSH1 0x32 PUSH1 0x4 MSTORE PUSH1 0x24 PUSH1 0x0 REVERT JUMPDEST PUSH4 0x4E487B71 PUSH1 0xE0 SHL PUSH1 0x0 MSTORE PUSH1 0x11 PUSH1 0x4 MSTORE PUSH1 0x24 PUSH1 0x0 REVERT JUMPDEST DUP1 DUP3 ADD DUP1 DUP3 GT ISZERO PUSH2 0x91E JUMPI PUSH2 0x91E PUSH2 0x25C8 JUMP JUMPDEST PUSH1 0x0 PUSH1 0x1 DUP3 ADD PUSH2 0x2603 JUMPI PUSH2 0x2603 PUSH2 0x25C8 JUMP JUMPDEST POP PUSH1 0x1 ADD SWAP1 JUMP JUMPDEST PUSH1 0x20 DUP1 DUP3 MSTORE PUSH1 0x11 SWAP1 DUP3 ADD MSTORE PUSH17 0x5061636B6574206E6F7420616374697665 PUSH1 0x78 SHL PUSH1 0x40 DUP3 ADD MSTORE PUSH1 0x60 ADD SWAP1 JUMP JUMPDEST PUSH1 0x20 DUP1 DUP3 MSTORE PUSH1 0x9 SWAP1 DUP3 ADD MSTORE PUSH9 0x2737BA1037BBB732B9 PUSH1 0xB9 SHL PUSH1 0x40 DUP3 ADD MSTORE PUSH1 0x60 ADD SWAP1 JUMP JUMPDEST PUSH1 0x0 PUSH1 0x20 DUP3 DUP5 SUB SLT ISZERO PUSH2 0x266A JUMPI PUSH1 0x0 DUP1 REVERT JUMPDEST DUP2 MLOAD PUSH2 0x2358 DUP2 PUSH2 0x246F JUMP JUMPDEST PUSH1 0x0 PUSH1 0x20 DUP3 DUP5 SUB SLT ISZERO PUSH2 0x2687 JUMPI PUSH1 0x0 DUP1 REVERT JUMPDEST POP MLOAD SWAP2 SWAP1 POP JUMP JUMPDEST DUP2 DUP2 SUB DUP2 DUP2 GT ISZERO PUSH2 0x91E JUMPI PUSH2 0x91E PUSH2 0x25C8 JUMP JUMPDEST DUP3 DUP2 MSTORE PUSH1 0x40 DUP2 ADD PUSH2 0x26B1 DUP4 PUSH2 0x23B9 JUMP JUMPDEST DUP3 PUSH1 0x20 DUP4 ADD MSTORE SWAP4 SWAP3 POP POP POP JUMP JUMPDEST PUSH1 0x0 DUP3 PUSH2 0x26DB JUMPI PUSH4 0x4E487B71 PUSH1 0xE0 SHL PUSH1 0x0 MSTORE PUSH1 0x12 PUSH1 0x4 MSTORE PUSH1 0x24 PUSH1 0x0 REVERT JUMPDEST POP MOD SWAP1 JUMP INVALID LOG2 PUSH5 0x6970667358 0x22 SLT KECCAK256 INVALID SWAP11 INVALID 0xA6 PUSH29 0xB26D3AE3F0BF077499CE13C803992150D5E4C6724337E65519C06A6473 PUSH16 0x6C634300081400330000000000000000 "},"gasEstimates":{"creation":{"codeDepositCost":"2001200","executionCost":"infinite","totalCost":"infinite"},"external":{"authorizedCreators(address)":"2598","callbackGasLimit()":"2421","cancelExpiredPacket(uint256)":"infinite","commitForPacket(uint256,bytes32)":"80603","commitRevealData(uint256)":"8916","commitRevealWindow()":"2364","createETHPacket(uint256,uint256[])":"infinite","createMixedPacket(uint8[],uint256[],address[],uint256[])":"infinite","createTokenPacket(address,uint256[],bool)":"infinite","defaultExpiryTime()":"2341","emergencyWithdraw()":"infinite","fulfillRandomWords(uint256,uint256[])":"infinite","getPacket(uint256)":"13379","getUserPackets(address)":"infinite","keyHash()":"2406","nextPacketId()":"2363","openPacket(uint256)":"infinite","openPacketWithVRF(uint256)":"infinite","owner()":"2427","packets(uint256)":"15580","requestConfirmations()":"2375","revealAndOpen(uint256,uint256,uint256)":"infinite","setAuthorizedCreator(address,bool)":"26907","setDefaultExpiryTime(uint256)":"24532","setVRFParameters(bytes32,uint64,uint16,uint32)":"49079","subscriptionId()":"2373","userPackets(address,uint256)":"4789","vrfCoordinator()":"2426","vrfRequestToPacket(uint256)":"2484"},"internal":{"_createPacket(uint256,enum RandomPacket.RewardType[] memory,uint256[] memory,address[] memory,uint256[] memory,enum RandomPacket.RandomnessSource)":"infinite","_distributeReward(uint256,uint256,address)":"infinite","_generateBlockHashRandom(uint256)":"infinite"}},"methodIdentifiers":{"authorizedCreators(address)":"c695502a","callbackGasLimit()":"24f74697","cancelExpiredPacket(uint256)":"ed4c167b","commitForPacket(uint256,bytes32)":"2c606568","commitRevealData(uint256)":"6636a448","commitRevealWindow()":"1aefa1b6","createETHPacket(uint256,uint256[])":"2864f57b","createMixedPacket(uint8[],uint256[],address[],uint256[])":"3f1a4c8c","createTokenPacket(address,uint256[],bool)":"f32c51b1","defaultExpiryTime()":"26947a14","emergencyWithdraw()":"db2e21bc","fulfillRandomWords(uint256,uint256[])":"38ba4614","getPacket(uint256)":"a59455dc","getUserPackets(address)":"a2600b1c","keyHash()":"61728f39","nextPacketId()":"6917d78c","openPacket(uint256)":"2cb1f024","openPacketWithVRF(uint256)":"5ca6fcea","owner()":"8da5cb5b","packets(uint256)":"d0a9e0c0","requestConfirmations()":"b0fb162f","revealAndOpen(uint256,uint256,uint256)":"9d570502","setAuthorizedCreator(address,bool)":"e1434f4e","setDefaultExpiryTime(uint256)":"35b69ed5","setVRFParameters(bytes32,uint64,uint16,uint32)":"f29d04ab","subscriptionId()":"09c1ba2e","userPackets(address,uint256)":"390b5786","vrfCoordinator()":"a3e56fa8","vrfRequestToPacket(uint256)":"35ad95b9"}},"storageLayout":{"storage":[{"astId":146,"contract":"contracts/RandomPacket.sol:RandomPacket","label":"packets","offset":0,"slot":"0","type":"t_mapping(t_uint256,t_struct(Packet)132_storage)"},{"astId":151,"contract":"contracts/RandomPacket.sol:RandomPacket","label":"commitRevealData","offset":0,"slot":"1","type":"t_mapping(t_uint256,t_struct(CommitRevealData)141_storage)"},{"astId":155,"contract":"contracts/RandomPacket.sol:RandomPacket","label":"vrfRequestToPacket","offset":0,"slot":"2","type":"t_mapping(t_uint256,t_uint256)"},{"astId":160,"contract":"contracts/RandomPacket.sol:RandomPacket","label":"userPackets","offset":0,"slot":"3","type":"t_mapping(t_address,t_array(t_uint256)dyn_storage)"},{"astId":163,"contract":"contracts/RandomPacket.sol:RandomPacket","label":"nextPacketId","offset":0,"slot":"4","type":"t_uint256"},{"astId":166,"contract":"contracts/RandomPacket.sol:RandomPacket","label":"defaultExpiryTime","offset":0,"slot":"5","type":"t_uint256"},{"astId":169,"contract":"contracts/RandomPacket.sol:RandomPacket","label":"commitRevealWindow","offset":0,"slot":"6","type":"t_uint256"},{"astId":172,"contract":"contracts/RandomPacket.sol:RandomPacket","label":"vrfCoordinator","offset":0,"slot":"7","type":"t_contract(VRFCoordinatorV2Interface)45"},{"astId":174,"contract":"contracts/RandomPacket.sol:RandomPacket","label":"keyHash","offset":0,"slot":"8","type":"t_bytes32"},{"astId":176,"contract":"contracts/RandomPacket.sol:RandomPacket","label":"subscriptionId","offset":0,"slot":"9","type":"t_uint64"},{"astId":179,"contract":"contracts/RandomPacket.sol:RandomPacket","label":"requestConfirmations","offset":8,"slot":"9","type":"t_uint16"},{"astId":182,"contract":"contracts/RandomPacket.sol:RandomPacket","label":"callbackGasLimit","offset":10,"slot":"9","type":"t_uint32"},{"astId":184,"contract":"contracts/RandomPacket.sol:RandomPacket","label":"owner","offset":0,"slot":"10","type":"t_address"},{"astId":188,"contract":"contracts/RandomPacket.sol:RandomPacket","label":"authorizedCreators","offset":0,"slot":"11","type":"t_mapping(t_address,t_bool)"}],"types":{"t_address":{"encoding":"inplace","label":"address","numberOfBytes":"20"},"t_array(t_address)dyn_storage":{"base":"t_address","encoding":"dynamic_array","label":"address[]","numberOfBytes":"32"},"t_array(t_enum(RewardType)96)dyn_storage":{"base":"t_enum(RewardType)96","encoding":"dynamic_array","label":"enum RandomPacket.RewardType[]","numberOfBytes":"32"},"t_array(t_uint256)dyn_storage":{"base":"t_uint256","encoding":"dynamic_array","label":"uint256[]","numberOfBytes":"32"},"t_bool":{"encoding":"inplace","label":"bool","numberOfBytes":"1"},"t_bytes32":{"encoding":"inplace","label":"bytes32","numberOfBytes":"32"},"t_contract(VRFCoordinatorV2Interface)45":{"encoding":"inplace","label":"contract VRFCoordinatorV2Interface","numberOfBytes":"20"},"t_enum(PacketStatus)91":{"encoding":"inplace","label":"enum RandomPacket.PacketStatus","numberOfBytes":"1"},"t_enum(RandomnessSource)100":{"encoding":"inplace","label":"enum RandomPacket.RandomnessSource","numberOfBytes":"1"},"t_enum(RewardType)96":{"encoding":"inplace","label":"enum RandomPacket.RewardType","numberOfBytes":"1"},"t_mapping(t_address,t_array(t_uint256)dyn_storage)":{"encoding":"mapping","key":"t_address","label":"mapping(address => uint256[])","numberOfBytes":"32","value":"t_array(t_uint256)dyn_storage"},"t_mapping(t_address,t_bool)":{"encoding":"mapping","key":"t_address","label":"mapping(address => bool)","numberOfBytes":"32","value":"t_bool"},"t_mapping(t_uint256,t_struct(CommitRevealData)141_storage)":{"encoding":"mapping","key":"t_uint256","label":"mapping(uint256 => struct RandomPacket.CommitRevealData)","numberOfBytes":"32","value":"t_struct(CommitRevealData)141_storage"},"t_mapping(t_uint256,t_struct(Packet)132_storage)":{"encoding":"mapping","key":"t_uint256","label":"mapping(uint256 => struct RandomPacket.Packet)","numberOfBytes":"32","value":"t_struct(Packet)132_storage"},"t_mapping(t_uint256,t_uint256)":{"encoding":"mapping","key":"t_uint256","label":"mapping(uint256 => uint256)","numberOfBytes":"32","value":"t_uint256"},"t_struct(CommitRevealData)141_storage":{"encoding":"inplace","label":"struct RandomPacket.CommitRevealData","members":[{"astId":134,"contract":"contracts/RandomPacket.sol:RandomPacket","label":"commitment","offset":0,"slot":"0","type":"t_bytes32"},{"astId":136,"contract":"contracts/RandomPacket.sol:RandomPacket","label":"revealDeadline","offset":0,"slot":"1","type":"t_uint256"},{"astId":138,"contract":"contracts/RandomPacket.sol:RandomPacket","label":"revealed","offset":0,"slot":"2","type":"t_bool"},{"astId":140,"contract":"contracts/RandomPacket.sol:RandomPacket","label":"nonce","offset":0,"slot":"3","type":"t_uint256"}],"numberOfBytes":"128"},"t_struct(Packet)132_storage":{"encoding":"inplace","label":"struct RandomPacket.Packet","members":[{"astId":102,"contract":"contracts/RandomPacket.sol:RandomPacket","label":"creator","offset":0,"slot":"0","type":"t_address"},{"astId":104,"contract":"contracts/RandomPacket.sol:RandomPacket","label":"totalValue","offset":0,"slot":"1","type":"t_uint256"},{"astId":106,"contract":"contracts/RandomPacket.sol:RandomPacket","label":"createdAt","offset":0,"slot":"2","type":"t_uint256"},{"astId":108,"contract":"contracts/RandomPacket.sol:RandomPacket","label":"expiresAt","offset":0,"slot":"3","type":"t_uint256"},{"astId":111,"contract":"contracts/RandomPacket.sol:RandomPacket","label":"status","offset":0,"slot":"4","type":"t_enum(PacketStatus)91"},{"astId":115,"contract":"contracts/RandomPacket.sol:RandomPacket","label":"rewardTypes","offset":0,"slot":"5","type":"t_array(t_enum(RewardType)96)dyn_storage"},{"astId":118,"contract":"contracts/RandomPacket.sol:RandomPacket","label":"rewardAmounts","offset":0,"slot":"6","type":"t_array(t_uint256)dyn_storage"},{"astId":121,"contract":"contracts/RandomPacket.sol:RandomPacket","label":"tokenAddresses","offset":0,"slot":"7","type":"t_array(t_address)dyn_storage"},{"astId":124,"contract":"contracts/RandomPacket.sol:RandomPacket","label":"nftIds","offset":0,"slot":"8","type":"t_array(t_uint256)dyn_storage"},{"astId":127,"contract":"contracts/RandomPacket.sol:RandomPacket","label":"randomnessSource","offset":0,"slot":"9","type":"t_enum(RandomnessSource)100"},{"astId":129,"contract":"contracts/RandomPacket.sol:RandomPacket","label":"requiresVRF","offset":1,"slot":"9","type":"t_bool"},{"astId":131,"contract":"contracts/RandomPacket.sol:RandomPacket","label":"vrfRequestId","offset":0,"slot":"10","type":"t_uint256"}],"numberOfBytes":"352"},"t_uint16":{"encoding":"inplace","label":"uint16","numberOfBytes":"2"},"t_uint256":{"encoding":"inplace","label":"uint256","numberOfBytes":"32"},"t_uint32":{"encoding":"inplace","label":"uint32","numberOfBytes":"4"},"t_uint64":{"encoding":"inplace","label":"uint64","numberOfBytes":"8"}}},"userdoc":{"kind":"user","methods":{},"version":1}}}}