{"contracts/SimpleDAO.sol":{"SimpleDAO":{"abi":[{"inputs":[],"stateMutability":"nonpayable","type":"constructor"},{"inputs":[],"name":"AlreadyExecuted","type":"error"},{"inputs":[],"name":"AlreadyMember","type":"error"},{"inputs":[],"name":"AlreadyVoted","type":"error"},{"inputs":[],"name":"NotMember","type":"error"},{"inputs":[],"name":"OnlyAdmin","type":"error"},{"inputs":[],"name":"ProposalFailed","type":"error"},{"inputs":[],"name":"ProposalNotFound","type":"error"},{"inputs":[],"name":"QuorumNotMet","type":"error"},{"inputs":[],"name":"TransferFailed","type":"error"},{"inputs":[],"name":"VotingEnded","type":"error"},{"inputs":[],"name":"VotingNotEnded","type":"error"},{"anonymous":false,"inputs":[{"indexed":true,"internalType":"address","name":"member","type":"address"},{"indexed":false,"internalType":"uint256","name":"votingPower","type":"uint256"}],"name":"MemberAdded","type":"event"},{"anonymous":false,"inputs":[{"indexed":true,"internalType":"address","name":"member","type":"address"}],"name":"MemberRemoved","type":"event"},{"anonymous":false,"inputs":[{"indexed":true,"internalType":"uint256","name":"proposalId","type":"uint256"},{"indexed":true,"internalType":"address","name":"proposer","type":"address"},{"indexed":false,"internalType":"string","name":"description","type":"string"}],"name":"ProposalCreated","type":"event"},{"anonymous":false,"inputs":[{"indexed":true,"internalType":"uint256","name":"proposalId","type":"uint256"},{"indexed":false,"internalType":"bool","name":"success","type":"bool"}],"name":"ProposalExecuted","type":"event"},{"anonymous":false,"inputs":[{"indexed":true,"internalType":"uint256","name":"proposalId","type":"uint256"},{"indexed":true,"internalType":"address","name":"voter","type":"address"},{"indexed":false,"internalType":"bool","name":"support","type":"bool"},{"indexed":false,"internalType":"uint256","name":"votingPower","type":"uint256"}],"name":"VoteCast","type":"event"},{"inputs":[],"name":"MIN_VOTING_POWER","outputs":[{"internalType":"uint256","name":"","type":"uint256"}],"stateMutability":"view","type":"function"},{"inputs":[],"name":"VOTING_PERIOD","outputs":[{"internalType":"uint256","name":"","type":"uint256"}],"stateMutability":"view","type":"function"},{"inputs":[{"internalType":"address","name":"_member","type":"address"},{"internalType":"uint256","name":"_votingPower","type":"uint256"}],"name":"addMember","outputs":[],"stateMutability":"nonpayable","type":"function"},{"inputs":[],"name":"admin","outputs":[{"internalType":"address","name":"","type":"address"}],"stateMutability":"view","type":"function"},{"inputs":[{"internalType":"string","name":"_description","type":"string"},{"internalType":"uint256","name":"_amount","type":"uint256"},{"internalType":"address payable","name":"_recipient","type":"address"}],"name":"createProposal","outputs":[{"internalType":"uint256","name":"","type":"uint256"}],"stateMutability":"nonpayable","type":"function"},{"inputs":[],"name":"emergencyWithdraw","outputs":[],"stateMutability":"nonpayable","type":"function"},{"inputs":[{"internalType":"uint256","name":"_proposalId","type":"uint256"}],"name":"executeProposal","outputs":[],"stateMutability":"nonpayable","type":"function"},{"inputs":[],"name":"getBalance","outputs":[{"internalType":"uint256","name":"","type":"uint256"}],"stateMutability":"view","type":"function"},{"inputs":[{"internalType":"uint256","name":"_proposalId","type":"uint256"}],"name":"getProposal","outputs":[{"internalType":"uint256","name":"id","type":"uint256"},{"internalType":"address","name":"proposer","type":"address"},{"internalType":"string","name":"description","type":"string"},{"internalType":"uint256","name":"amount","type":"uint256"},{"internalType":"address","name":"recipient","type":"address"},{"internalType":"uint256","name":"votesFor","type":"uint256"},{"internalType":"uint256","name":"votesAgainst","type":"uint256"},{"internalType":"uint256","name":"startTime","type":"uint256"},{"internalType":"uint256","name":"endTime","type":"uint256"},{"internalType":"bool","name":"executed","type":"bool"},{"internalType":"bool","name":"isActive","type":"bool"}],"stateMutability":"view","type":"function"},{"inputs":[],"name":"getTotalVotingPower","outputs":[{"internalType":"uint256","name":"","type":"uint256"}],"stateMutability":"view","type":"function"},{"inputs":[{"internalType":"uint256","name":"_proposalId","type":"uint256"},{"internalType":"address","name":"_voter","type":"address"}],"name":"hasVoted","outputs":[{"internalType":"bool","name":"voted","type":"bool"},{"internalType":"bool","name":"choice","type":"bool"}],"stateMutability":"view","type":"function"},{"inputs":[],"name":"memberCount","outputs":[{"internalType":"uint256","name":"","type":"uint256"}],"stateMutability":"view","type":"function"},{"inputs":[{"internalType":"address","name":"","type":"address"}],"name":"members","outputs":[{"internalType":"bool","name":"isMember","type":"bool"},{"internalType":"uint256","name":"joinedAt","type":"uint256"},{"internalType":"uint256","name":"votingPower","type":"uint256"}],"stateMutability":"view","type":"function"},{"inputs":[],"name":"nextProposalId","outputs":[{"internalType":"uint256","name":"","type":"uint256"}],"stateMutability":"view","type":"function"},{"inputs":[{"internalType":"uint256","name":"","type":"uint256"}],"name":"proposals","outputs":[{"internalType":"uint256","name":"id","type":"uint256"},{"internalType":"address","name":"proposer","type":"address"},{"internalType":"string","name":"description","type":"string"},{"internalType":"uint256","name":"amount","type":"uint256"},{"internalType":"address payable","name":"recipient","type":"address"},{"internalType":"uint256","name":"votesFor","type":"uint256"},{"internalType":"uint256","name":"votesAgainst","type":"uint256"},{"internalType":"uint256","name":"startTime","type":"uint256"},{"internalType":"uint256","name":"endTime","type":"uint256"},{"internalType":"bool","name":"executed","type":"bool"},{"internalType":"bool","name":"exists","type":"bool"}],"stateMutability":"view","type":"function"},{"inputs":[],"name":"quorum","outputs":[{"internalType":"uint256","name":"","type":"uint256"}],"stateMutability":"view","type":"function"},{"inputs":[{"internalType":"address","name":"_member","type":"address"}],"name":"removeMember","outputs":[],"stateMutability":"nonpayable","type":"function"},{"inputs":[{"internalType":"uint256","name":"_quorum","type":"uint256"}],"name":"setQuorum","outputs":[],"stateMutability":"nonpayable","type":"function"},{"inputs":[{"internalType":"uint256","name":"_proposalId","type":"uint256"},{"internalType":"bool","name":"_support","type":"bool"}],"name":"vote","outputs":[],"stateMutability":"nonpayable","type":"function"},{"stateMutability":"payable","type":"receive"}],"devdoc":{"details":"A basic DAO contract with proposal creation, voting, and execution capabilities","kind":"dev","methods":{"addMember(address,uint256)":{"details":"Add a new member to the DAO (only admin can add members initially)"},"createProposal(string,uint256,address)":{"details":"Create a new proposal"},"emergencyWithdraw()":{"details":"Emergency withdraw (only admin) - for initial setup phase"},"executeProposal(uint256)":{"details":"Execute a proposal after voting period ends"},"getBalance()":{"details":"Get contract balance"},"getProposal(uint256)":{"details":"Get proposal details"},"getTotalVotingPower()":{"details":"Get total voting power of all members"},"hasVoted(uint256,address)":{"details":"Check if an address has voted on a proposal"},"removeMember(address)":{"details":"Remove a member from the DAO"},"setQuorum(uint256)":{"details":"Set quorum percentage (only admin)"},"vote(uint256,bool)":{"details":"Vote on a proposal"}},"title":"SimpleDAO","version":1},"evm":{"bytecode":{"linkReferences":{},"object":"60806040526001600255603360045534801561001a57600080fd5b5060058054336001600160a01b031990911681179091556040805160608101825260018082524260208084019182528385018381526000968752908390529385209251835460ff1916901515178355518282015591516002909101556003556112cf90819061008990396000f3fe6080604052600436106101185760003560e01c806343859632116100a0578063c1ba4e5911610064578063c1ba4e5914610354578063c7f758a814610374578063c9d27afe14610394578063db2e21bc146103b4578063f851a440146103c957600080fd5b806343859632146102785780636ac1e01f146102e8578063805a81421461030857806398041ea31461031d578063b1610d7e1461033d57600080fd5b806311acc1a7116100e757806311acc1a71461020457806311aee3801461022357806312065fe0146102395780631703a0181461024c5780632ab09d141461026257600080fd5b8063013cf08b1461012457806308ae4b0c146101645780630b1ca49a146101c25780630d61b519146101e457600080fd5b3661011f57005b600080fd5b34801561013057600080fd5b5061014461013f366004610e43565b610401565b60405161015b9b9a99989796959493929190610ea2565b60405180910390f35b34801561017057600080fd5b506101a561017f366004610f2c565b600160208190526000918252604090912080549181015460029091015460ff9092169183565b60408051931515845260208401929092529082015260600161015b565b3480156101ce57600080fd5b506101e26101dd366004610f2c565b6104f8565b005b3480156101f057600080fd5b506101e26101ff366004610e43565b6105d4565b34801561021057600080fd5b506003545b60405190815260200161015b565b34801561022f57600080fd5b5061021560035481565b34801561024557600080fd5b5047610215565b34801561025857600080fd5b5061021560045481565b34801561026e57600080fd5b5061021560025481565b34801561028457600080fd5b506102d1610293366004610f50565b6000918252602082815260408084206001600160a01b03939093168452600a8301825280842054600b9093019091529091205460ff91821692911690565b60408051921515835290151560208301520161015b565b3480156102f457600080fd5b50610215610303366004610fa6565b6107df565b34801561031457600080fd5b50610215600181565b34801561032957600080fd5b506101e2610338366004611071565b6108f0565b34801561034957600080fd5b5061021562093a8081565b34801561036057600080fd5b506101e261036f366004610e43565b610a4f565b34801561038057600080fd5b5061014461038f366004610e43565b610adc565b3480156103a057600080fd5b506101e26103af36600461109d565b610c0b565b3480156103c057600080fd5b506101e2610da1565b3480156103d557600080fd5b506005546103e9906001600160a01b031681565b6040516001600160a01b03909116815260200161015b565b60006020819052908152604090208054600182015460028301805492936001600160a01b0390921692610433906110c7565b80601f016020809104026020016040519081016040528092919081815260200182805461045f906110c7565b80156104ac5780601f10610481576101008083540402835291602001916104ac565b820191906000526020600020905b81548152906001019060200180831161048f57829003601f168201915b50505050600383015460048401546005850154600686015460078701546008880154600990980154969794966001600160a01b0390941695509193909260ff808216916101009004168b565b6005546001600160a01b0316331461052357604051634755657960e01b815260040160405180910390fd5b6001600160a01b03811660009081526001602052604090205460ff1661055c5760405163148fe22160e11b815260040160405180910390fd5b6001600160a01b03811660009081526001602081905260408220805460ff19168155908101829055600201819055600380549161059883611117565b90915550506040516001600160a01b038216907f6e76fb4c77256006d9c38ec7d82b45a8c8f3c27b1d6766fffc42dfb8de68449290600090a250565b6000818152602081905260409020600901548190610100900460ff1661060d5760405163635e873760e01b815260040160405180910390fd5b60008281526020819052604090206008810154421161063f57604051633fc30bd160e11b815260040160405180910390fd5b600981015460ff161561066557604051630dc1019760e01b815260040160405180910390fd5b60008160060154826005015461067b919061112e565b9050600061068860035490565b9050600454816106989190611147565b6106a3836064611147565b10156106c257604051636bcf412560e11b815260040160405180910390fd5b82600601548360050154116106ea5760405163bb31b06360e01b815260040160405180910390fd5b60098301805460ff1916600190811790915560038401541580159061071b575060048401546001600160a01b031615155b1561079b578360030154471061079757600484015460038501546040516000926001600160a01b031691908381818185875af1925050503d806000811461077e576040519150601f19603f3d011682016040523d82523d6000602084013e610783565b606091505b505090508061079157600091505b5061079b565b5060005b857f948f4a9cd986f1118c3fbd459f7a22b23c0693e1ca3ef06a6a8be5aa7d39cc03826040516107cf911515815260200190565b60405180910390a2505050505050565b3360009081526001602052604081205460ff1661080f5760405163148fe22160e11b815260040160405180910390fd5b60028054600091826108208361115e565b9091555060008181526020819052604090208181556001810180546001600160a01b031916331790559091506002810161085a87826111c6565b50600381018590556004810180546001600160a01b0319166001600160a01b03861617905542600782018190556108959062093a809061112e565b600882015560098101805461ff001916610100179055604051339083907f7585f467599d0f008985f231af99293be388626ac16ca59505c2f8f88969cd63906108df908a90611286565b60405180910390a350949350505050565b6005546001600160a01b0316331461091b57604051634755657960e01b815260040160405180910390fd5b6001600160a01b03821660009081526001602052604090205460ff1615610955576040516340803a5f60e11b815260040160405180910390fd5b60018110156109a25760405162461bcd60e51b8152602060048201526014602482015273566f74696e6720706f77657220746f6f206c6f7760601b60448201526064015b60405180910390fd5b6040805160608101825260018082524260208084019182528385018681526001600160a01b0388166000908152918490529481209351845460ff191690151517845590519183019190915591516002909101556003805491610a038361115e565b9190505550816001600160a01b03167fede8eed4383e9241982619b94dd83e488b274cced0fd07b8c0092a393defd52f82604051610a4391815260200190565b60405180910390a25050565b6005546001600160a01b03163314610a7a57604051634755657960e01b815260040160405180910390fd5b600081118015610a8b575060648111155b610ad75760405162461bcd60e51b815260206004820152601960248201527f496e76616c69642071756f72756d2070657263656e74616765000000000000006044820152606401610999565b600455565b60008181526020819052604081208054600182015460038301546004840154600585015460068601546007870154600888015460098901548a996060998b998a998a998a998a998a998a998a996001600160a01b039788169760028b01979616949392919060ff16428210801590610b59575060098b015460ff16155b888054610b65906110c7565b80601f0160208091040260200160405190810160405280929190818152602001828054610b91906110c7565b8015610bde5780601f10610bb357610100808354040283529160200191610bde565b820191906000526020600020905b815481529060010190602001808311610bc157829003601f168201915b505050505098509b509b509b509b509b509b509b509b509b509b509b505091939597999b90929496989a50565b3360009081526001602052604090205460ff16610c3b5760405163148fe22160e11b815260040160405180910390fd5b6000828152602081905260409020600901548290610100900460ff16610c745760405163635e873760e01b815260040160405180910390fd5b60008381526020819052604090206008810154421115610ca757604051637a19ed0560e01b815260040160405180910390fd5b336000908152600a8201602052604090205460ff1615610cda57604051637c9a1cf960e01b815260040160405180910390fd5b336000908152600a820160209081526040808320805460ff199081166001908117909255600b860184528285208054891580159190931617905592529091206002015490610d415780826005016000828254610d36919061112e565b90915550610d5b9050565b80826006016000828254610d55919061112e565b90915550505b60408051851515815260208101839052339187917fcbdf6214089cba887ecbf35a0b6a734589959c9763342c756bb2a80ca2bc9f6e910160405180910390a35050505050565b6005546001600160a01b03163314610dcc57604051634755657960e01b815260040160405180910390fd5b6005546040516000916001600160a01b03169047908381818185875af1925050503d8060008114610e19576040519150601f19603f3d011682016040523d82523d6000602084013e610e1e565b606091505b5050905080610e40576040516312171d8360e31b815260040160405180910390fd5b50565b600060208284031215610e5557600080fd5b5035919050565b6000815180845260005b81811015610e8257602081850181015186830182015201610e66565b506000602082860101526020601f19601f83011685010191505092915050565b8b81526001600160a01b038b8116602083015261016060408301819052600091610ece8483018e610e5c565b606085019c909c529990991660808301525060a081019690965260c086019490945260e08501929092526101008401521515610120830152151561014090910152509392505050565b6001600160a01b0381168114610e4057600080fd5b600060208284031215610f3e57600080fd5b8135610f4981610f17565b9392505050565b60008060408385031215610f6357600080fd5b823591506020830135610f7581610f17565b809150509250929050565b634e487b7160e01b600052604160045260246000fd5b8035610fa181610f17565b919050565b600080600060608486031215610fbb57600080fd5b833567ffffffffffffffff80821115610fd357600080fd5b818601915086601f830112610fe757600080fd5b813581811115610ff957610ff9610f80565b604051601f8201601f19908116603f0116810190838211818310171561102157611021610f80565b8160405282815289602084870101111561103a57600080fd5b8260208601602083013760006020848301015280975050505050506020840135915061106860408501610f96565b90509250925092565b6000806040838503121561108457600080fd5b823561108f81610f17565b946020939093013593505050565b600080604083850312156110b057600080fd5b8235915060208301358015158114610f7557600080fd5b600181811c908216806110db57607f821691505b6020821081036110fb57634e487b7160e01b600052602260045260246000fd5b50919050565b634e487b7160e01b600052601160045260246000fd5b60008161112657611126611101565b506000190190565b8082018082111561114157611141611101565b92915050565b808202811582820484141761114157611141611101565b60006001820161117057611170611101565b5060010190565b601f8211156111c157600081815260208120601f850160051c8101602086101561119e5750805b601f850160051c820191505b818110156111bd578281556001016111aa565b5050505b505050565b815167ffffffffffffffff8111156111e0576111e0610f80565b6111f4816111ee84546110c7565b84611177565b602080601f83116001811461122957600084156112115750858301515b600019600386901b1c1916600185901b1785556111bd565b600085815260208120601f198616915b8281101561125857888601518255948401946001909101908401611239565b50858210156112765787850151600019600388901b60f8161c191681555b5050505050600190811b01905550565b602081526000610f496020830184610e5c56fea26469706673582212204e85744c0808b11001a850f5048303728f498eb6552633613b331568caa8d92564736f6c63430008140033","opcodes":"PUSH1 0x80 PUSH1 0x40 MSTORE PUSH1 0x1 PUSH1 0x2 SSTORE PUSH1 0x33 PUSH1 0x4 SSTORE CALLVALUE DUP1 ISZERO PUSH2 0x1A JUMPI PUSH1 0x0 DUP1 REVERT JUMPDEST POP PUSH1 0x5 DUP1 SLOAD CALLER PUSH1 0x1 PUSH1 0x1 PUSH1 0xA0 SHL SUB NOT SWAP1 SWAP2 AND DUP2 OR SWAP1 SWAP2 SSTORE PUSH1 0x40 DUP1 MLOAD PUSH1 0x60 DUP2 ADD DUP3 MSTORE PUSH1 0x1 DUP1 DUP3 MSTORE TIMESTAMP PUSH1 0x20 DUP1 DUP5 ADD SWAP2 DUP3 MSTORE DUP4 DUP6 ADD DUP4 DUP2 MSTORE PUSH1 0x0 SWAP7 DUP8 MSTORE SWAP1 DUP4 SWAP1 MSTORE SWAP4 DUP6 KECCAK256 SWAP3 MLOAD DUP4 SLOAD PUSH1 0xFF NOT AND SWAP1 ISZERO ISZERO OR DUP4 SSTORE MLOAD DUP3 DUP3 ADD SSTORE SWAP2 MLOAD PUSH1 0x2 SWAP1 SWAP2 ADD SSTORE PUSH1 0x3 SSTORE PUSH2 0x12CF SWAP1 DUP2 SWAP1 PUSH2 0x89 SWAP1 CODECOPY PUSH1 0x0 RETURN INVALID PUSH1 0x80 PUSH1 0x40 MSTORE PUSH1 0x4 CALLDATASIZE LT PUSH2 0x118 JUMPI PUSH1 0x0 CALLDATALOAD PUSH1 0xE0 SHR DUP1 PUSH4 0x43859632 GT PUSH2 0xA0 JUMPI DUP1 PUSH4 0xC1BA4E59 GT PUSH2 0x64 JUMPI DUP1 PUSH4 0xC1BA4E59 EQ PUSH2 0x354 JUMPI DUP1 PUSH4 0xC7F758A8 EQ PUSH2 0x374 JUMPI DUP1 PUSH4 0xC9D27AFE EQ PUSH2 0x394 JUMPI DUP1 PUSH4 0xDB2E21BC EQ PUSH2 0x3B4 JUMPI DUP1 PUSH4 0xF851A440 EQ PUSH2 0x3C9 JUMPI PUSH1 0x0 DUP1 REVERT JUMPDEST DUP1 PUSH4 0x43859632 EQ PUSH2 0x278 JUMPI DUP1 PUSH4 0x6AC1E01F EQ PUSH2 0x2E8 JUMPI DUP1 PUSH4 0x805A8142 EQ PUSH2 0x308 JUMPI DUP1 PUSH4 0x98041EA3 EQ PUSH2 0x31D JUMPI DUP1 PUSH4 0xB1610D7E EQ PUSH2 0x33D JUMPI PUSH1 0x0 DUP1 REVERT JUMPDEST DUP1 PUSH4 0x11ACC1A7 GT PUSH2 0xE7 JUMPI DUP1 PUSH4 0x11ACC1A7 EQ PUSH2 0x204 JUMPI DUP1 PUSH4 0x11AEE380 EQ PUSH2 0x223 JUMPI DUP1 PUSH4 0x12065FE0 EQ PUSH2 0x239 JUMPI DUP1 PUSH4 0x1703A018 EQ PUSH2 0x24C JUMPI DUP1 PUSH4 0x2AB09D14 EQ PUSH2 0x262 JUMPI PUSH1 0x0 DUP1 REVERT JUMPDEST DUP1 PUSH4 0x13CF08B EQ PUSH2 0x124 JUMPI DUP1 PUSH4 0x8AE4B0C EQ PUSH2 0x164 JUMPI DUP1 PUSH4 0xB1CA49A EQ PUSH2 0x1C2 JUMPI DUP1 PUSH4 0xD61B519 EQ PUSH2 0x1E4 JUMPI PUSH1 0x0 DUP1 REVERT JUMPDEST CALLDATASIZE PUSH2 0x11F JUMPI STOP JUMPDEST PUSH1 0x0 DUP1 REVERT JUMPDEST CALLVALUE DUP1 ISZERO PUSH2 0x130 JUMPI PUSH1 0x0 DUP1 REVERT JUMPDEST POP PUSH2 0x144 PUSH2 0x13F CALLDATASIZE PUSH1 0x4 PUSH2 0xE43 JUMP JUMPDEST PUSH2 0x401 JUMP JUMPDEST PUSH1 0x40 MLOAD PUSH2 0x15B SWAP12 SWAP11 SWAP10 SWAP9 SWAP8 SWAP7 SWAP6 SWAP5 SWAP4 SWAP3 SWAP2 SWAP1 PUSH2 0xEA2 JUMP JUMPDEST PUSH1 0x40 MLOAD DUP1 SWAP2 SUB SWAP1 RETURN JUMPDEST CALLVALUE DUP1 ISZERO PUSH2 0x170 JUMPI PUSH1 0x0 DUP1 REVERT JUMPDEST POP PUSH2 0x1A5 PUSH2 0x17F CALLDATASIZE PUSH1 0x4 PUSH2 0xF2C JUMP JUMPDEST PUSH1 0x1 PUSH1 0x20 DUP2 SWAP1 MSTORE PUSH1 0x0 SWAP2 DUP3 MSTORE PUSH1 0x40 SWAP1 SWAP2 KECCAK256 DUP1 SLOAD SWAP2 DUP2 ADD SLOAD PUSH1 0x2 SWAP1 SWAP2 ADD SLOAD PUSH1 0xFF SWAP1 SWAP3 AND SWAP2 DUP4 JUMP JUMPDEST PUSH1 0x40 DUP1 MLOAD SWAP4 ISZERO ISZERO DUP5 MSTORE PUSH1 0x20 DUP5 ADD SWAP3 SWAP1 SWAP3 MSTORE SWAP1 DUP3 ADD MSTORE PUSH1 0x60 ADD PUSH2 0x15B JUMP JUMPDEST CALLVALUE DUP1 ISZERO PUSH2 0x1CE JUMPI PUSH1 0x0 DUP1 REVERT JUMPDEST POP PUSH2 0x1E2 PUSH2 0x1DD CALLDATASIZE PUSH1 0x4 PUSH2 0xF2C JUMP JUMPDEST PUSH2 0x4F8 JUMP JUMPDEST STOP JUMPDEST CALLVALUE DUP1 ISZERO PUSH2 0x1F0 JUMPI PUSH1 0x0 DUP1 REVERT JUMPDEST POP PUSH2 0x1E2 PUSH2 0x1FF CALLDATASIZE PUSH1 0x4 PUSH2 0xE43 JUMP JUMPDEST PUSH2 0x5D4 JUMP JUMPDEST CALLVALUE DUP1 ISZERO PUSH2 0x210 JUMPI PUSH1 0x0 DUP1 REVERT JUMPDEST POP PUSH1 0x3 SLOAD JUMPDEST PUSH1 0x40 MLOAD SWAP1 DUP2 MSTORE PUSH1 0x20 ADD PUSH2 0x15B JUMP JUMPDEST CALLVALUE DUP1 ISZERO PUSH2 0x22F JUMPI PUSH1 0x0 DUP1 REVERT JUMPDEST POP PUSH2 0x215 PUSH1 0x3 SLOAD DUP2 JUMP JUMPDEST CALLVALUE DUP1 ISZERO PUSH2 0x245 JUMPI PUSH1 0x0 DUP1 REVERT JUMPDEST POP SELFBALANCE PUSH2 0x215 JUMP JUMPDEST CALLVALUE DUP1 ISZERO PUSH2 0x258 JUMPI PUSH1 0x0 DUP1 REVERT JUMPDEST POP PUSH2 0x215 PUSH1 0x4 SLOAD DUP2 JUMP JUMPDEST CALLVALUE DUP1 ISZERO PUSH2 0x26E JUMPI PUSH1 0x0 DUP1 REVERT JUMPDEST POP PUSH2 0x215 PUSH1 0x2 SLOAD DUP2 JUMP JUMPDEST CALLVALUE DUP1 ISZERO PUSH2 0x284 JUMPI PUSH1 0x0 DUP1 REVERT JUMPDEST POP PUSH2 0x2D1 PUSH2 0x293 CALLDATASIZE PUSH1 0x4 PUSH2 0xF50 JUMP JUMPDEST PUSH1 0x0 SWAP2 DUP3 MSTORE PUSH1 0x20 DUP3 DUP2 MSTORE PUSH1 0x40 DUP1 DUP5 KECCAK256 PUSH1 0x1 PUSH1 0x1 PUSH1 0xA0 SHL SUB SWAP4 SWAP1 SWAP4 AND DUP5 MSTORE PUSH1 0xA DUP4 ADD DUP3 MSTORE DUP1 DUP5 KECCAK256 SLOAD PUSH1 0xB SWAP1 SWAP4 ADD SWAP1 SWAP2 MSTORE SWAP1 SWAP2 KECCAK256 SLOAD PUSH1 0xFF SWAP2 DUP3 AND SWAP3 SWAP2 AND SWAP1 JUMP JUMPDEST PUSH1 0x40 DUP1 MLOAD SWAP3 ISZERO ISZERO DUP4 MSTORE SWAP1 ISZERO ISZERO PUSH1 0x20 DUP4 ADD MSTORE ADD PUSH2 0x15B JUMP JUMPDEST CALLVALUE DUP1 ISZERO PUSH2 0x2F4 JUMPI PUSH1 0x0 DUP1 REVERT JUMPDEST POP PUSH2 0x215 PUSH2 0x303 CALLDATASIZE PUSH1 0x4 PUSH2 0xFA6 JUMP JUMPDEST PUSH2 0x7DF JUMP JUMPDEST CALLVALUE DUP1 ISZERO PUSH2 0x314 JUMPI PUSH1 0x0 DUP1 REVERT JUMPDEST POP PUSH2 0x215 PUSH1 0x1 DUP2 JUMP JUMPDEST CALLVALUE DUP1 ISZERO PUSH2 0x329 JUMPI PUSH1 0x0 DUP1 REVERT JUMPDEST POP PUSH2 0x1E2 PUSH2 0x338 CALLDATASIZE PUSH1 0x4 PUSH2 0x1071 JUMP JUMPDEST PUSH2 0x8F0 JUMP JUMPDEST CALLVALUE DUP1 ISZERO PUSH2 0x349 JUMPI PUSH1 0x0 DUP1 REVERT JUMPDEST POP PUSH2 0x215 PUSH3 0x93A80 DUP2 JUMP JUMPDEST CALLVALUE DUP1 ISZERO PUSH2 0x360 JUMPI PUSH1 0x0 DUP1 REVERT JUMPDEST POP PUSH2 0x1E2 PUSH2 0x36F CALLDATASIZE PUSH1 0x4 PUSH2 0xE43 JUMP JUMPDEST PUSH2 0xA4F JUMP JUMPDEST CALLVALUE DUP1 ISZERO PUSH2 0x380 JUMPI PUSH1 0x0 DUP1 REVERT JUMPDEST POP PUSH2 0x144 PUSH2 0x38F CALLDATASIZE PUSH1 0x4 PUSH2 0xE43 JUMP JUMPDEST PUSH2 0xADC JUMP JUMPDEST CALLVALUE DUP1 ISZERO PUSH2 0x3A0 JUMPI PUSH1 0x0 DUP1 REVERT JUMPDEST POP PUSH2 0x1E2 PUSH2 0x3AF CALLDATASIZE PUSH1 0x4 PUSH2 0x109D JUMP JUMPDEST PUSH2 0xC0B JUMP JUMPDEST CALLVALUE DUP1 ISZERO PUSH2 0x3C0 JUMPI PUSH1 0x0 DUP1 REVERT JUMPDEST POP PUSH2 0x1E2 PUSH2 0xDA1 JUMP JUMPDEST CALLVALUE DUP1 ISZERO PUSH2 0x3D5 JUMPI PUSH1 0x0 DUP1 REVERT JUMPDEST POP PUSH1 0x5 SLOAD PUSH2 0x3E9 SWAP1 PUSH1 0x1 PUSH1 0x1 PUSH1 0xA0 SHL SUB AND DUP2 JUMP JUMPDEST PUSH1 0x40 MLOAD PUSH1 0x1 PUSH1 0x1 PUSH1 0xA0 SHL SUB SWAP1 SWAP2 AND DUP2 MSTORE PUSH1 0x20 ADD PUSH2 0x15B JUMP JUMPDEST PUSH1 0x0 PUSH1 0x20 DUP2 SWAP1 MSTORE SWAP1 DUP2 MSTORE PUSH1 0x40 SWAP1 KECCAK256 DUP1 SLOAD PUSH1 0x1 DUP3 ADD SLOAD PUSH1 0x2 DUP4 ADD DUP1 SLOAD SWAP3 SWAP4 PUSH1 0x1 PUSH1 0x1 PUSH1 0xA0 SHL SUB SWAP1 SWAP3 AND SWAP3 PUSH2 0x433 SWAP1 PUSH2 0x10C7 JUMP JUMPDEST DUP1 PUSH1 0x1F ADD PUSH1 0x20 DUP1 SWAP2 DIV MUL PUSH1 0x20 ADD PUSH1 0x40 MLOAD SWAP1 DUP2 ADD PUSH1 0x40 MSTORE DUP1 SWAP3 SWAP2 SWAP1 DUP2 DUP2 MSTORE PUSH1 0x20 ADD DUP3 DUP1 SLOAD PUSH2 0x45F SWAP1 PUSH2 0x10C7 JUMP JUMPDEST DUP1 ISZERO PUSH2 0x4AC JUMPI DUP1 PUSH1 0x1F LT PUSH2 0x481 JUMPI PUSH2 0x100 DUP1 DUP4 SLOAD DIV MUL DUP4 MSTORE SWAP2 PUSH1 0x20 ADD SWAP2 PUSH2 0x4AC JUMP JUMPDEST DUP3 ADD SWAP2 SWAP1 PUSH1 0x0 MSTORE PUSH1 0x20 PUSH1 0x0 KECCAK256 SWAP1 JUMPDEST DUP2 SLOAD DUP2 MSTORE SWAP1 PUSH1 0x1 ADD SWAP1 PUSH1 0x20 ADD DUP1 DUP4 GT PUSH2 0x48F JUMPI DUP3 SWAP1 SUB PUSH1 0x1F AND DUP3 ADD SWAP2 JUMPDEST POP POP POP POP PUSH1 0x3 DUP4 ADD SLOAD PUSH1 0x4 DUP5 ADD SLOAD PUSH1 0x5 DUP6 ADD SLOAD PUSH1 0x6 DUP7 ADD SLOAD PUSH1 0x7 DUP8 ADD SLOAD PUSH1 0x8 DUP9 ADD SLOAD PUSH1 0x9 SWAP1 SWAP9 ADD SLOAD SWAP7 SWAP8 SWAP5 SWAP7 PUSH1 0x1 PUSH1 0x1 PUSH1 0xA0 SHL SUB SWAP1 SWAP5 AND SWAP6 POP SWAP2 SWAP4 SWAP1 SWAP3 PUSH1 0xFF DUP1 DUP3 AND SWAP2 PUSH2 0x100 SWAP1 DIV AND DUP12 JUMP JUMPDEST PUSH1 0x5 SLOAD PUSH1 0x1 PUSH1 0x1 PUSH1 0xA0 SHL SUB AND CALLER EQ PUSH2 0x523 JUMPI PUSH1 0x40 MLOAD PUSH4 0x47556579 PUSH1 0xE0 SHL DUP2 MSTORE PUSH1 0x4 ADD PUSH1 0x40 MLOAD DUP1 SWAP2 SUB SWAP1 REVERT JUMPDEST PUSH1 0x1 PUSH1 0x1 PUSH1 0xA0 SHL SUB DUP2 AND PUSH1 0x0 SWAP1 DUP2 MSTORE PUSH1 0x1 PUSH1 0x20 MSTORE PUSH1 0x40 SWAP1 KECCAK256 SLOAD PUSH1 0xFF AND PUSH2 0x55C JUMPI PUSH1 0x40 MLOAD PUSH4 0x148FE221 PUSH1 0xE1 SHL DUP2 MSTORE PUSH1 0x4 ADD PUSH1 0x40 MLOAD DUP1 SWAP2 SUB SWAP1 REVERT JUMPDEST PUSH1 0x1 PUSH1 0x1 PUSH1 0xA0 SHL SUB DUP2 AND PUSH1 0x0 SWAP1 DUP2 MSTORE PUSH1 0x1 PUSH1 0x20 DUP2 SWAP1 MSTORE PUSH1 0x40 DUP3 KECCAK256 DUP1 SLOAD PUSH1 0xFF NOT AND DUP2 SSTORE SWAP1 DUP2 ADD DUP3 SWAP1 SSTORE PUSH1 0x2 ADD DUP2 SWAP1 SSTORE PUSH1 0x3 DUP1 SLOAD SWAP2 PUSH2 0x598 DUP4 PUSH2 0x1117 JUMP JUMPDEST SWAP1 SWAP2 SSTORE POP POP PUSH1 0x40 MLOAD PUSH1 0x1 PUSH1 0x1 PUSH1 0xA0 SHL SUB DUP3 AND SWAP1 PUSH32 0x6E76FB4C77256006D9C38EC7D82B45A8C8F3C27B1D6766FFFC42DFB8DE684492 SWAP1 PUSH1 0x0 SWAP1 LOG2 POP JUMP JUMPDEST PUSH1 0x0 DUP2 DUP2 MSTORE PUSH1 0x20 DUP2 SWAP1 MSTORE PUSH1 0x40 SWAP1 KECCAK256 PUSH1 0x9 ADD SLOAD DUP2 SWAP1 PUSH2 0x100 SWAP1 DIV PUSH1 0xFF AND PUSH2 0x60D JUMPI PUSH1 0x40 MLOAD PUSH4 0x635E8737 PUSH1 0xE0 SHL DUP2 MSTORE PUSH1 0x4 ADD PUSH1 0x40 MLOAD DUP1 SWAP2 SUB SWAP1 REVERT JUMPDEST PUSH1 0x0 DUP3 DUP2 MSTORE PUSH1 0x20 DUP2 SWAP1 MSTORE PUSH1 0x40 SWAP1 KECCAK256 PUSH1 0x8 DUP2 ADD SLOAD TIMESTAMP GT PUSH2 0x63F JUMPI PUSH1 0x40 MLOAD PUSH4 0x3FC30BD1 PUSH1 0xE1 SHL DUP2 MSTORE PUSH1 0x4 ADD PUSH1 0x40 MLOAD DUP1 SWAP2 SUB SWAP1 REVERT JUMPDEST PUSH1 0x9 DUP2 ADD SLOAD PUSH1 0xFF AND ISZERO PUSH2 0x665 JUMPI PUSH1 0x40 MLOAD PUSH4 0xDC10197 PUSH1 0xE0 SHL DUP2 MSTORE PUSH1 0x4 ADD PUSH1 0x40 MLOAD DUP1 SWAP2 SUB SWAP1 REVERT JUMPDEST PUSH1 0x0 DUP2 PUSH1 0x6 ADD SLOAD DUP3 PUSH1 0x5 ADD SLOAD PUSH2 0x67B SWAP2 SWAP1 PUSH2 0x112E JUMP JUMPDEST SWAP1 POP PUSH1 0x0 PUSH2 0x688 PUSH1 0x3 SLOAD SWAP1 JUMP JUMPDEST SWAP1 POP PUSH1 0x4 SLOAD DUP2 PUSH2 0x698 SWAP2 SWAP1 PUSH2 0x1147 JUMP JUMPDEST PUSH2 0x6A3 DUP4 PUSH1 0x64 PUSH2 0x1147 JUMP JUMPDEST LT ISZERO PUSH2 0x6C2 JUMPI PUSH1 0x40 MLOAD PUSH4 0x6BCF4125 PUSH1 0xE1 SHL DUP2 MSTORE PUSH1 0x4 ADD PUSH1 0x40 MLOAD DUP1 SWAP2 SUB SWAP1 REVERT JUMPDEST DUP3 PUSH1 0x6 ADD SLOAD DUP4 PUSH1 0x5 ADD SLOAD GT PUSH2 0x6EA JUMPI PUSH1 0x40 MLOAD PUSH4 0xBB31B063 PUSH1 0xE0 SHL DUP2 MSTORE PUSH1 0x4 ADD PUSH1 0x40 MLOAD DUP1 SWAP2 SUB SWAP1 REVERT JUMPDEST PUSH1 0x9 DUP4 ADD DUP1 SLOAD PUSH1 0xFF NOT AND PUSH1 0x1 SWAP1 DUP2 OR SWAP1 SWAP2 SSTORE PUSH1 0x3 DUP5 ADD SLOAD ISZERO DUP1 ISZERO SWAP1 PUSH2 0x71B JUMPI POP PUSH1 0x4 DUP5 ADD SLOAD PUSH1 0x1 PUSH1 0x1 PUSH1 0xA0 SHL SUB AND ISZERO ISZERO JUMPDEST ISZERO PUSH2 0x79B JUMPI DUP4 PUSH1 0x3 ADD SLOAD SELFBALANCE LT PUSH2 0x797 JUMPI PUSH1 0x4 DUP5 ADD SLOAD PUSH1 0x3 DUP6 ADD SLOAD PUSH1 0x40 MLOAD PUSH1 0x0 SWAP3 PUSH1 0x1 PUSH1 0x1 PUSH1 0xA0 SHL SUB AND SWAP2 SWAP1 DUP4 DUP2 DUP2 DUP2 DUP6 DUP8 GAS CALL SWAP3 POP POP POP RETURNDATASIZE DUP1 PUSH1 0x0 DUP2 EQ PUSH2 0x77E JUMPI PUSH1 0x40 MLOAD SWAP2 POP PUSH1 0x1F NOT PUSH1 0x3F RETURNDATASIZE ADD AND DUP3 ADD PUSH1 0x40 MSTORE RETURNDATASIZE DUP3 MSTORE RETURNDATASIZE PUSH1 0x0 PUSH1 0x20 DUP5 ADD RETURNDATACOPY PUSH2 0x783 JUMP JUMPDEST PUSH1 0x60 SWAP2 POP JUMPDEST POP POP SWAP1 POP DUP1 PUSH2 0x791 JUMPI PUSH1 0x0 SWAP2 POP JUMPDEST POP PUSH2 0x79B JUMP JUMPDEST POP PUSH1 0x0 JUMPDEST DUP6 PUSH32 0x948F4A9CD986F1118C3FBD459F7A22B23C0693E1CA3EF06A6A8BE5AA7D39CC03 DUP3 PUSH1 0x40 MLOAD PUSH2 0x7CF SWAP2 ISZERO ISZERO DUP2 MSTORE PUSH1 0x20 ADD SWAP1 JUMP JUMPDEST PUSH1 0x40 MLOAD DUP1 SWAP2 SUB SWAP1 LOG2 POP POP POP POP POP POP JUMP JUMPDEST CALLER PUSH1 0x0 SWAP1 DUP2 MSTORE PUSH1 0x1 PUSH1 0x20 MSTORE PUSH1 0x40 DUP2 KECCAK256 SLOAD PUSH1 0xFF AND PUSH2 0x80F JUMPI PUSH1 0x40 MLOAD PUSH4 0x148FE221 PUSH1 0xE1 SHL DUP2 MSTORE PUSH1 0x4 ADD PUSH1 0x40 MLOAD DUP1 SWAP2 SUB SWAP1 REVERT JUMPDEST PUSH1 0x2 DUP1 SLOAD PUSH1 0x0 SWAP2 DUP3 PUSH2 0x820 DUP4 PUSH2 0x115E JUMP JUMPDEST SWAP1 SWAP2 SSTORE POP PUSH1 0x0 DUP2 DUP2 MSTORE PUSH1 0x20 DUP2 SWAP1 MSTORE PUSH1 0x40 SWAP1 KECCAK256 DUP2 DUP2 SSTORE PUSH1 0x1 DUP2 ADD DUP1 SLOAD PUSH1 0x1 PUSH1 0x1 PUSH1 0xA0 SHL SUB NOT AND CALLER OR SWAP1 SSTORE SWAP1 SWAP2 POP PUSH1 0x2 DUP2 ADD PUSH2 0x85A DUP8 DUP3 PUSH2 0x11C6 JUMP JUMPDEST POP PUSH1 0x3 DUP2 ADD DUP6 SWAP1 SSTORE PUSH1 0x4 DUP2 ADD DUP1 SLOAD PUSH1 0x1 PUSH1 0x1 PUSH1 0xA0 SHL SUB NOT AND PUSH1 0x1 PUSH1 0x1 PUSH1 0xA0 SHL SUB DUP7 AND OR SWAP1 SSTORE TIMESTAMP PUSH1 0x7 DUP3 ADD DUP2 SWAP1 SSTORE PUSH2 0x895 SWAP1 PUSH3 0x93A80 SWAP1 PUSH2 0x112E JUMP JUMPDEST PUSH1 0x8 DUP3 ADD SSTORE PUSH1 0x9 DUP2 ADD DUP1 SLOAD PUSH2 0xFF00 NOT AND PUSH2 0x100 OR SWAP1 SSTORE PUSH1 0x40 MLOAD CALLER SWAP1 DUP4 SWAP1 PUSH32 0x7585F467599D0F008985F231AF99293BE388626AC16CA59505C2F8F88969CD63 SWAP1 PUSH2 0x8DF SWAP1 DUP11 SWAP1 PUSH2 0x1286 JUMP JUMPDEST PUSH1 0x40 MLOAD DUP1 SWAP2 SUB SWAP1 LOG3 POP SWAP5 SWAP4 POP POP POP POP JUMP JUMPDEST PUSH1 0x5 SLOAD PUSH1 0x1 PUSH1 0x1 PUSH1 0xA0 SHL SUB AND CALLER EQ PUSH2 0x91B JUMPI PUSH1 0x40 MLOAD PUSH4 0x47556579 PUSH1 0xE0 SHL DUP2 MSTORE PUSH1 0x4 ADD PUSH1 0x40 MLOAD DUP1 SWAP2 SUB SWAP1 REVERT JUMPDEST PUSH1 0x1 PUSH1 0x1 PUSH1 0xA0 SHL SUB DUP3 AND PUSH1 0x0 SWAP1 DUP2 MSTORE PUSH1 0x1 PUSH1 0x20 MSTORE PUSH1 0x40 SWAP1 KECCAK256 SLOAD PUSH1 0xFF AND ISZERO PUSH2 0x955 JUMPI PUSH1 0x40 MLOAD PUSH4 0x40803A5F PUSH1 0xE1 SHL DUP2 MSTORE PUSH1 0x4 ADD PUSH1 0x40 MLOAD DUP1 SWAP2 SUB SWAP1 REVERT JUMPDEST PUSH1 0x1 DUP2 LT ISZERO PUSH2 0x9A2 JUMPI PUSH1 0x40 MLOAD PUSH3 0x461BCD PUSH1 0xE5 SHL DUP2 MSTORE PUSH1 0x20 PUSH1 0x4 DUP3 ADD MSTORE PUSH1 0x14 PUSH1 0x24 DUP3 ADD MSTORE PUSH20 0x566F74696E6720706F77657220746F6F206C6F77 PUSH1 0x60 SHL PUSH1 0x44 DUP3 ADD MSTORE PUSH1 0x64 ADD JUMPDEST PUSH1 0x40 MLOAD DUP1 SWAP2 SUB SWAP1 REVERT JUMPDEST PUSH1 0x40 DUP1 MLOAD PUSH1 0x60 DUP2 ADD DUP3 MSTORE PUSH1 0x1 DUP1 DUP3 MSTORE TIMESTAMP PUSH1 0x20 DUP1 DUP5 ADD SWAP2 DUP3 MSTORE DUP4 DUP6 ADD DUP7 DUP2 MSTORE PUSH1 0x1 PUSH1 0x1 PUSH1 0xA0 SHL SUB DUP9 AND PUSH1 0x0 SWAP1 DUP2 MSTORE SWAP2 DUP5 SWAP1 MSTORE SWAP5 DUP2 KECCAK256 SWAP4 MLOAD DUP5 SLOAD PUSH1 0xFF NOT AND SWAP1 ISZERO ISZERO OR DUP5 SSTORE SWAP1 MLOAD SWAP2 DUP4 ADD SWAP2 SWAP1 SWAP2 SSTORE SWAP2 MLOAD PUSH1 0x2 SWAP1 SWAP2 ADD SSTORE PUSH1 0x3 DUP1 SLOAD SWAP2 PUSH2 0xA03 DUP4 PUSH2 0x115E JUMP JUMPDEST SWAP2 SWAP1 POP SSTORE POP DUP2 PUSH1 0x1 PUSH1 0x1 PUSH1 0xA0 SHL SUB AND PUSH32 0xEDE8EED4383E9241982619B94DD83E488B274CCED0FD07B8C0092A393DEFD52F DUP3 PUSH1 0x40 MLOAD PUSH2 0xA43 SWAP2 DUP2 MSTORE PUSH1 0x20 ADD SWAP1 JUMP JUMPDEST PUSH1 0x40 MLOAD DUP1 SWAP2 SUB SWAP1 LOG2 POP POP JUMP JUMPDEST PUSH1 0x5 SLOAD PUSH1 0x1 PUSH1 0x1 PUSH1 0xA0 SHL SUB AND CALLER EQ PUSH2 0xA7A JUMPI PUSH1 0x40 MLOAD PUSH4 0x47556579 PUSH1 0xE0 SHL DUP2 MSTORE PUSH1 0x4 ADD PUSH1 0x40 MLOAD DUP1 SWAP2 SUB SWAP1 REVERT JUMPDEST PUSH1 0x0 DUP2 GT DUP1 ISZERO PUSH2 0xA8B JUMPI POP PUSH1 0x64 DUP2 GT ISZERO JUMPDEST PUSH2 0xAD7 JUMPI PUSH1 0x40 MLOAD PUSH3 0x461BCD PUSH1 0xE5 SHL DUP2 MSTORE PUSH1 0x20 PUSH1 0x4 DUP3 ADD MSTORE PUSH1 0x19 PUSH1 0x24 DUP3 ADD MSTORE PUSH32 0x496E76616C69642071756F72756D2070657263656E7461676500000000000000 PUSH1 0x44 DUP3 ADD MSTORE PUSH1 0x64 ADD PUSH2 0x999 JUMP JUMPDEST PUSH1 0x4 SSTORE JUMP JUMPDEST PUSH1 0x0 DUP2 DUP2 MSTORE PUSH1 0x20 DUP2 SWAP1 MSTORE PUSH1 0x40 DUP2 KECCAK256 DUP1 SLOAD PUSH1 0x1 DUP3 ADD SLOAD PUSH1 0x3 DUP4 ADD SLOAD PUSH1 0x4 DUP5 ADD SLOAD PUSH1 0x5 DUP6 ADD SLOAD PUSH1 0x6 DUP7 ADD SLOAD PUSH1 0x7 DUP8 ADD SLOAD PUSH1 0x8 DUP9 ADD SLOAD PUSH1 0x9 DUP10 ADD SLOAD DUP11 SWAP10 PUSH1 0x60 SWAP10 DUP12 SWAP10 DUP11 SWAP10 DUP11 SWAP10 DUP11 SWAP10 DUP11 SWAP10 DUP11 SWAP10 DUP11 SWAP10 DUP11 SWAP10 PUSH1 0x1 PUSH1 0x1 PUSH1 0xA0 SHL SUB SWAP8 DUP9 AND SWAP8 PUSH1 0x2 DUP12 ADD SWAP8 SWAP7 AND SWAP5 SWAP4 SWAP3 SWAP2 SWAP1 PUSH1 0xFF AND TIMESTAMP DUP3 LT DUP1 ISZERO SWAP1 PUSH2 0xB59 JUMPI POP PUSH1 0x9 DUP12 ADD SLOAD PUSH1 0xFF AND ISZERO JUMPDEST DUP9 DUP1 SLOAD PUSH2 0xB65 SWAP1 PUSH2 0x10C7 JUMP JUMPDEST DUP1 PUSH1 0x1F ADD PUSH1 0x20 DUP1 SWAP2 DIV MUL PUSH1 0x20 ADD PUSH1 0x40 MLOAD SWAP1 DUP2 ADD PUSH1 0x40 MSTORE DUP1 SWAP3 SWAP2 SWAP1 DUP2 DUP2 MSTORE PUSH1 0x20 ADD DUP3 DUP1 SLOAD PUSH2 0xB91 SWAP1 PUSH2 0x10C7 JUMP JUMPDEST DUP1 ISZERO PUSH2 0xBDE JUMPI DUP1 PUSH1 0x1F LT PUSH2 0xBB3 JUMPI PUSH2 0x100 DUP1 DUP4 SLOAD DIV MUL DUP4 MSTORE SWAP2 PUSH1 0x20 ADD SWAP2 PUSH2 0xBDE JUMP JUMPDEST DUP3 ADD SWAP2 SWAP1 PUSH1 0x0 MSTORE PUSH1 0x20 PUSH1 0x0 KECCAK256 SWAP1 JUMPDEST DUP2 SLOAD DUP2 MSTORE SWAP1 PUSH1 0x1 ADD SWAP1 PUSH1 0x20 ADD DUP1 DUP4 GT PUSH2 0xBC1 JUMPI DUP3 SWAP1 SUB PUSH1 0x1F AND DUP3 ADD SWAP2 JUMPDEST POP POP POP POP POP SWAP9 POP SWAP12 POP SWAP12 POP SWAP12 POP SWAP12 POP SWAP12 POP SWAP12 POP SWAP12 POP SWAP12 POP SWAP12 POP SWAP12 POP SWAP12 POP POP SWAP2 SWAP4 SWAP6 SWAP8 SWAP10 SWAP12 SWAP1 SWAP3 SWAP5 SWAP7 SWAP9 SWAP11 POP JUMP JUMPDEST CALLER PUSH1 0x0 SWAP1 DUP2 MSTORE PUSH1 0x1 PUSH1 0x20 MSTORE PUSH1 0x40 SWAP1 KECCAK256 SLOAD PUSH1 0xFF AND PUSH2 0xC3B JUMPI PUSH1 0x40 MLOAD PUSH4 0x148FE221 PUSH1 0xE1 SHL DUP2 MSTORE PUSH1 0x4 ADD PUSH1 0x40 MLOAD DUP1 SWAP2 SUB SWAP1 REVERT JUMPDEST PUSH1 0x0 DUP3 DUP2 MSTORE PUSH1 0x20 DUP2 SWAP1 MSTORE PUSH1 0x40 SWAP1 KECCAK256 PUSH1 0x9 ADD SLOAD DUP3 SWAP1 PUSH2 0x100 SWAP1 DIV PUSH1 0xFF AND PUSH2 0xC74 JUMPI PUSH1 0x40 MLOAD PUSH4 0x635E8737 PUSH1 0xE0 SHL DUP2 MSTORE PUSH1 0x4 ADD PUSH1 0x40 MLOAD DUP1 SWAP2 SUB SWAP1 REVERT JUMPDEST PUSH1 0x0 DUP4 DUP2 MSTORE PUSH1 0x20 DUP2 SWAP1 MSTORE PUSH1 0x40 SWAP1 KECCAK256 PUSH1 0x8 DUP2 ADD SLOAD TIMESTAMP GT ISZERO PUSH2 0xCA7 JUMPI PUSH1 0x40 MLOAD PUSH4 0x7A19ED05 PUSH1 0xE0 SHL DUP2 MSTORE PUSH1 0x4 ADD PUSH1 0x40 MLOAD DUP1 SWAP2 SUB SWAP1 REVERT JUMPDEST CALLER PUSH1 0x0 SWAP1 DUP2 MSTORE PUSH1 0xA DUP3 ADD PUSH1 0x20 MSTORE PUSH1 0x40 SWAP1 KECCAK256 SLOAD PUSH1 0xFF AND ISZERO PUSH2 0xCDA JUMPI PUSH1 0x40 MLOAD PUSH4 0x7C9A1CF9 PUSH1 0xE0 SHL DUP2 MSTORE PUSH1 0x4 ADD PUSH1 0x40 MLOAD DUP1 SWAP2 SUB SWAP1 REVERT JUMPDEST CALLER PUSH1 0x0 SWAP1 DUP2 MSTORE PUSH1 0xA DUP3 ADD PUSH1 0x20 SWAP1 DUP2 MSTORE PUSH1 0x40 DUP1 DUP4 KECCAK256 DUP1 SLOAD PUSH1 0xFF NOT SWAP1 DUP2 AND PUSH1 0x1 SWAP1 DUP2 OR SWAP1 SWAP3 SSTORE PUSH1 0xB DUP7 ADD DUP5 MSTORE DUP3 DUP6 KECCAK256 DUP1 SLOAD DUP10 ISZERO DUP1 ISZERO SWAP2 SWAP1 SWAP4 AND OR SWAP1 SSTORE SWAP3 MSTORE SWAP1 SWAP2 KECCAK256 PUSH1 0x2 ADD SLOAD SWAP1 PUSH2 0xD41 JUMPI DUP1 DUP3 PUSH1 0x5 ADD PUSH1 0x0 DUP3 DUP3 SLOAD PUSH2 0xD36 SWAP2 SWAP1 PUSH2 0x112E JUMP JUMPDEST SWAP1 SWAP2 SSTORE POP PUSH2 0xD5B SWAP1 POP JUMP JUMPDEST DUP1 DUP3 PUSH1 0x6 ADD PUSH1 0x0 DUP3 DUP3 SLOAD PUSH2 0xD55 SWAP2 SWAP1 PUSH2 0x112E JUMP JUMPDEST SWAP1 SWAP2 SSTORE POP POP JUMPDEST PUSH1 0x40 DUP1 MLOAD DUP6 ISZERO ISZERO DUP2 MSTORE PUSH1 0x20 DUP2 ADD DUP4 SWAP1 MSTORE CALLER SWAP2 DUP8 SWAP2 PUSH32 0xCBDF6214089CBA887ECBF35A0B6A734589959C9763342C756BB2A80CA2BC9F6E SWAP2 ADD PUSH1 0x40 MLOAD DUP1 SWAP2 SUB SWAP1 LOG3 POP POP POP POP POP JUMP JUMPDEST PUSH1 0x5 SLOAD PUSH1 0x1 PUSH1 0x1 PUSH1 0xA0 SHL SUB AND CALLER EQ PUSH2 0xDCC JUMPI PUSH1 0x40 MLOAD PUSH4 0x47556579 PUSH1 0xE0 SHL DUP2 MSTORE PUSH1 0x4 ADD PUSH1 0x40 MLOAD DUP1 SWAP2 SUB SWAP1 REVERT JUMPDEST PUSH1 0x5 SLOAD PUSH1 0x40 MLOAD PUSH1 0x0 SWAP2 PUSH1 0x1 PUSH1 0x1 PUSH1 0xA0 SHL SUB AND SWAP1 SELFBALANCE SWAP1 DUP4 DUP2 DUP2 DUP2 DUP6 DUP8 GAS CALL SWAP3 POP POP POP RETURNDATASIZE DUP1 PUSH1 0x0 DUP2 EQ PUSH2 0xE19 JUMPI PUSH1 0x40 MLOAD SWAP2 POP PUSH1 0x1F NOT PUSH1 0x3F RETURNDATASIZE ADD AND DUP3 ADD PUSH1 0x40 MSTORE RETURNDATASIZE DUP3 MSTORE RETURNDATASIZE PUSH1 0x0 PUSH1 0x20 DUP5 ADD RETURNDATACOPY PUSH2 0xE1E JUMP JUMPDEST PUSH1 0x60 SWAP2 POP JUMPDEST POP POP SWAP1 POP DUP1 PUSH2 0xE40 JUMPI PUSH1 0x40 MLOAD PUSH4 0x12171D83 PUSH1 0xE3 SHL DUP2 MSTORE PUSH1 0x4 ADD PUSH1 0x40 MLOAD DUP1 SWAP2 SUB SWAP1 REVERT JUMPDEST POP JUMP JUMPDEST PUSH1 0x0 PUSH1 0x20 DUP3 DUP5 SUB SLT ISZERO PUSH2 0xE55 JUMPI PUSH1 0x0 DUP1 REVERT JUMPDEST POP CALLDATALOAD SWAP2 SWAP1 POP JUMP JUMPDEST PUSH1 0x0 DUP2 MLOAD DUP1 DUP5 MSTORE PUSH1 0x0 JUMPDEST DUP2 DUP2 LT ISZERO PUSH2 0xE82 JUMPI PUSH1 0x20 DUP2 DUP6 ADD DUP2 ADD MLOAD DUP7 DUP4 ADD DUP3 ADD MSTORE ADD PUSH2 0xE66 JUMP JUMPDEST POP PUSH1 0x0 PUSH1 0x20 DUP3 DUP7 ADD ADD MSTORE PUSH1 0x20 PUSH1 0x1F NOT PUSH1 0x1F DUP4 ADD AND DUP6 ADD ADD SWAP2 POP POP SWAP3 SWAP2 POP POP JUMP JUMPDEST DUP12 DUP2 MSTORE PUSH1 0x1 PUSH1 0x1 PUSH1 0xA0 SHL SUB DUP12 DUP2 AND PUSH1 0x20 DUP4 ADD MSTORE PUSH2 0x160 PUSH1 0x40 DUP4 ADD DUP2 SWAP1 MSTORE PUSH1 0x0 SWAP2 PUSH2 0xECE DUP5 DUP4 ADD DUP15 PUSH2 0xE5C JUMP JUMPDEST PUSH1 0x60 DUP6 ADD SWAP13 SWAP1 SWAP13 MSTORE SWAP10 SWAP1 SWAP10 AND PUSH1 0x80 DUP4 ADD MSTORE POP PUSH1 0xA0 DUP2 ADD SWAP7 SWAP1 SWAP7 MSTORE PUSH1 0xC0 DUP7 ADD SWAP5 SWAP1 SWAP5 MSTORE PUSH1 0xE0 DUP6 ADD SWAP3 SWAP1 SWAP3 MSTORE PUSH2 0x100 DUP5 ADD MSTORE ISZERO ISZERO PUSH2 0x120 DUP4 ADD MSTORE ISZERO ISZERO PUSH2 0x140 SWAP1 SWAP2 ADD MSTORE POP SWAP4 SWAP3 POP POP POP JUMP JUMPDEST PUSH1 0x1 PUSH1 0x1 PUSH1 0xA0 SHL SUB DUP2 AND DUP2 EQ PUSH2 0xE40 JUMPI PUSH1 0x0 DUP1 REVERT JUMPDEST PUSH1 0x0 PUSH1 0x20 DUP3 DUP5 SUB SLT ISZERO PUSH2 0xF3E JUMPI PUSH1 0x0 DUP1 REVERT JUMPDEST DUP2 CALLDATALOAD PUSH2 0xF49 DUP2 PUSH2 0xF17 JUMP JUMPDEST SWAP4 SWAP3 POP POP POP JUMP JUMPDEST PUSH1 0x0 DUP1 PUSH1 0x40 DUP4 DUP6 SUB SLT ISZERO PUSH2 0xF63 JUMPI PUSH1 0x0 DUP1 REVERT JUMPDEST DUP3 CALLDATALOAD SWAP2 POP PUSH1 0x20 DUP4 ADD CALLDATALOAD PUSH2 0xF75 DUP2 PUSH2 0xF17 JUMP JUMPDEST DUP1 SWAP2 POP POP SWAP3 POP SWAP3 SWAP1 POP JUMP JUMPDEST PUSH4 0x4E487B71 PUSH1 0xE0 SHL PUSH1 0x0 MSTORE PUSH1 0x41 PUSH1 0x4 MSTORE PUSH1 0x24 PUSH1 0x0 REVERT JUMPDEST DUP1 CALLDATALOAD PUSH2 0xFA1 DUP2 PUSH2 0xF17 JUMP JUMPDEST SWAP2 SWAP1 POP JUMP JUMPDEST PUSH1 0x0 DUP1 PUSH1 0x0 PUSH1 0x60 DUP5 DUP7 SUB SLT ISZERO PUSH2 0xFBB JUMPI PUSH1 0x0 DUP1 REVERT JUMPDEST DUP4 CALLDATALOAD PUSH8 0xFFFFFFFFFFFFFFFF DUP1 DUP3 GT ISZERO PUSH2 0xFD3 JUMPI PUSH1 0x0 DUP1 REVERT JUMPDEST DUP2 DUP7 ADD SWAP2 POP DUP7 PUSH1 0x1F DUP4 ADD SLT PUSH2 0xFE7 JUMPI PUSH1 0x0 DUP1 REVERT JUMPDEST DUP2 CALLDATALOAD DUP2 DUP2 GT ISZERO PUSH2 0xFF9 JUMPI PUSH2 0xFF9 PUSH2 0xF80 JUMP JUMPDEST PUSH1 0x40 MLOAD PUSH1 0x1F DUP3 ADD PUSH1 0x1F NOT SWAP1 DUP2 AND PUSH1 0x3F ADD AND DUP2 ADD SWAP1 DUP4 DUP3 GT DUP2 DUP4 LT OR ISZERO PUSH2 0x1021 JUMPI PUSH2 0x1021 PUSH2 0xF80 JUMP JUMPDEST DUP2 PUSH1 0x40 MSTORE DUP3 DUP2 MSTORE DUP10 PUSH1 0x20 DUP5 DUP8 ADD ADD GT ISZERO PUSH2 0x103A JUMPI PUSH1 0x0 DUP1 REVERT JUMPDEST DUP3 PUSH1 0x20 DUP7 ADD PUSH1 0x20 DUP4 ADD CALLDATACOPY PUSH1 0x0 PUSH1 0x20 DUP5 DUP4 ADD ADD MSTORE DUP1 SWAP8 POP POP POP POP POP POP PUSH1 0x20 DUP5 ADD CALLDATALOAD SWAP2 POP PUSH2 0x1068 PUSH1 0x40 DUP6 ADD PUSH2 0xF96 JUMP JUMPDEST SWAP1 POP SWAP3 POP SWAP3 POP SWAP3 JUMP JUMPDEST PUSH1 0x0 DUP1 PUSH1 0x40 DUP4 DUP6 SUB SLT ISZERO PUSH2 0x1084 JUMPI PUSH1 0x0 DUP1 REVERT JUMPDEST DUP3 CALLDATALOAD PUSH2 0x108F DUP2 PUSH2 0xF17 JUMP JUMPDEST SWAP5 PUSH1 0x20 SWAP4 SWAP1 SWAP4 ADD CALLDATALOAD SWAP4 POP POP POP JUMP JUMPDEST PUSH1 0x0 DUP1 PUSH1 0x40 DUP4 DUP6 SUB SLT ISZERO PUSH2 0x10B0 JUMPI PUSH1 0x0 DUP1 REVERT JUMPDEST DUP3 CALLDATALOAD SWAP2 POP PUSH1 0x20 DUP4 ADD CALLDATALOAD DUP1 ISZERO ISZERO DUP2 EQ PUSH2 0xF75 JUMPI PUSH1 0x0 DUP1 REVERT JUMPDEST PUSH1 0x1 DUP2 DUP2 SHR SWAP1 DUP3 AND DUP1 PUSH2 0x10DB JUMPI PUSH1 0x7F DUP3 AND SWAP2 POP JUMPDEST PUSH1 0x20 DUP3 LT DUP2 SUB PUSH2 0x10FB JUMPI PUSH4 0x4E487B71 PUSH1 0xE0 SHL PUSH1 0x0 MSTORE PUSH1 0x22 PUSH1 0x4 MSTORE PUSH1 0x24 PUSH1 0x0 REVERT JUMPDEST POP SWAP2 SWAP1 POP JUMP JUMPDEST PUSH4 0x4E487B71 PUSH1 0xE0 SHL PUSH1 0x0 MSTORE PUSH1 0x11 PUSH1 0x4 MSTORE PUSH1 0x24 PUSH1 0x0 REVERT JUMPDEST PUSH1 0x0 DUP2 PUSH2 0x1126 JUMPI PUSH2 0x1126 PUSH2 0x1101 JUMP JUMPDEST POP PUSH1 0x0 NOT ADD SWAP1 JUMP JUMPDEST DUP1 DUP3 ADD DUP1 DUP3 GT ISZERO PUSH2 0x1141 JUMPI PUSH2 0x1141 PUSH2 0x1101 JUMP JUMPDEST SWAP3 SWAP2 POP POP JUMP JUMPDEST DUP1 DUP3 MUL DUP2 ISZERO DUP3 DUP3 DIV DUP5 EQ OR PUSH2 0x1141 JUMPI PUSH2 0x1141 PUSH2 0x1101 JUMP JUMPDEST PUSH1 0x0 PUSH1 0x1 DUP3 ADD PUSH2 0x1170 JUMPI PUSH2 0x1170 PUSH2 0x1101 JUMP JUMPDEST POP PUSH1 0x1 ADD SWAP1 JUMP JUMPDEST PUSH1 0x1F DUP3 GT ISZERO PUSH2 0x11C1 JUMPI PUSH1 0x0 DUP2 DUP2 MSTORE PUSH1 0x20 DUP2 KECCAK256 PUSH1 0x1F DUP6 ADD PUSH1 0x5 SHR DUP2 ADD PUSH1 0x20 DUP7 LT ISZERO PUSH2 0x119E JUMPI POP DUP1 JUMPDEST PUSH1 0x1F DUP6 ADD PUSH1 0x5 SHR DUP3 ADD SWAP2 POP JUMPDEST DUP2 DUP2 LT ISZERO PUSH2 0x11BD JUMPI DUP3 DUP2 SSTORE PUSH1 0x1 ADD PUSH2 0x11AA JUMP JUMPDEST POP POP POP JUMPDEST POP POP POP JUMP JUMPDEST DUP2 MLOAD PUSH8 0xFFFFFFFFFFFFFFFF DUP2 GT ISZERO PUSH2 0x11E0 JUMPI PUSH2 0x11E0 PUSH2 0xF80 JUMP JUMPDEST PUSH2 0x11F4 DUP2 PUSH2 0x11EE DUP5 SLOAD PUSH2 0x10C7 JUMP JUMPDEST DUP5 PUSH2 0x1177 JUMP JUMPDEST PUSH1 0x20 DUP1 PUSH1 0x1F DUP4 GT PUSH1 0x1 DUP2 EQ PUSH2 0x1229 JUMPI PUSH1 0x0 DUP5 ISZERO PUSH2 0x1211 JUMPI POP DUP6 DUP4 ADD MLOAD JUMPDEST PUSH1 0x0 NOT PUSH1 0x3 DUP7 SWAP1 SHL SHR NOT AND PUSH1 0x1 DUP6 SWAP1 SHL OR DUP6 SSTORE PUSH2 0x11BD JUMP JUMPDEST PUSH1 0x0 DUP6 DUP2 MSTORE PUSH1 0x20 DUP2 KECCAK256 PUSH1 0x1F NOT DUP7 AND SWAP2 JUMPDEST DUP3 DUP2 LT ISZERO PUSH2 0x1258 JUMPI DUP9 DUP7 ADD MLOAD DUP3 SSTORE SWAP5 DUP5 ADD SWAP5 PUSH1 0x1 SWAP1 SWAP2 ADD SWAP1 DUP5 ADD PUSH2 0x1239 JUMP JUMPDEST POP DUP6 DUP3 LT ISZERO PUSH2 0x1276 JUMPI DUP8 DUP6 ADD MLOAD PUSH1 0x0 NOT PUSH1 0x3 DUP9 SWAP1 SHL PUSH1 0xF8 AND SHR NOT AND DUP2 SSTORE JUMPDEST POP POP POP POP POP PUSH1 0x1 SWAP1 DUP2 SHL ADD SWAP1 SSTORE POP JUMP JUMPDEST PUSH1 0x20 DUP2 MSTORE PUSH1 0x0 PUSH2 0xF49 PUSH1 0x20 DUP4 ADD DUP5 PUSH2 0xE5C JUMP INVALID LOG2 PUSH5 0x6970667358 0x22 SLT KECCAK256 0x4E DUP6 PUSH21 0x4C0808B11001A850F5048303728F498EB655263361 EXTCODESIZE CALLER ISZERO PUSH9 0xCAA8D92564736F6C63 NUMBER STOP ADDMOD EQ STOP CALLER "},"gasEstimates":{"creation":{"codeDepositCost":"963000","executionCost":"160181","totalCost":"1123181"},"external":{"MIN_VOTING_POWER()":"262","VOTING_PERIOD()":"306","addMember(address,uint256)":"99194","admin()":"2447","createProposal(string,uint256,address)":"infinite","emergencyWithdraw()":"infinite","executeProposal(uint256)":"infinite","getBalance()":"261","getProposal(uint256)":"infinite","getTotalVotingPower()":"2304","hasVoted(uint256,address)":"4889","memberCount()":"2340","members(address)":"6855","nextProposalId()":"2406","proposals(uint256)":"infinite","quorum()":"2384","removeMember(address)":"64501","setQuorum(uint256)":"24543","vote(uint256,bool)":"86387"}},"methodIdentifiers":{"MIN_VOTING_POWER()":"805a8142","VOTING_PERIOD()":"b1610d7e","addMember(address,uint256)":"98041ea3","admin()":"f851a440","createProposal(string,uint256,address)":"6ac1e01f","emergencyWithdraw()":"db2e21bc","executeProposal(uint256)":"0d61b519","getBalance()":"12065fe0","getProposal(uint256)":"c7f758a8","getTotalVotingPower()":"11acc1a7","hasVoted(uint256,address)":"43859632","memberCount()":"11aee380","members(address)":"08ae4b0c","nextProposalId()":"2ab09d14","proposals(uint256)":"013cf08b","quorum()":"1703a018","removeMember(address)":"0b1ca49a","setQuorum(uint256)":"c1ba4e59","vote(uint256,bool)":"c9d27afe"}},"storageLayout":{"storage":[{"astId":45,"contract":"contracts/SimpleDAO.sol:SimpleDAO","label":"proposals","offset":0,"slot":"0","type":"t_mapping(t_uint256,t_struct(Proposal)33_storage)"},{"astId":50,"contract":"contracts/SimpleDAO.sol:SimpleDAO","label":"members","offset":0,"slot":"1","type":"t_mapping(t_address,t_struct(Member)40_storage)"},{"astId":53,"contract":"contracts/SimpleDAO.sol:SimpleDAO","label":"nextProposalId","offset":0,"slot":"2","type":"t_uint256"},{"astId":55,"contract":"contracts/SimpleDAO.sol:SimpleDAO","label":"memberCount","offset":0,"slot":"3","type":"t_uint256"},{"astId":64,"contract":"contracts/SimpleDAO.sol:SimpleDAO","label":"quorum","offset":0,"slot":"4","type":"t_uint256"},{"astId":66,"contract":"contracts/SimpleDAO.sol:SimpleDAO","label":"admin","offset":0,"slot":"5","type":"t_address"}],"types":{"t_address":{"encoding":"inplace","label":"address","numberOfBytes":"20"},"t_address_payable":{"encoding":"inplace","label":"address payable","numberOfBytes":"20"},"t_bool":{"encoding":"inplace","label":"bool","numberOfBytes":"1"},"t_mapping(t_address,t_bool)":{"encoding":"mapping","key":"t_address","label":"mapping(address => bool)","numberOfBytes":"32","value":"t_bool"},"t_mapping(t_address,t_struct(Member)40_storage)":{"encoding":"mapping","key":"t_address","label":"mapping(address => struct SimpleDAO.Member)","numberOfBytes":"32","value":"t_struct(Member)40_storage"},"t_mapping(t_uint256,t_struct(Proposal)33_storage)":{"encoding":"mapping","key":"t_uint256","label":"mapping(uint256 => struct SimpleDAO.Proposal)","numberOfBytes":"32","value":"t_struct(Proposal)33_storage"},"t_string_storage":{"encoding":"bytes","label":"string","numberOfBytes":"32"},"t_struct(Member)40_storage":{"encoding":"inplace","label":"struct SimpleDAO.Member","members":[{"astId":35,"contract":"contracts/SimpleDAO.sol:SimpleDAO","label":"isMember","offset":0,"slot":"0","type":"t_bool"},{"astId":37,"contract":"contracts/SimpleDAO.sol:SimpleDAO","label":"joinedAt","offset":0,"slot":"1","type":"t_uint256"},{"astId":39,"contract":"contracts/SimpleDAO.sol:SimpleDAO","label":"votingPower","offset":0,"slot":"2","type":"t_uint256"}],"numberOfBytes":"96"},"t_struct(Proposal)33_storage":{"encoding":"inplace","label":"struct SimpleDAO.Proposal","members":[{"astId":4,"contract":"contracts/SimpleDAO.sol:SimpleDAO","label":"id","offset":0,"slot":"0","type":"t_uint256"},{"astId":6,"contract":"contracts/SimpleDAO.sol:SimpleDAO","label":"proposer","offset":0,"slot":"1","type":"t_address"},{"astId":8,"contract":"contracts/SimpleDAO.sol:SimpleDAO","label":"description","offset":0,"slot":"2","type":"t_string_storage"},{"astId":10,"contract":"contracts/SimpleDAO.sol:SimpleDAO","label":"amount","offset":0,"slot":"3","type":"t_uint256"},{"astId":12,"contract":"contracts/SimpleDAO.sol:SimpleDAO","label":"recipient","offset":0,"slot":"4","type":"t_address_payable"},{"astId":14,"contract":"contracts/SimpleDAO.sol:SimpleDAO","label":"votesFor","offset":0,"slot":"5","type":"t_uint256"},{"astId":16,"contract":"contracts/SimpleDAO.sol:SimpleDAO","label":"votesAgainst","offset":0,"slot":"6","type":"t_uint256"},{"astId":18,"contract":"contracts/SimpleDAO.sol:SimpleDAO","label":"startTime","offset":0,"slot":"7","type":"t_uint256"},{"astId":20,"contract":"contracts/SimpleDAO.sol:SimpleDAO","label":"endTime","offset":0,"slot":"8","type":"t_uint256"},{"astId":22,"contract":"contracts/SimpleDAO.sol:SimpleDAO","label":"executed","offset":0,"slot":"9","type":"t_bool"},{"astId":24,"contract":"contracts/SimpleDAO.sol:SimpleDAO","label":"exists","offset":1,"slot":"9","type":"t_bool"},{"astId":28,"contract":"contracts/SimpleDAO.sol:SimpleDAO","label":"hasVoted","offset":0,"slot":"10","type":"t_mapping(t_address,t_bool)"},{"astId":32,"contract":"contracts/SimpleDAO.sol:SimpleDAO","label":"voteChoice","offset":0,"slot":"11","type":"t_mapping(t_address,t_bool)"}],"numberOfBytes":"384"},"t_uint256":{"encoding":"inplace","label":"uint256","numberOfBytes":"32"}}},"userdoc":{"kind":"user","methods":{},"version":1}}}}