{
  "_format": "hh-sol-artifact-1",
  "contractName": "SimpleEscrow",
  "sourceName": "contracts/SimpleEscrow.sol",
  "abi": [
    {
      "inputs": [
        {
          "internalType": "address",
          "name": "_seller",
          "type": "address"
        },
        {
          "internalType": "address",
          "name": "_arbiter",
          "type": "address"
        }
      ],
      "stateMutability": "nonpayable",
      "type": "constructor"
    },
    {
      "anonymous": false,
      "inputs": [],
      "name": "DisputeRaised",
      "type": "event"
    },
    {
      "anonymous": false,
      "inputs": [
        {
          "indexed": false,
          "internalType": "address",
          "name": "winner",
          "type": "address"
        }
      ],
      "name": "DisputeResolved",
      "type": "event"
    },
    {
      "anonymous": false,
      "inputs": [
        {
          "indexed": false,
          "internalType": "uint256",
          "name": "amount",
          "type": "uint256"
        }
      ],
      "name": "FundsDeposited",
      "type": "event"
    },
    {
      "anonymous": false,
      "inputs": [
        {
          "indexed": false,
          "internalType": "address",
          "name": "to",
          "type": "address"
        },
        {
          "indexed": false,
          "internalType": "uint256",
          "name": "amount",
          "type": "uint256"
        }
      ],
      "name": "FundsReleased",
      "type": "event"
    },
    {
      "inputs": [],
      "name": "amount",
      "outputs": [
        {
          "internalType": "uint256",
          "name": "",
          "type": "uint256"
        }
      ],
      "stateMutability": "view",
      "type": "function"
    },
    {
      "inputs": [],
      "name": "arbiter",
      "outputs": [
        {
          "internalType": "address",
          "name": "",
          "type": "address"
        }
      ],
      "stateMutability": "view",
      "type": "function"
    },
    {
      "inputs": [],
      "name": "buyer",
      "outputs": [
        {
          "internalType": "address",
          "name": "",
          "type": "address"
        }
      ],
      "stateMutability": "view",
      "type": "function"
    },
    {
      "inputs": [],
      "name": "confirmDelivery",
      "outputs": [],
      "stateMutability": "nonpayable",
      "type": "function"
    },
    {
      "inputs": [],
      "name": "currentState",
      "outputs": [
        {
          "internalType": "enum SimpleEscrow.State",
          "name": "",
          "type": "uint8"
        }
      ],
      "stateMutability": "view",
      "type": "function"
    },
    {
      "inputs": [],
      "name": "depositFunds",
      "outputs": [],
      "stateMutability": "payable",
      "type": "function"
    },
    {
      "inputs": [],
      "name": "disputed",
      "outputs": [
        {
          "internalType": "bool",
          "name": "",
          "type": "bool"
        }
      ],
      "stateMutability": "view",
      "type": "function"
    },
    {
      "inputs": [],
      "name": "fundsDeposited",
      "outputs": [
        {
          "internalType": "bool",
          "name": "",
          "type": "bool"
        }
      ],
      "stateMutability": "view",
      "type": "function"
    },
    {
      "inputs": [],
      "name": "fundsReleased",
      "outputs": [
        {
          "internalType": "bool",
          "name": "",
          "type": "bool"
        }
      ],
      "stateMutability": "view",
      "type": "function"
    },
    {
      "inputs": [],
      "name": "getBalance",
      "outputs": [
        {
          "internalType": "uint256",
          "name": "",
          "type": "uint256"
        }
      ],
      "stateMutability": "view",
      "type": "function"
    },
    {
      "inputs": [],
      "name": "getContractDetails",
      "outputs": [
        {
          "internalType": "address",
          "name": "_buyer",
          "type": "address"
        },
        {
          "internalType": "address",
          "name": "_seller",
          "type": "address"
        },
        {
          "internalType": "address",
          "name": "_arbiter",
          "type": "address"
        },
        {
          "internalType": "uint256",
          "name": "_amount",
          "type": "uint256"
        },
        {
          "internalType": "enum SimpleEscrow.State",
          "name": "_state",
          "type": "uint8"
        },
        {
          "internalType": "bool",
          "name": "_disputed",
          "type": "bool"
        }
      ],
      "stateMutability": "view",
      "type": "function"
    },
    {
      "inputs": [],
      "name": "raiseDispute",
      "outputs": [],
      "stateMutability": "nonpayable",
      "type": "function"
    },
    {
      "inputs": [],
      "name": "requestRelease",
      "outputs": [],
      "stateMutability": "nonpayable",
      "type": "function"
    },
    {
      "inputs": [
        {
          "internalType": "address",
          "name": "winner",
          "type": "address"
        }
      ],
      "name": "resolveDispute",
      "outputs": [],
      "stateMutability": "nonpayable",
      "type": "function"
    },
    {
      "inputs": [],
      "name": "seller",
      "outputs": [
        {
          "internalType": "address",
          "name": "",
          "type": "address"
        }
      ],
      "stateMutability": "view",
      "type": "function"
    }
  ],
  "bytecode": "0x608060405234801561001057600080fd5b50604051610ab7380380610ab783398101604081905261002f91610094565b600080546001600160a01b03199081163317909155600180546001600160a01b03948516908316179055600280549290931691161790556004805463ff000000191690556100c7565b80516001600160a01b038116811461008f57600080fd5b919050565b600080604083850312156100a757600080fd5b6100b083610078565b91506100be60208401610078565b90509250929050565b6109e1806100d66000396000f3fe6080604052600436106100e85760003560e01c80639dfc91171161008a578063d846118211610059578063d84611821461028f578063e2c41dbc146102af578063fdc5587b146102b7578063fe25e00a146102cc57600080fd5b80639dfc9117146101f1578063aa8c217c14610240578063b564e92614610256578063cacd17151461027557600080fd5b806312065fe0116100c657806312065fe0146101885780635e10177b146101a55780636daa2d44146101bc5780637150d8ae146101d157600080fd5b80630695c46c146100ed57806308551a53146101225780630c3f6acf1461015a575b600080fd5b3480156100f957600080fd5b5060045461010d9062010000900460ff1681565b60405190151581526020015b60405180910390f35b34801561012e57600080fd5b50600154610142906001600160a01b031681565b6040516001600160a01b039091168152602001610119565b34801561016657600080fd5b5060045461017b906301000000900460ff1681565b60405161011991906108e9565b34801561019457600080fd5b50475b604051908152602001610119565b3480156101b157600080fd5b506101ba6102ec565b005b3480156101c857600080fd5b506101ba61039c565b3480156101dd57600080fd5b50600054610142906001600160a01b031681565b3480156101fd57600080fd5b50600054600154600254600354600454604051610119956001600160a01b039081169581169416929160ff630100000082048116926201000090920416906108fd565b34801561024c57600080fd5b5061019760035481565b34801561026257600080fd5b5060045461010d90610100900460ff1681565b34801561028157600080fd5b5060045461010d9060ff1681565b34801561029b57600080fd5b506101ba6102aa366004610944565b610497565b6101ba6105ee565b3480156102c357600080fd5b506101ba61071f565b3480156102d857600080fd5b50600254610142906001600160a01b031681565b6000546001600160a01b031633146103465760405162461bcd60e51b81526020600482015260186024820152774f6e6c792062757965722063616e2063616c6c207468697360401b60448201526064015b60405180910390fd5b6001806004546301000000900460ff166003811115610367576103676108b1565b146103845760405162461bcd60e51b815260040161033d90610974565b600154610399906001600160a01b03166107b7565b50565b6001806004546301000000900460ff1660038111156103bd576103bd6108b1565b146103da5760405162461bcd60e51b815260040161033d90610974565b6000546001600160a01b03163314806103fd57506001546001600160a01b031633145b6104585760405162461bcd60e51b815260206004820152602660248201527f4f6e6c79206275796572206f722073656c6c65722063616e207261697365206460448201526569737075746560d01b606482015260840161033d565b6004805463ffff0000191663030100001790556040517fa9f218df296bdff29869b6b40927376285db89e1726d55dc7a5583eab3f72c4290600090a150565b6002546001600160a01b031633146104f15760405162461bcd60e51b815260206004820152601a60248201527f4f6e6c7920617262697465722063616e2063616c6c2074686973000000000000604482015260640161033d565b6003806004546301000000900460ff166003811115610512576105126108b1565b1461052f5760405162461bcd60e51b815260040161033d90610974565b6000546001600160a01b038381169116148061055857506001546001600160a01b038381169116145b6105a45760405162461bcd60e51b815260206004820152601e60248201527f57696e6e6572206d757374206265206275796572206f722073656c6c65720000604482015260640161033d565b6105ad826107b7565b6040516001600160a01b03831681527f8476b4c4cd5f496cfe2043ed12cd9e3e3540e97649536b9aa3fa67f06a7134db906020015b60405180910390a15050565b6000546001600160a01b031633146106435760405162461bcd60e51b81526020600482015260186024820152774f6e6c792062757965722063616e2063616c6c207468697360401b604482015260640161033d565b6000806004546301000000900460ff166003811115610664576106646108b1565b146106815760405162461bcd60e51b815260040161033d90610974565b600034116106d15760405162461bcd60e51b815260206004820152601760248201527f4d757374206465706f73697420736f6d652066756e6473000000000000000000604482015260640161033d565b3460038190556004805463ff0000ff1916630100000117905560408051918252517f7cb5d45c1071f219bd2da1ea101758715bd52f23f2a707f2d9a0387dea18d9069181900360200190a150565b6001546001600160a01b031633146107795760405162461bcd60e51b815260206004820152601960248201527f4f6e6c792073656c6c65722063616e2063616c6c207468697300000000000000604482015260640161033d565b6001806004546301000000900460ff16600381111561079a5761079a6108b1565b146103995760405162461bcd60e51b815260040161033d90610974565b60045460ff1680156107d15750600454610100900460ff16155b61081d5760405162461bcd60e51b815260206004820152601f60248201527f46756e6473206e6f7420617661696c61626c6520666f722072656c6561736500604482015260640161033d565b6004805463ff00ff00191663020001001790556003805460009182905560405190916001600160a01b0384169183156108fc0291849190818181858888f19350505050158015610871573d6000803e3d6000fd5b50604080516001600160a01b0384168152602081018390527f221c08a06b07a64803b3787861a3f276212fcccb51c2e6234077a9b8cb13047a91016105e2565b634e487b7160e01b600052602160045260246000fd5b600481106108e557634e487b7160e01b600052602160045260246000fd5b9052565b602081016108f782846108c7565b92915050565b6001600160a01b0387811682528681166020830152851660408201526060810184905260c0810161093160808301856108c7565b82151560a0830152979650505050505050565b60006020828403121561095657600080fd5b81356001600160a01b038116811461096d57600080fd5b9392505050565b6020808252601d908201527f496e76616c696420737461746520666f72207468697320616374696f6e00000060408201526060019056fea2646970667358221220d7cf9c760851d6f81b9266f6539356ae739b2b44fd1287235f635e32183aa67164736f6c63430008140033",
  "linkReferences": {},
  "deployedLinkReferences": {}
}