{"contracts/RockPaperScissors.sol":{"RockPaperScissors":{"abi":[{"inputs":[],"stateMutability":"nonpayable","type":"constructor"},{"inputs":[],"name":"GameExpired","type":"error"},{"inputs":[],"name":"GameNotInCommitPhase","type":"error"},{"inputs":[],"name":"GameNotInRevealPhase","type":"error"},{"inputs":[],"name":"GameNotOpen","type":"error"},{"inputs":[],"name":"InvalidBetAmount","type":"error"},{"inputs":[],"name":"InvalidChoice","type":"error"},{"inputs":[],"name":"InvalidCommitment","type":"error"},{"inputs":[],"name":"NotGamePlayer","type":"error"},{"inputs":[],"name":"PlayerAlreadyInGame","type":"error"},{"inputs":[],"name":"PrizeAlreadyClaimed","type":"error"},{"inputs":[],"name":"RevealTimeoutNotReached","type":"error"},{"inputs":[],"name":"TransferFailed","type":"error"},{"inputs":[],"name":"UnauthorizedAccess","type":"error"},{"anonymous":false,"inputs":[{"indexed":true,"internalType":"uint256","name":"gameId","type":"uint256"},{"indexed":true,"internalType":"address","name":"player","type":"address"},{"indexed":false,"internalType":"enum RockPaperScissors.Choice","name":"choice","type":"uint8"}],"name":"ChoiceRevealed","type":"event"},{"anonymous":false,"inputs":[{"indexed":true,"internalType":"uint256","name":"gameId","type":"uint256"},{"indexed":true,"internalType":"address","name":"player","type":"address"},{"indexed":false,"internalType":"bytes32","name":"commitment","type":"bytes32"}],"name":"CommitmentMade","type":"event"},{"anonymous":false,"inputs":[{"indexed":true,"internalType":"uint256","name":"gameId","type":"uint256"},{"indexed":true,"internalType":"address","name":"player1","type":"address"},{"indexed":false,"internalType":"uint256","name":"betAmount","type":"uint256"},{"indexed":false,"internalType":"uint256","name":"deadline","type":"uint256"}],"name":"GameCreated","type":"event"},{"anonymous":false,"inputs":[{"indexed":true,"internalType":"uint256","name":"gameId","type":"uint256"},{"indexed":true,"internalType":"address","name":"winner","type":"address"},{"indexed":false,"internalType":"enum RockPaperScissors.Choice","name":"player1Choice","type":"uint8"},{"indexed":false,"internalType":"enum RockPaperScissors.Choice","name":"player2Choice","type":"uint8"},{"indexed":false,"internalType":"uint256","name":"prize","type":"uint256"}],"name":"GameFinished","type":"event"},{"anonymous":false,"inputs":[{"indexed":true,"internalType":"uint256","name":"gameId","type":"uint256"},{"indexed":true,"internalType":"address","name":"player2","type":"address"}],"name":"PlayerJoined","type":"event"},{"anonymous":false,"inputs":[{"indexed":true,"internalType":"uint256","name":"gameId","type":"uint256"},{"indexed":true,"internalType":"address","name":"winner","type":"address"},{"indexed":false,"internalType":"uint256","name":"amount","type":"uint256"}],"name":"PrizeClaimed","type":"event"},{"inputs":[],"name":"MAX_BET","outputs":[{"internalType":"uint256","name":"","type":"uint256"}],"stateMutability":"view","type":"function"},{"inputs":[],"name":"MIN_BET","outputs":[{"internalType":"uint256","name":"","type":"uint256"}],"stateMutability":"view","type":"function"},{"inputs":[],"name":"REVEAL_TIMEOUT","outputs":[{"internalType":"uint256","name":"","type":"uint256"}],"stateMutability":"view","type":"function"},{"inputs":[{"internalType":"uint256","name":"_gameId","type":"uint256"}],"name":"claimTimeoutPrize","outputs":[],"stateMutability":"nonpayable","type":"function"},{"inputs":[{"internalType":"bytes32","name":"_commitment","type":"bytes32"}],"name":"createGame","outputs":[{"internalType":"uint256","name":"gameId","type":"uint256"}],"stateMutability":"payable","type":"function"},{"inputs":[{"internalType":"uint256","name":"","type":"uint256"}],"name":"games","outputs":[{"internalType":"address","name":"player1","type":"address"},{"internalType":"address","name":"player2","type":"address"},{"internalType":"uint256","name":"betAmount","type":"uint256"},{"internalType":"bytes32","name":"player1Commitment","type":"bytes32"},{"internalType":"bytes32","name":"player2Commitment","type":"bytes32"},{"internalType":"enum RockPaperScissors.Choice","name":"player1Choice","type":"uint8"},{"internalType":"enum RockPaperScissors.Choice","name":"player2Choice","type":"uint8"},{"internalType":"enum RockPaperScissors.GameState","name":"state","type":"uint8"},{"internalType":"address","name":"winner","type":"address"},{"internalType":"uint256","name":"createdAt","type":"uint256"},{"internalType":"uint256","name":"deadline","type":"uint256"},{"internalType":"bool","name":"prizeClaimed","type":"bool"}],"stateMutability":"view","type":"function"},{"inputs":[{"internalType":"enum RockPaperScissors.Choice","name":"_choice","type":"uint8"},{"internalType":"uint256","name":"_nonce","type":"uint256"},{"internalType":"address","name":"_player","type":"address"}],"name":"generateCommitment","outputs":[{"internalType":"bytes32","name":"","type":"bytes32"}],"stateMutability":"pure","type":"function"},{"inputs":[{"internalType":"uint256","name":"_gameId","type":"uint256"}],"name":"getGame","outputs":[{"internalType":"address","name":"player1","type":"address"},{"internalType":"address","name":"player2","type":"address"},{"internalType":"uint256","name":"betAmount","type":"uint256"},{"internalType":"enum RockPaperScissors.GameState","name":"state","type":"uint8"},{"internalType":"enum RockPaperScissors.Choice","name":"player1Choice","type":"uint8"},{"internalType":"enum RockPaperScissors.Choice","name":"player2Choice","type":"uint8"},{"internalType":"address","name":"winner","type":"address"},{"internalType":"uint256","name":"deadline","type":"uint256"},{"internalType":"bool","name":"prizeClaimed","type":"bool"}],"stateMutability":"view","type":"function"},{"inputs":[{"internalType":"uint256","name":"_start","type":"uint256"},{"internalType":"uint256","name":"_limit","type":"uint256"}],"name":"getOpenGames","outputs":[{"internalType":"uint256[]","name":"openGames","type":"uint256[]"}],"stateMutability":"view","type":"function"},{"inputs":[],"name":"getPlatformStats","outputs":[{"internalType":"uint256","name":"_totalGames","type":"uint256"},{"internalType":"uint256","name":"_totalVolume","type":"uint256"},{"internalType":"uint256","name":"_platformFee","type":"uint256"},{"internalType":"uint256","name":"_platformBalance","type":"uint256"}],"stateMutability":"view","type":"function"},{"inputs":[{"internalType":"address","name":"_player","type":"address"}],"name":"getPlayerGames","outputs":[{"internalType":"uint256[]","name":"","type":"uint256[]"}],"stateMutability":"view","type":"function"},{"inputs":[{"internalType":"address","name":"_player","type":"address"}],"name":"getPlayerStats","outputs":[{"internalType":"uint256","name":"wins","type":"uint256"}],"stateMutability":"view","type":"function"},{"inputs":[{"internalType":"uint256","name":"_gameId","type":"uint256"},{"internalType":"bytes32","name":"_commitment","type":"bytes32"}],"name":"joinGame","outputs":[],"stateMutability":"payable","type":"function"},{"inputs":[],"name":"nextGameId","outputs":[{"internalType":"uint256","name":"","type":"uint256"}],"stateMutability":"view","type":"function"},{"inputs":[],"name":"platformBalance","outputs":[{"internalType":"uint256","name":"","type":"uint256"}],"stateMutability":"view","type":"function"},{"inputs":[],"name":"platformFee","outputs":[{"internalType":"uint256","name":"","type":"uint256"}],"stateMutability":"view","type":"function"},{"inputs":[],"name":"platformOwner","outputs":[{"internalType":"address","name":"","type":"address"}],"stateMutability":"view","type":"function"},{"inputs":[{"internalType":"address","name":"","type":"address"},{"internalType":"uint256","name":"","type":"uint256"}],"name":"playerGames","outputs":[{"internalType":"uint256","name":"","type":"uint256"}],"stateMutability":"view","type":"function"},{"inputs":[{"internalType":"address","name":"","type":"address"}],"name":"playerStats","outputs":[{"internalType":"uint256","name":"","type":"uint256"}],"stateMutability":"view","type":"function"},{"inputs":[{"internalType":"uint256","name":"_gameId","type":"uint256"},{"internalType":"enum RockPaperScissors.Choice","name":"_choice","type":"uint8"},{"internalType":"uint256","name":"_nonce","type":"uint256"}],"name":"revealChoice","outputs":[],"stateMutability":"nonpayable","type":"function"},{"inputs":[],"name":"totalGames","outputs":[{"internalType":"uint256","name":"","type":"uint256"}],"stateMutability":"view","type":"function"},{"inputs":[],"name":"totalVolume","outputs":[{"internalType":"uint256","name":"","type":"uint256"}],"stateMutability":"view","type":"function"},{"inputs":[{"internalType":"address","name":"_newOwner","type":"address"}],"name":"transferOwnership","outputs":[],"stateMutability":"nonpayable","type":"function"},{"inputs":[{"internalType":"uint256","name":"_newFee","type":"uint256"}],"name":"updatePlatformFee","outputs":[],"stateMutability":"nonpayable","type":"function"},{"inputs":[],"name":"withdrawPlatformFees","outputs":[],"stateMutability":"nonpayable","type":"function"}],"devdoc":{"details":"A provably fair Rock Paper Scissors game with betting and commitment-reveal scheme","kind":"dev","methods":{"claimTimeoutPrize(uint256)":{"details":"Claim prize for timeout (if opponent doesn't reveal in time)","params":{"_gameId":"ID of the game"}},"createGame(bytes32)":{"details":"Create a new Rock Paper Scissors game","params":{"_commitment":"Player 1's commitment (hash of choice + nonce)"}},"generateCommitment(uint8,uint256,address)":{"details":"Generate commitment hash for frontend","params":{"_choice":"Player's choice","_nonce":"Random nonce","_player":"Player's address"}},"getGame(uint256)":{"details":"Get game details"},"getOpenGames(uint256,uint256)":{"details":"Get open games for joining"},"getPlatformStats()":{"details":"Get platform statistics"},"getPlayerGames(address)":{"details":"Get player's game history"},"getPlayerStats(address)":{"details":"Get player statistics"},"joinGame(uint256,bytes32)":{"details":"Join an existing game as player 2","params":{"_commitment":"Player 2's commitment","_gameId":"ID of the game to join"}},"revealChoice(uint256,uint8,uint256)":{"details":"Reveal player's choice","params":{"_choice":"Player's actual choice","_gameId":"ID of the game","_nonce":"Nonce used in commitment"}},"transferOwnership(address)":{"details":"Transfer ownership"},"updatePlatformFee(uint256)":{"details":"Update platform fee (only owner)"},"withdrawPlatformFees()":{"details":"Withdraw platform fees"}},"title":"RockPaperScissors","version":1},"evm":{"bytecode":{"linkReferences":{},"object":"608060405260c860065534801561001557600080fd5b50600780546001600160a01b031916331790556122fd806100376000396000f3fe6080604052600436106101665760003560e01c80636540742f116100d1578063aa0b59881161008a578063cdafbbb611610064578063cdafbbb6146104b6578063d0b7830b146104e3578063de92285f146104f8578063f2fde38b1461051857600080fd5b8063aa0b59881461046d578063ac9526711461048d578063b135bbb0146104a057600080fd5b80636540742f1461039f578063681911bc146103ba5780637e95b523146103da5780639e466298146103f6578063a023b9bf14610418578063a2f77bcc1461043857600080fd5b80633d6ae3a7116101235780633d6ae3a7146102dc578063457391e5146102f25780634df8ccb1146103055780634fd66eae1461033d5780635f81a57c1461037357806362a5dbbc1461038957600080fd5b80630a5694c21461016b578063117a5b901461019e578063129daf841461024a578063136d88831461027757806326232a2e146102b05780632c4e591b146102c6575b600080fd5b34801561017757600080fd5b5061018b610186366004611eba565b610538565b6040519081526020015b60405180910390f35b3480156101aa57600080fd5b506102326101b9366004611ee4565b6000602081905290815260409020805460018201546002830154600384015460048501546005860154600687015460078801546008909801546001600160a01b03978816989688169795969495939460ff808516956101008604821695620100008104831695630100000090910490911693909291168c565b6040516101959c9b9a99989796959493929190611f34565b34801561025657600080fd5b5061026a610265366004611fc3565b610569565b6040516101959190611fe5565b34801561028357600080fd5b50600454600554600654600854604080519485526020850193909352918301526060820152608001610195565b3480156102bc57600080fd5b5061018b60065481565b3480156102d257600080fd5b5061018b60045481565b3480156102e857600080fd5b5061018b610e1081565b61018b610300366004611ee4565b6105d5565b34801561031157600080fd5b50600754610325906001600160a01b031681565b6040516001600160a01b039091168152602001610195565b34801561034957600080fd5b5061018b610358366004611fc3565b6001600160a01b031660009081526002602052604090205490565b34801561037f57600080fd5b5061018b60055481565b34801561039557600080fd5b5061018b60085481565b3480156103ab57600080fd5b5061018b66038d7ea4c6800081565b3480156103c657600080fd5b5061018b6103d5366004612038565b6108b2565b3480156103e657600080fd5b5061018b678ac7230489e8000081565b34801561040257600080fd5b50610416610411366004611ee4565b6108e8565b005b34801561042457600080fd5b50610416610433366004612074565b610e92565b34801561044457600080fd5b50610458610453366004611ee4565b61139c565b604051610195999897969594939291906120a9565b34801561047957600080fd5b50610416610488366004611ee4565b611578565b61041661049b36600461211e565b6115e8565b3480156104ac57600080fd5b5061018b60035481565b3480156104c257600080fd5b5061018b6104d1366004611fc3565b60026020526000908152604090205481565b3480156104ef57600080fd5b506104166117f4565b34801561050457600080fd5b5061026a61051336600461211e565b6118a2565b34801561052457600080fd5b50610416610533366004611fc3565b611a19565b6001602052816000526040600020818154811061055457600080fd5b90600052602060002001600091509150505481565b6001600160a01b0381166000908152600160209081526040918290208054835181840281018401909452808452606093928301828280156105c957602002820191906000526020600020905b8154815260200190600101908083116105b5575b50505050509050919050565b600066038d7ea4c680003410806105f35750678ac7230489e8000034115b1561061157604051639de3d44160e01b815260040160405180910390fd5b816106585760405162461bcd60e51b8152602060048201526012602482015271125b9d985b1a590818dbdb5b5a5d1b595b9d60721b60448201526064015b60405180910390fd5b6003805490600061066883612156565b9091555060408051610180810182523381526000602082018190523492820192909252606081018590526080810182905291925060a08201908152602001600081526020016000815260200160006001600160a01b03168152602001428152602001610e10426106d8919061216f565b815260006020918201819052838152808252604090819020835181546001600160a01b039182166001600160a01b03199182161783559385015160018381018054929093169190951617905590830151600282015560608301516003808301919091556080840151600483015560a084015160058301805493949193909260ff199091169190849081111561076f5761076f611efd565b021790555060c082015160058201805461ff00191661010083600381111561079957610799611efd565b021790555060e082015160058201805462ff00001916620100008360038111156107c5576107c5611efd565b02179055506101008201516005820180546301000000600160b81b03191663010000006001600160a01b039093169290920291909117905561012082015160068201556101408201516007820155610160909101516008909101805460ff19169115159190911790553360009081526001602081815260408320805492830181558352822001829055600480549161085c83612156565b90915550506000818152602081815260409182902060070154825134815291820152339183917f7ed9b48d83e08a25a1572b27a365dfb386da7860c996e684e541e3433b792147910160405180910390a3919050565b60008383836040516020016108c993929190612182565b6040516020818303038152906040528051906020012090509392505050565b80600354811061090a5760405162461bcd60e51b815260040161064f906121b8565b60008281526020818152604080832081516101808101835281546001600160a01b039081168252600183015416938101939093526002810154918301919091526003808201546060840152600482015460808401526005820154869493929160a084019160ff169081111561098157610981611efd565b600381111561099257610992611efd565b81526020016005820160019054906101000a900460ff1660038111156109ba576109ba611efd565b60038111156109cb576109cb611efd565b81526020016005820160029054906101000a900460ff1660038111156109f3576109f3611efd565b6003811115610a0457610a04611efd565b81526005820154630100000090046001600160a01b039081166020830152600683015460408301526007830154606083015260089092015460ff161515608090910152815191925016331480610a6f575080602001516001600160a01b0316336001600160a01b0316145b610aaf5760405162461bcd60e51b81526020600482015260116024820152702737ba10309033b0b6b290383630bcb2b960791b604482015260640161064f565b600084815260208190526040902060078101544211610b065760405162461bcd60e51b8152602060048201526013602482015272151a5b595bdd5d081b9bdd081c995858da1959606a1b604482015260640161064f565b6002600582015462010000900460ff166003811115610b2757610b27611efd565b14610b745760405162461bcd60e51b815260206004820152601860248201527f47616d65206e6f7420696e2072657665616c2070686173650000000000000000604482015260640161064f565b600881015460ff1615610bc15760405162461bcd60e51b8152602060048201526015602482015274141c9a5e9948185b1c9958591e4818db185a5b5959605a1b604482015260640161064f565b600080600583015460ff166003811115610bdd57610bdd611efd565b14158015610c08575060006005830154610100900460ff166003811115610c0657610c06611efd565b145b15610c1e575080546001600160a01b0316610cbd565b60006005830154610100900460ff166003811115610c3e57610c3e611efd565b14158015610c6457506000600583015460ff166003811115610c6257610c62611efd565b145b15610c7d575060018101546001600160a01b0316610cbd565b60405162461bcd60e51b8152602060048201526015602482015274496e76616c69642074696d656f757420636c61696d60581b604482015260640161064f565b336001600160a01b03821614610d0d5760405162461bcd60e51b81526020600482015260156024820152744f6e6c792077696e6e65722063616e20636c61696d60581b604482015260640161064f565b60058201805462010000600160b81b03191663010000006001600160a01b0384160262ff00001916176203000017905560088201805460ff19166001179055600280830154600091610d5f91906121e5565b9050600061271060065483610d7491906121e5565b610d7e91906121fc565b90506000610d8c828461221e565b90508160086000828254610da0919061216f565b90915550506001600160a01b0384166000908152600260205260408120805491610dc983612156565b91905055506000846001600160a01b03168260405160006040518083038185875af1925050503d8060008114610e1b576040519150601f19603f3d011682016040523d82523d6000602084013e610e20565b606091505b5050905080610e42576040516312171d8360e31b815260040160405180910390fd5b846001600160a01b03168a7f4aa95f981a8337cb337de335b965507da0879c3b49f799d20058e913f5ad2c2684604051610e7e91815260200190565b60405180910390a350505050505050505050565b826003548110610eb45760405162461bcd60e51b815260040161064f906121b8565b60008481526020818152604080832081516101808101835281546001600160a01b039081168252600183015416938101939093526002810154918301919091526003808201546060840152600482015460808401526005820154889493929160a084019160ff1690811115610f2b57610f2b611efd565b6003811115610f3c57610f3c611efd565b81526020016005820160019054906101000a900460ff166003811115610f6457610f64611efd565b6003811115610f7557610f75611efd565b81526020016005820160029054906101000a900460ff166003811115610f9d57610f9d611efd565b6003811115610fae57610fae611efd565b81526005820154630100000090046001600160a01b039081166020830152600683015460408301526007830154606083015260089092015460ff161515608090910152815191925016331480611019575080602001516001600160a01b0316336001600160a01b0316145b6110595760405162461bcd60e51b81526020600482015260116024820152702737ba10309033b0b6b290383630bcb2b960791b604482015260640161064f565b60008681526020819052604090206001600582015462010000900460ff16600381111561108857611088611efd565b141580156110b557506002600582015462010000900460ff1660038111156110b2576110b2611efd565b14155b156110d35760405163ba1e766760e01b815260040160405180910390fd5b60008660038111156110e7576110e7611efd565b14806111045750600386600381111561110257611102611efd565b115b1561112257604051639c45400160e01b815260040160405180910390fd5b600086863360405160200161113993929190612182565b60408051601f19818403018152919052805160209091012082549091506001600160a01b0316330361120f578160030154811461118957604051636033c4fd60e11b815260040160405180910390fd5b6000600583015460ff1660038111156111a4576111a4611efd565b146111e45760405162461bcd60e51b815260206004820152601060248201526f105b1c9958591e481c995d99585b195960821b604482015260640161064f565b60058201805488919060ff1916600183600381111561120557611205611efd565b02179055506112bc565b8160040154811461123357604051636033c4fd60e11b815260040160405180910390fd5b60006005830154610100900460ff16600381111561125357611253611efd565b146112935760405162461bcd60e51b815260206004820152601060248201526f105b1c9958591e481c995d99585b195960821b604482015260640161064f565b60058201805488919061ff0019166101008360038111156112b6576112b6611efd565b02179055505b336001600160a01b0316887f67a65ec25115523b341c85ef61950da78cd3dea21f0b9d94d952b0f7d537c05e896040516112f69190612231565b60405180910390a36000600583015460ff16600381111561131957611319611efd565b14158015611345575060006005830154610100900460ff16600381111561134257611342611efd565b14155b156113585761135388611aad565b611392565b6001600583015462010000900460ff16600381111561137957611379611efd565b036113925760058201805462ff00001916620200001790555b5050505050505050565b60008060008060008060008060008960035481106113cc5760405162461bcd60e51b815260040161064f906121b8565b60008b81526020818152604080832081516101808101835281546001600160a01b03908116825260018301541693810193909352600281015491830191909152600380820154606084015260048201546080840152600582015460a084019160ff9091169081111561144057611440611efd565b600381111561145157611451611efd565b81526020016005820160019054906101000a900460ff16600381111561147957611479611efd565b600381111561148a5761148a611efd565b81526020016005820160029054906101000a900460ff1660038111156114b2576114b2611efd565b60038111156114c3576114c3611efd565b81526020016005820160039054906101000a90046001600160a01b03166001600160a01b03166001600160a01b0316815260200160068201548152602001600782015481526020016008820160009054906101000a900460ff16151515158152505090508060000151816020015182604001518360e001518460a001518560c001518661010001518761014001518861016001519a509a509a509a509a509a509a509a509a5050509193959799909294969850565b6007546001600160a01b031633146115a25760405162461bcd60e51b815260040161064f90612244565b6103e88111156115e35760405162461bcd60e51b815260206004820152600c60248201526b08ccaca40e8dede40d0d2ced60a31b604482015260640161064f565b600655565b81600354811061160a5760405162461bcd60e51b815260040161064f906121b8565b600083815260208190526040812090600582015462010000900460ff16600381111561163857611638611efd565b1461165657604051635c07b6d760e11b815260040160405180910390fd5b80546001600160a01b031633036116af5760405162461bcd60e51b815260206004820152601c60248201527f43616e6e6f7420706c617920616761696e737420796f757273656c6600000000604482015260640161064f565b806002015434146116fa5760405162461bcd60e51b8152602060048201526015602482015274135d5cdd081b585d18da0818995d08185b5bdd5b9d605a1b604482015260640161064f565b8261173c5760405162461bcd60e51b8152602060048201526012602482015271125b9d985b1a590818dbdb5b5a5d1b595b9d60721b604482015260640161064f565b600180820180546001600160a01b031916331790556004820184905560058201805462ff000019166201000083021790555061177a610e104261216f565b60078201553360009081526001602081815260408320805492830181558352909120018490556117ab3460026121e5565b600560008282546117bc919061216f565b9091555050604051339085907f87969bc7faf902221a147b95ceba76e011c5efb0339a0a8ee7a2bb82d9cfbbd690600090a350505050565b6007546001600160a01b0316331461181e5760405162461bcd60e51b815260040161064f90612244565b600880546000918290556007546040519192916001600160a01b039091169083908381818185875af1925050503d8060008114611877576040519150601f19603f3d011682016040523d82523d6000602084013e61187c565b606091505b505090508061189e576040516312171d8360e31b815260040160405180910390fd5b5050565b6060600060035467ffffffffffffffff8111156118c1576118c1612271565b6040519080825280602002602001820160405280156118ea578160200160208202803683370190505b5090506000845b6003548110801561190157508482105b15611976576000808281526020819052604090206005015462010000900460ff16600381111561193357611933611efd565b03611964578083838151811061194b5761194b612287565b60209081029190910101528161196081612156565b9250505b8061196e81612156565b9150506118f1565b508067ffffffffffffffff81111561199057611990612271565b6040519080825280602002602001820160405280156119b9578160200160208202803683370190505b50925060005b81811015611a10578281815181106119d9576119d9612287565b60200260200101518482815181106119f3576119f3612287565b602090810291909101015280611a0881612156565b9150506119bf565b50505092915050565b6007546001600160a01b03163314611a435760405162461bcd60e51b815260040161064f90612244565b6001600160a01b038116611a8b5760405162461bcd60e51b815260206004820152600f60248201526e496e76616c6964206164647265737360881b604482015260640161064f565b600780546001600160a01b0319166001600160a01b0392909216919091179055565b60008181526020819052604081206005810154909190611ad89060ff80821691610100900416611d74565b6005830180546203000062010000600160b81b031990911662ff00001963010000006001600160a01b038616021617179055600280840154919250600091611b1f916121e5565b9050600061271060065483611b3491906121e5565b611b3e91906121fc565b90506000611b4c828461221e565b90508160086000828254611b60919061216f565b90915550506001600160a01b03841615611c17576001600160a01b0384166000908152600260205260408120805491611b9883612156565b91905055506000846001600160a01b03168260405160006040518083038185875af1925050503d8060008114611bea576040519150601f19603f3d011682016040523d82523d6000602084013e611bef565b606091505b5050905080611c11576040516312171d8360e31b815260040160405180910390fd5b50611d06565b6000611c246002836121fc565b86546040519192506000916001600160a01b039091169083908381818185875af1925050503d8060008114611c75576040519150601f19603f3d011682016040523d82523d6000602084013e611c7a565b606091505b505060018801546040519192506000916001600160a01b039091169084908381818185875af1925050503d8060008114611cd0576040519150601f19603f3d011682016040523d82523d6000602084013e611cd5565b606091505b50509050811580611ce4575080155b15611d02576040516312171d8360e31b815260040160405180910390fd5b5050505b60088501805460ff1916600117905560058501546040516001600160a01b0386169188917f3eaa8ef3d1f3d0f08ba8d83b92f95edb50e575eccf1775c6a07647b39ec7e78f91611d649160ff8281169261010090041690879061229d565b60405180910390a3505050505050565b6000816003811115611d8857611d88611efd565b836003811115611d9a57611d9a611efd565b03611da757506000611e98565b60008080526020527fad3228b676f7d3cd4284a5443f17f1962b36e491b30a40b2405849e597ba5fb56001846003811115611de457611de4611efd565b148015611e0257506003836003811115611e0057611e00611efd565b145b80611e3a57506002846003811115611e1c57611e1c611efd565b148015611e3a57506001836003811115611e3857611e38611efd565b145b80611e7257506003846003811115611e5457611e54611efd565b148015611e7257506002836003811115611e7057611e70611efd565b145b15611e8857546001600160a01b03169050611e98565b600101546001600160a01b031690505b92915050565b80356001600160a01b0381168114611eb557600080fd5b919050565b60008060408385031215611ecd57600080fd5b611ed683611e9e565b946020939093013593505050565b600060208284031215611ef657600080fd5b5035919050565b634e487b7160e01b600052602160045260246000fd5b60048110611f3157634e487b7160e01b600052602160045260246000fd5b50565b6001600160a01b038d811682528c81166020830152604082018c9052606082018b9052608082018a9052610180820190611f6d8a611f13565b8960a0840152611f7c89611f13565b8860c0840152611f8b88611f13565b8760e08401528087166101008401525084610120830152836101408301528215156101608301529d9c50505050505050505050505050565b600060208284031215611fd557600080fd5b611fde82611e9e565b9392505050565b6020808252825182820181905260009190848201906040850190845b8181101561201d57835183529284019291840191600101612001565b50909695505050505050565b803560048110611eb557600080fd5b60008060006060848603121561204d57600080fd5b61205684612029565b92506020840135915061206b60408501611e9e565b90509250925092565b60008060006060848603121561208957600080fd5b8335925061209960208501612029565b9150604084013590509250925092565b6001600160a01b038a811682528981166020830152604082018990526101208201906120d489611f13565b8860608401526120e388611f13565b8760808401526120f287611f13565b8660a084015280861660c0840152508360e08301528215156101008301529a9950505050505050505050565b6000806040838503121561213157600080fd5b50508035926020909101359150565b634e487b7160e01b600052601160045260246000fd5b60006001820161216857612168612140565b5060010190565b80820180821115611e9857611e98612140565b61218b84611f13565b60f89390931b8352600183019190915260601b6bffffffffffffffffffffffff1916602182015260350190565b60208082526013908201527211d85b5948191bd95cc81b9bdd08195e1a5cdd606a1b604082015260600190565b8082028115828204841417611e9857611e98612140565b60008261221957634e487b7160e01b600052601260045260246000fd5b500490565b81810381811115611e9857611e98612140565b6020810161223e83611f13565b91905290565b60208082526013908201527227b7363c90383630ba3337b9369037bbb732b960691b604082015260600190565b634e487b7160e01b600052604160045260246000fd5b634e487b7160e01b600052603260045260246000fd5b606081016122aa85611f13565b8482526122b684611f13565b60208201939093526040015291905056fea2646970667358221220fbeb66202d21a3bad11ff514fd864700a3ff09b07eb355a94f80c5a6f052995364736f6c63430008140033","opcodes":"PUSH1 0x80 PUSH1 0x40 MSTORE PUSH1 0xC8 PUSH1 0x6 SSTORE CALLVALUE DUP1 ISZERO PUSH2 0x15 JUMPI PUSH1 0x0 DUP1 REVERT JUMPDEST POP PUSH1 0x7 DUP1 SLOAD PUSH1 0x1 PUSH1 0x1 PUSH1 0xA0 SHL SUB NOT AND CALLER OR SWAP1 SSTORE PUSH2 0x22FD DUP1 PUSH2 0x37 PUSH1 0x0 CODECOPY PUSH1 0x0 RETURN INVALID PUSH1 0x80 PUSH1 0x40 MSTORE PUSH1 0x4 CALLDATASIZE LT PUSH2 0x166 JUMPI PUSH1 0x0 CALLDATALOAD PUSH1 0xE0 SHR DUP1 PUSH4 0x6540742F GT PUSH2 0xD1 JUMPI DUP1 PUSH4 0xAA0B5988 GT PUSH2 0x8A JUMPI DUP1 PUSH4 0xCDAFBBB6 GT PUSH2 0x64 JUMPI DUP1 PUSH4 0xCDAFBBB6 EQ PUSH2 0x4B6 JUMPI DUP1 PUSH4 0xD0B7830B EQ PUSH2 0x4E3 JUMPI DUP1 PUSH4 0xDE92285F EQ PUSH2 0x4F8 JUMPI DUP1 PUSH4 0xF2FDE38B EQ PUSH2 0x518 JUMPI PUSH1 0x0 DUP1 REVERT JUMPDEST DUP1 PUSH4 0xAA0B5988 EQ PUSH2 0x46D JUMPI DUP1 PUSH4 0xAC952671 EQ PUSH2 0x48D JUMPI DUP1 PUSH4 0xB135BBB0 EQ PUSH2 0x4A0 JUMPI PUSH1 0x0 DUP1 REVERT JUMPDEST DUP1 PUSH4 0x6540742F EQ PUSH2 0x39F JUMPI DUP1 PUSH4 0x681911BC EQ PUSH2 0x3BA JUMPI DUP1 PUSH4 0x7E95B523 EQ PUSH2 0x3DA JUMPI DUP1 PUSH4 0x9E466298 EQ PUSH2 0x3F6 JUMPI DUP1 PUSH4 0xA023B9BF EQ PUSH2 0x418 JUMPI DUP1 PUSH4 0xA2F77BCC EQ PUSH2 0x438 JUMPI PUSH1 0x0 DUP1 REVERT JUMPDEST DUP1 PUSH4 0x3D6AE3A7 GT PUSH2 0x123 JUMPI DUP1 PUSH4 0x3D6AE3A7 EQ PUSH2 0x2DC JUMPI DUP1 PUSH4 0x457391E5 EQ PUSH2 0x2F2 JUMPI DUP1 PUSH4 0x4DF8CCB1 EQ PUSH2 0x305 JUMPI DUP1 PUSH4 0x4FD66EAE EQ PUSH2 0x33D JUMPI DUP1 PUSH4 0x5F81A57C EQ PUSH2 0x373 JUMPI DUP1 PUSH4 0x62A5DBBC EQ PUSH2 0x389 JUMPI PUSH1 0x0 DUP1 REVERT JUMPDEST DUP1 PUSH4 0xA5694C2 EQ PUSH2 0x16B JUMPI DUP1 PUSH4 0x117A5B90 EQ PUSH2 0x19E JUMPI DUP1 PUSH4 0x129DAF84 EQ PUSH2 0x24A JUMPI DUP1 PUSH4 0x136D8883 EQ PUSH2 0x277 JUMPI DUP1 PUSH4 0x26232A2E EQ PUSH2 0x2B0 JUMPI DUP1 PUSH4 0x2C4E591B EQ PUSH2 0x2C6 JUMPI JUMPDEST PUSH1 0x0 DUP1 REVERT JUMPDEST CALLVALUE DUP1 ISZERO PUSH2 0x177 JUMPI PUSH1 0x0 DUP1 REVERT JUMPDEST POP PUSH2 0x18B PUSH2 0x186 CALLDATASIZE PUSH1 0x4 PUSH2 0x1EBA JUMP JUMPDEST PUSH2 0x538 JUMP JUMPDEST PUSH1 0x40 MLOAD SWAP1 DUP2 MSTORE PUSH1 0x20 ADD JUMPDEST PUSH1 0x40 MLOAD DUP1 SWAP2 SUB SWAP1 RETURN JUMPDEST CALLVALUE DUP1 ISZERO PUSH2 0x1AA JUMPI PUSH1 0x0 DUP1 REVERT JUMPDEST POP PUSH2 0x232 PUSH2 0x1B9 CALLDATASIZE PUSH1 0x4 PUSH2 0x1EE4 JUMP JUMPDEST PUSH1 0x0 PUSH1 0x20 DUP2 SWAP1 MSTORE SWAP1 DUP2 MSTORE PUSH1 0x40 SWAP1 KECCAK256 DUP1 SLOAD PUSH1 0x1 DUP3 ADD SLOAD PUSH1 0x2 DUP4 ADD SLOAD PUSH1 0x3 DUP5 ADD SLOAD PUSH1 0x4 DUP6 ADD SLOAD PUSH1 0x5 DUP7 ADD SLOAD PUSH1 0x6 DUP8 ADD SLOAD PUSH1 0x7 DUP9 ADD SLOAD PUSH1 0x8 SWAP1 SWAP9 ADD SLOAD PUSH1 0x1 PUSH1 0x1 PUSH1 0xA0 SHL SUB SWAP8 DUP9 AND SWAP9 SWAP7 DUP9 AND SWAP8 SWAP6 SWAP7 SWAP5 SWAP6 SWAP4 SWAP5 PUSH1 0xFF DUP1 DUP6 AND SWAP6 PUSH2 0x100 DUP7 DIV DUP3 AND SWAP6 PUSH3 0x10000 DUP2 DIV DUP4 AND SWAP6 PUSH4 0x1000000 SWAP1 SWAP2 DIV SWAP1 SWAP2 AND SWAP4 SWAP1 SWAP3 SWAP2 AND DUP13 JUMP JUMPDEST PUSH1 0x40 MLOAD PUSH2 0x195 SWAP13 SWAP12 SWAP11 SWAP10 SWAP9 SWAP8 SWAP7 SWAP6 SWAP5 SWAP4 SWAP3 SWAP2 SWAP1 PUSH2 0x1F34 JUMP JUMPDEST CALLVALUE DUP1 ISZERO PUSH2 0x256 JUMPI PUSH1 0x0 DUP1 REVERT JUMPDEST POP PUSH2 0x26A PUSH2 0x265 CALLDATASIZE PUSH1 0x4 PUSH2 0x1FC3 JUMP JUMPDEST PUSH2 0x569 JUMP JUMPDEST PUSH1 0x40 MLOAD PUSH2 0x195 SWAP2 SWAP1 PUSH2 0x1FE5 JUMP JUMPDEST CALLVALUE DUP1 ISZERO PUSH2 0x283 JUMPI PUSH1 0x0 DUP1 REVERT JUMPDEST POP PUSH1 0x4 SLOAD PUSH1 0x5 SLOAD PUSH1 0x6 SLOAD PUSH1 0x8 SLOAD PUSH1 0x40 DUP1 MLOAD SWAP5 DUP6 MSTORE PUSH1 0x20 DUP6 ADD SWAP4 SWAP1 SWAP4 MSTORE SWAP2 DUP4 ADD MSTORE PUSH1 0x60 DUP3 ADD MSTORE PUSH1 0x80 ADD PUSH2 0x195 JUMP JUMPDEST CALLVALUE DUP1 ISZERO PUSH2 0x2BC JUMPI PUSH1 0x0 DUP1 REVERT JUMPDEST POP PUSH2 0x18B PUSH1 0x6 SLOAD DUP2 JUMP JUMPDEST CALLVALUE DUP1 ISZERO PUSH2 0x2D2 JUMPI PUSH1 0x0 DUP1 REVERT JUMPDEST POP PUSH2 0x18B PUSH1 0x4 SLOAD DUP2 JUMP JUMPDEST CALLVALUE DUP1 ISZERO PUSH2 0x2E8 JUMPI PUSH1 0x0 DUP1 REVERT JUMPDEST POP PUSH2 0x18B PUSH2 0xE10 DUP2 JUMP JUMPDEST PUSH2 0x18B PUSH2 0x300 CALLDATASIZE PUSH1 0x4 PUSH2 0x1EE4 JUMP JUMPDEST PUSH2 0x5D5 JUMP JUMPDEST CALLVALUE DUP1 ISZERO PUSH2 0x311 JUMPI PUSH1 0x0 DUP1 REVERT JUMPDEST POP PUSH1 0x7 SLOAD PUSH2 0x325 SWAP1 PUSH1 0x1 PUSH1 0x1 PUSH1 0xA0 SHL SUB AND DUP2 JUMP JUMPDEST PUSH1 0x40 MLOAD PUSH1 0x1 PUSH1 0x1 PUSH1 0xA0 SHL SUB SWAP1 SWAP2 AND DUP2 MSTORE PUSH1 0x20 ADD PUSH2 0x195 JUMP JUMPDEST CALLVALUE DUP1 ISZERO PUSH2 0x349 JUMPI PUSH1 0x0 DUP1 REVERT JUMPDEST POP PUSH2 0x18B PUSH2 0x358 CALLDATASIZE PUSH1 0x4 PUSH2 0x1FC3 JUMP JUMPDEST PUSH1 0x1 PUSH1 0x1 PUSH1 0xA0 SHL SUB AND PUSH1 0x0 SWAP1 DUP2 MSTORE PUSH1 0x2 PUSH1 0x20 MSTORE PUSH1 0x40 SWAP1 KECCAK256 SLOAD SWAP1 JUMP JUMPDEST CALLVALUE DUP1 ISZERO PUSH2 0x37F JUMPI PUSH1 0x0 DUP1 REVERT JUMPDEST POP PUSH2 0x18B PUSH1 0x5 SLOAD DUP2 JUMP JUMPDEST CALLVALUE DUP1 ISZERO PUSH2 0x395 JUMPI PUSH1 0x0 DUP1 REVERT JUMPDEST POP PUSH2 0x18B PUSH1 0x8 SLOAD DUP2 JUMP JUMPDEST CALLVALUE DUP1 ISZERO PUSH2 0x3AB JUMPI PUSH1 0x0 DUP1 REVERT JUMPDEST POP PUSH2 0x18B PUSH7 0x38D7EA4C68000 DUP2 JUMP JUMPDEST CALLVALUE DUP1 ISZERO PUSH2 0x3C6 JUMPI PUSH1 0x0 DUP1 REVERT JUMPDEST POP PUSH2 0x18B PUSH2 0x3D5 CALLDATASIZE PUSH1 0x4 PUSH2 0x2038 JUMP JUMPDEST PUSH2 0x8B2 JUMP JUMPDEST CALLVALUE DUP1 ISZERO PUSH2 0x3E6 JUMPI PUSH1 0x0 DUP1 REVERT JUMPDEST POP PUSH2 0x18B PUSH8 0x8AC7230489E80000 DUP2 JUMP JUMPDEST CALLVALUE DUP1 ISZERO PUSH2 0x402 JUMPI PUSH1 0x0 DUP1 REVERT JUMPDEST POP PUSH2 0x416 PUSH2 0x411 CALLDATASIZE PUSH1 0x4 PUSH2 0x1EE4 JUMP JUMPDEST PUSH2 0x8E8 JUMP JUMPDEST STOP JUMPDEST CALLVALUE DUP1 ISZERO PUSH2 0x424 JUMPI PUSH1 0x0 DUP1 REVERT JUMPDEST POP PUSH2 0x416 PUSH2 0x433 CALLDATASIZE PUSH1 0x4 PUSH2 0x2074 JUMP JUMPDEST PUSH2 0xE92 JUMP JUMPDEST CALLVALUE DUP1 ISZERO PUSH2 0x444 JUMPI PUSH1 0x0 DUP1 REVERT JUMPDEST POP PUSH2 0x458 PUSH2 0x453 CALLDATASIZE PUSH1 0x4 PUSH2 0x1EE4 JUMP JUMPDEST PUSH2 0x139C JUMP JUMPDEST PUSH1 0x40 MLOAD PUSH2 0x195 SWAP10 SWAP9 SWAP8 SWAP7 SWAP6 SWAP5 SWAP4 SWAP3 SWAP2 SWAP1 PUSH2 0x20A9 JUMP JUMPDEST CALLVALUE DUP1 ISZERO PUSH2 0x479 JUMPI PUSH1 0x0 DUP1 REVERT JUMPDEST POP PUSH2 0x416 PUSH2 0x488 CALLDATASIZE PUSH1 0x4 PUSH2 0x1EE4 JUMP JUMPDEST PUSH2 0x1578 JUMP JUMPDEST PUSH2 0x416 PUSH2 0x49B CALLDATASIZE PUSH1 0x4 PUSH2 0x211E JUMP JUMPDEST PUSH2 0x15E8 JUMP JUMPDEST CALLVALUE DUP1 ISZERO PUSH2 0x4AC JUMPI PUSH1 0x0 DUP1 REVERT JUMPDEST POP PUSH2 0x18B PUSH1 0x3 SLOAD DUP2 JUMP JUMPDEST CALLVALUE DUP1 ISZERO PUSH2 0x4C2 JUMPI PUSH1 0x0 DUP1 REVERT JUMPDEST POP PUSH2 0x18B PUSH2 0x4D1 CALLDATASIZE PUSH1 0x4 PUSH2 0x1FC3 JUMP JUMPDEST PUSH1 0x2 PUSH1 0x20 MSTORE PUSH1 0x0 SWAP1 DUP2 MSTORE PUSH1 0x40 SWAP1 KECCAK256 SLOAD DUP2 JUMP JUMPDEST CALLVALUE DUP1 ISZERO PUSH2 0x4EF JUMPI PUSH1 0x0 DUP1 REVERT JUMPDEST POP PUSH2 0x416 PUSH2 0x17F4 JUMP JUMPDEST CALLVALUE DUP1 ISZERO PUSH2 0x504 JUMPI PUSH1 0x0 DUP1 REVERT JUMPDEST POP PUSH2 0x26A PUSH2 0x513 CALLDATASIZE PUSH1 0x4 PUSH2 0x211E JUMP JUMPDEST PUSH2 0x18A2 JUMP JUMPDEST CALLVALUE DUP1 ISZERO PUSH2 0x524 JUMPI PUSH1 0x0 DUP1 REVERT JUMPDEST POP PUSH2 0x416 PUSH2 0x533 CALLDATASIZE PUSH1 0x4 PUSH2 0x1FC3 JUMP JUMPDEST PUSH2 0x1A19 JUMP JUMPDEST PUSH1 0x1 PUSH1 0x20 MSTORE DUP2 PUSH1 0x0 MSTORE PUSH1 0x40 PUSH1 0x0 KECCAK256 DUP2 DUP2 SLOAD DUP2 LT PUSH2 0x554 JUMPI PUSH1 0x0 DUP1 REVERT JUMPDEST SWAP1 PUSH1 0x0 MSTORE PUSH1 0x20 PUSH1 0x0 KECCAK256 ADD PUSH1 0x0 SWAP2 POP SWAP2 POP POP SLOAD DUP2 JUMP JUMPDEST PUSH1 0x1 PUSH1 0x1 PUSH1 0xA0 SHL SUB DUP2 AND PUSH1 0x0 SWAP1 DUP2 MSTORE PUSH1 0x1 PUSH1 0x20 SWAP1 DUP2 MSTORE PUSH1 0x40 SWAP2 DUP3 SWAP1 KECCAK256 DUP1 SLOAD DUP4 MLOAD DUP2 DUP5 MUL DUP2 ADD DUP5 ADD SWAP1 SWAP5 MSTORE DUP1 DUP5 MSTORE PUSH1 0x60 SWAP4 SWAP3 DUP4 ADD DUP3 DUP3 DUP1 ISZERO PUSH2 0x5C9 JUMPI PUSH1 0x20 MUL DUP3 ADD SWAP2 SWAP1 PUSH1 0x0 MSTORE PUSH1 0x20 PUSH1 0x0 KECCAK256 SWAP1 JUMPDEST DUP2 SLOAD DUP2 MSTORE PUSH1 0x20 ADD SWAP1 PUSH1 0x1 ADD SWAP1 DUP1 DUP4 GT PUSH2 0x5B5 JUMPI JUMPDEST POP POP POP POP POP SWAP1 POP SWAP2 SWAP1 POP JUMP JUMPDEST PUSH1 0x0 PUSH7 0x38D7EA4C68000 CALLVALUE LT DUP1 PUSH2 0x5F3 JUMPI POP PUSH8 0x8AC7230489E80000 CALLVALUE GT JUMPDEST ISZERO PUSH2 0x611 JUMPI PUSH1 0x40 MLOAD PUSH4 0x9DE3D441 PUSH1 0xE0 SHL DUP2 MSTORE PUSH1 0x4 ADD PUSH1 0x40 MLOAD DUP1 SWAP2 SUB SWAP1 REVERT JUMPDEST DUP2 PUSH2 0x658 JUMPI PUSH1 0x40 MLOAD PUSH3 0x461BCD PUSH1 0xE5 SHL DUP2 MSTORE PUSH1 0x20 PUSH1 0x4 DUP3 ADD MSTORE PUSH1 0x12 PUSH1 0x24 DUP3 ADD MSTORE PUSH18 0x125B9D985B1A590818DBDB5B5A5D1B595B9D PUSH1 0x72 SHL PUSH1 0x44 DUP3 ADD MSTORE PUSH1 0x64 ADD JUMPDEST PUSH1 0x40 MLOAD DUP1 SWAP2 SUB SWAP1 REVERT JUMPDEST PUSH1 0x3 DUP1 SLOAD SWAP1 PUSH1 0x0 PUSH2 0x668 DUP4 PUSH2 0x2156 JUMP JUMPDEST SWAP1 SWAP2 SSTORE POP PUSH1 0x40 DUP1 MLOAD PUSH2 0x180 DUP2 ADD DUP3 MSTORE CALLER DUP2 MSTORE PUSH1 0x0 PUSH1 0x20 DUP3 ADD DUP2 SWAP1 MSTORE CALLVALUE SWAP3 DUP3 ADD SWAP3 SWAP1 SWAP3 MSTORE PUSH1 0x60 DUP2 ADD DUP6 SWAP1 MSTORE PUSH1 0x80 DUP2 ADD DUP3 SWAP1 MSTORE SWAP2 SWAP3 POP PUSH1 0xA0 DUP3 ADD SWAP1 DUP2 MSTORE PUSH1 0x20 ADD PUSH1 0x0 DUP2 MSTORE PUSH1 0x20 ADD PUSH1 0x0 DUP2 MSTORE PUSH1 0x20 ADD PUSH1 0x0 PUSH1 0x1 PUSH1 0x1 PUSH1 0xA0 SHL SUB AND DUP2 MSTORE PUSH1 0x20 ADD TIMESTAMP DUP2 MSTORE PUSH1 0x20 ADD PUSH2 0xE10 TIMESTAMP PUSH2 0x6D8 SWAP2 SWAP1 PUSH2 0x216F JUMP JUMPDEST DUP2 MSTORE PUSH1 0x0 PUSH1 0x20 SWAP2 DUP3 ADD DUP2 SWAP1 MSTORE DUP4 DUP2 MSTORE DUP1 DUP3 MSTORE PUSH1 0x40 SWAP1 DUP2 SWAP1 KECCAK256 DUP4 MLOAD DUP2 SLOAD PUSH1 0x1 PUSH1 0x1 PUSH1 0xA0 SHL SUB SWAP2 DUP3 AND PUSH1 0x1 PUSH1 0x1 PUSH1 0xA0 SHL SUB NOT SWAP2 DUP3 AND OR DUP4 SSTORE SWAP4 DUP6 ADD MLOAD PUSH1 0x1 DUP4 DUP2 ADD DUP1 SLOAD SWAP3 SWAP1 SWAP4 AND SWAP2 SWAP1 SWAP6 AND OR SWAP1 SSTORE SWAP1 DUP4 ADD MLOAD PUSH1 0x2 DUP3 ADD SSTORE PUSH1 0x60 DUP4 ADD MLOAD PUSH1 0x3 DUP1 DUP4 ADD SWAP2 SWAP1 SWAP2 SSTORE PUSH1 0x80 DUP5 ADD MLOAD PUSH1 0x4 DUP4 ADD SSTORE PUSH1 0xA0 DUP5 ADD MLOAD PUSH1 0x5 DUP4 ADD DUP1 SLOAD SWAP4 SWAP5 SWAP2 SWAP4 SWAP1 SWAP3 PUSH1 0xFF NOT SWAP1 SWAP2 AND SWAP2 SWAP1 DUP5 SWAP1 DUP2 GT ISZERO PUSH2 0x76F JUMPI PUSH2 0x76F PUSH2 0x1EFD JUMP JUMPDEST MUL OR SWAP1 SSTORE POP PUSH1 0xC0 DUP3 ADD MLOAD PUSH1 0x5 DUP3 ADD DUP1 SLOAD PUSH2 0xFF00 NOT AND PUSH2 0x100 DUP4 PUSH1 0x3 DUP2 GT ISZERO PUSH2 0x799 JUMPI PUSH2 0x799 PUSH2 0x1EFD JUMP JUMPDEST MUL OR SWAP1 SSTORE POP PUSH1 0xE0 DUP3 ADD MLOAD PUSH1 0x5 DUP3 ADD DUP1 SLOAD PUSH3 0xFF0000 NOT AND PUSH3 0x10000 DUP4 PUSH1 0x3 DUP2 GT ISZERO PUSH2 0x7C5 JUMPI PUSH2 0x7C5 PUSH2 0x1EFD JUMP JUMPDEST MUL OR SWAP1 SSTORE POP PUSH2 0x100 DUP3 ADD MLOAD PUSH1 0x5 DUP3 ADD DUP1 SLOAD PUSH4 0x1000000 PUSH1 0x1 PUSH1 0xB8 SHL SUB NOT AND PUSH4 0x1000000 PUSH1 0x1 PUSH1 0x1 PUSH1 0xA0 SHL SUB SWAP1 SWAP4 AND SWAP3 SWAP1 SWAP3 MUL SWAP2 SWAP1 SWAP2 OR SWAP1 SSTORE PUSH2 0x120 DUP3 ADD MLOAD PUSH1 0x6 DUP3 ADD SSTORE PUSH2 0x140 DUP3 ADD MLOAD PUSH1 0x7 DUP3 ADD SSTORE PUSH2 0x160 SWAP1 SWAP2 ADD MLOAD PUSH1 0x8 SWAP1 SWAP2 ADD DUP1 SLOAD PUSH1 0xFF NOT AND SWAP2 ISZERO ISZERO SWAP2 SWAP1 SWAP2 OR SWAP1 SSTORE CALLER PUSH1 0x0 SWAP1 DUP2 MSTORE PUSH1 0x1 PUSH1 0x20 DUP2 DUP2 MSTORE PUSH1 0x40 DUP4 KECCAK256 DUP1 SLOAD SWAP3 DUP4 ADD DUP2 SSTORE DUP4 MSTORE DUP3 KECCAK256 ADD DUP3 SWAP1 SSTORE PUSH1 0x4 DUP1 SLOAD SWAP2 PUSH2 0x85C DUP4 PUSH2 0x2156 JUMP JUMPDEST SWAP1 SWAP2 SSTORE POP POP PUSH1 0x0 DUP2 DUP2 MSTORE PUSH1 0x20 DUP2 DUP2 MSTORE PUSH1 0x40 SWAP2 DUP3 SWAP1 KECCAK256 PUSH1 0x7 ADD SLOAD DUP3 MLOAD CALLVALUE DUP2 MSTORE SWAP2 DUP3 ADD MSTORE CALLER SWAP2 DUP4 SWAP2 PUSH32 0x7ED9B48D83E08A25A1572B27A365DFB386DA7860C996E684E541E3433B792147 SWAP2 ADD PUSH1 0x40 MLOAD DUP1 SWAP2 SUB SWAP1 LOG3 SWAP2 SWAP1 POP JUMP JUMPDEST PUSH1 0x0 DUP4 DUP4 DUP4 PUSH1 0x40 MLOAD PUSH1 0x20 ADD PUSH2 0x8C9 SWAP4 SWAP3 SWAP2 SWAP1 PUSH2 0x2182 JUMP JUMPDEST PUSH1 0x40 MLOAD PUSH1 0x20 DUP2 DUP4 SUB SUB DUP2 MSTORE SWAP1 PUSH1 0x40 MSTORE DUP1 MLOAD SWAP1 PUSH1 0x20 ADD KECCAK256 SWAP1 POP SWAP4 SWAP3 POP POP POP JUMP JUMPDEST DUP1 PUSH1 0x3 SLOAD DUP2 LT PUSH2 0x90A JUMPI PUSH1 0x40 MLOAD PUSH3 0x461BCD PUSH1 0xE5 SHL DUP2 MSTORE PUSH1 0x4 ADD PUSH2 0x64F SWAP1 PUSH2 0x21B8 JUMP JUMPDEST PUSH1 0x0 DUP3 DUP2 MSTORE PUSH1 0x20 DUP2 DUP2 MSTORE PUSH1 0x40 DUP1 DUP4 KECCAK256 DUP2 MLOAD PUSH2 0x180 DUP2 ADD DUP4 MSTORE DUP2 SLOAD PUSH1 0x1 PUSH1 0x1 PUSH1 0xA0 SHL SUB SWAP1 DUP2 AND DUP3 MSTORE PUSH1 0x1 DUP4 ADD SLOAD AND SWAP4 DUP2 ADD SWAP4 SWAP1 SWAP4 MSTORE PUSH1 0x2 DUP2 ADD SLOAD SWAP2 DUP4 ADD SWAP2 SWAP1 SWAP2 MSTORE PUSH1 0x3 DUP1 DUP3 ADD SLOAD PUSH1 0x60 DUP5 ADD MSTORE PUSH1 0x4 DUP3 ADD SLOAD PUSH1 0x80 DUP5 ADD MSTORE PUSH1 0x5 DUP3 ADD SLOAD DUP7 SWAP5 SWAP4 SWAP3 SWAP2 PUSH1 0xA0 DUP5 ADD SWAP2 PUSH1 0xFF AND SWAP1 DUP2 GT ISZERO PUSH2 0x981 JUMPI PUSH2 0x981 PUSH2 0x1EFD JUMP JUMPDEST PUSH1 0x3 DUP2 GT ISZERO PUSH2 0x992 JUMPI PUSH2 0x992 PUSH2 0x1EFD JUMP JUMPDEST DUP2 MSTORE PUSH1 0x20 ADD PUSH1 0x5 DUP3 ADD PUSH1 0x1 SWAP1 SLOAD SWAP1 PUSH2 0x100 EXP SWAP1 DIV PUSH1 0xFF AND PUSH1 0x3 DUP2 GT ISZERO PUSH2 0x9BA JUMPI PUSH2 0x9BA PUSH2 0x1EFD JUMP JUMPDEST PUSH1 0x3 DUP2 GT ISZERO PUSH2 0x9CB JUMPI PUSH2 0x9CB PUSH2 0x1EFD JUMP JUMPDEST DUP2 MSTORE PUSH1 0x20 ADD PUSH1 0x5 DUP3 ADD PUSH1 0x2 SWAP1 SLOAD SWAP1 PUSH2 0x100 EXP SWAP1 DIV PUSH1 0xFF AND PUSH1 0x3 DUP2 GT ISZERO PUSH2 0x9F3 JUMPI PUSH2 0x9F3 PUSH2 0x1EFD JUMP JUMPDEST PUSH1 0x3 DUP2 GT ISZERO PUSH2 0xA04 JUMPI PUSH2 0xA04 PUSH2 0x1EFD JUMP JUMPDEST DUP2 MSTORE PUSH1 0x5 DUP3 ADD SLOAD PUSH4 0x1000000 SWAP1 DIV PUSH1 0x1 PUSH1 0x1 PUSH1 0xA0 SHL SUB SWAP1 DUP2 AND PUSH1 0x20 DUP4 ADD MSTORE PUSH1 0x6 DUP4 ADD SLOAD PUSH1 0x40 DUP4 ADD MSTORE PUSH1 0x7 DUP4 ADD SLOAD PUSH1 0x60 DUP4 ADD MSTORE PUSH1 0x8 SWAP1 SWAP3 ADD SLOAD PUSH1 0xFF AND ISZERO ISZERO PUSH1 0x80 SWAP1 SWAP2 ADD MSTORE DUP2 MLOAD SWAP2 SWAP3 POP AND CALLER EQ DUP1 PUSH2 0xA6F JUMPI POP DUP1 PUSH1 0x20 ADD MLOAD PUSH1 0x1 PUSH1 0x1 PUSH1 0xA0 SHL SUB AND CALLER PUSH1 0x1 PUSH1 0x1 PUSH1 0xA0 SHL SUB AND EQ JUMPDEST PUSH2 0xAAF JUMPI PUSH1 0x40 MLOAD PUSH3 0x461BCD PUSH1 0xE5 SHL DUP2 MSTORE PUSH1 0x20 PUSH1 0x4 DUP3 ADD MSTORE PUSH1 0x11 PUSH1 0x24 DUP3 ADD MSTORE PUSH17 0x2737BA10309033B0B6B290383630BCB2B9 PUSH1 0x79 SHL PUSH1 0x44 DUP3 ADD MSTORE PUSH1 0x64 ADD PUSH2 0x64F JUMP JUMPDEST PUSH1 0x0 DUP5 DUP2 MSTORE PUSH1 0x20 DUP2 SWAP1 MSTORE PUSH1 0x40 SWAP1 KECCAK256 PUSH1 0x7 DUP2 ADD SLOAD TIMESTAMP GT PUSH2 0xB06 JUMPI PUSH1 0x40 MLOAD PUSH3 0x461BCD PUSH1 0xE5 SHL DUP2 MSTORE PUSH1 0x20 PUSH1 0x4 DUP3 ADD MSTORE PUSH1 0x13 PUSH1 0x24 DUP3 ADD MSTORE PUSH19 0x151A5B595BDD5D081B9BDD081C995858DA1959 PUSH1 0x6A SHL PUSH1 0x44 DUP3 ADD MSTORE PUSH1 0x64 ADD PUSH2 0x64F JUMP JUMPDEST PUSH1 0x2 PUSH1 0x5 DUP3 ADD SLOAD PUSH3 0x10000 SWAP1 DIV PUSH1 0xFF AND PUSH1 0x3 DUP2 GT ISZERO PUSH2 0xB27 JUMPI PUSH2 0xB27 PUSH2 0x1EFD JUMP JUMPDEST EQ PUSH2 0xB74 JUMPI PUSH1 0x40 MLOAD PUSH3 0x461BCD PUSH1 0xE5 SHL DUP2 MSTORE PUSH1 0x20 PUSH1 0x4 DUP3 ADD MSTORE PUSH1 0x18 PUSH1 0x24 DUP3 ADD MSTORE PUSH32 0x47616D65206E6F7420696E2072657665616C2070686173650000000000000000 PUSH1 0x44 DUP3 ADD MSTORE PUSH1 0x64 ADD PUSH2 0x64F JUMP JUMPDEST PUSH1 0x8 DUP2 ADD SLOAD PUSH1 0xFF AND ISZERO PUSH2 0xBC1 JUMPI PUSH1 0x40 MLOAD PUSH3 0x461BCD PUSH1 0xE5 SHL DUP2 MSTORE PUSH1 0x20 PUSH1 0x4 DUP3 ADD MSTORE PUSH1 0x15 PUSH1 0x24 DUP3 ADD MSTORE PUSH21 0x141C9A5E9948185B1C9958591E4818DB185A5B5959 PUSH1 0x5A SHL PUSH1 0x44 DUP3 ADD MSTORE PUSH1 0x64 ADD PUSH2 0x64F JUMP JUMPDEST PUSH1 0x0 DUP1 PUSH1 0x5 DUP4 ADD SLOAD PUSH1 0xFF AND PUSH1 0x3 DUP2 GT ISZERO PUSH2 0xBDD JUMPI PUSH2 0xBDD PUSH2 0x1EFD JUMP JUMPDEST EQ ISZERO DUP1 ISZERO PUSH2 0xC08 JUMPI POP PUSH1 0x0 PUSH1 0x5 DUP4 ADD SLOAD PUSH2 0x100 SWAP1 DIV PUSH1 0xFF AND PUSH1 0x3 DUP2 GT ISZERO PUSH2 0xC06 JUMPI PUSH2 0xC06 PUSH2 0x1EFD JUMP JUMPDEST EQ JUMPDEST ISZERO PUSH2 0xC1E JUMPI POP DUP1 SLOAD PUSH1 0x1 PUSH1 0x1 PUSH1 0xA0 SHL SUB AND PUSH2 0xCBD JUMP JUMPDEST PUSH1 0x0 PUSH1 0x5 DUP4 ADD SLOAD PUSH2 0x100 SWAP1 DIV PUSH1 0xFF AND PUSH1 0x3 DUP2 GT ISZERO PUSH2 0xC3E JUMPI PUSH2 0xC3E PUSH2 0x1EFD JUMP JUMPDEST EQ ISZERO DUP1 ISZERO PUSH2 0xC64 JUMPI POP PUSH1 0x0 PUSH1 0x5 DUP4 ADD SLOAD PUSH1 0xFF AND PUSH1 0x3 DUP2 GT ISZERO PUSH2 0xC62 JUMPI PUSH2 0xC62 PUSH2 0x1EFD JUMP JUMPDEST EQ JUMPDEST ISZERO PUSH2 0xC7D JUMPI POP PUSH1 0x1 DUP2 ADD SLOAD PUSH1 0x1 PUSH1 0x1 PUSH1 0xA0 SHL SUB AND PUSH2 0xCBD JUMP JUMPDEST PUSH1 0x40 MLOAD PUSH3 0x461BCD PUSH1 0xE5 SHL DUP2 MSTORE PUSH1 0x20 PUSH1 0x4 DUP3 ADD MSTORE PUSH1 0x15 PUSH1 0x24 DUP3 ADD MSTORE PUSH21 0x496E76616C69642074696D656F757420636C61696D PUSH1 0x58 SHL PUSH1 0x44 DUP3 ADD MSTORE PUSH1 0x64 ADD PUSH2 0x64F JUMP JUMPDEST CALLER PUSH1 0x1 PUSH1 0x1 PUSH1 0xA0 SHL SUB DUP3 AND EQ PUSH2 0xD0D JUMPI PUSH1 0x40 MLOAD PUSH3 0x461BCD PUSH1 0xE5 SHL DUP2 MSTORE PUSH1 0x20 PUSH1 0x4 DUP3 ADD MSTORE PUSH1 0x15 PUSH1 0x24 DUP3 ADD MSTORE PUSH21 0x4F6E6C792077696E6E65722063616E20636C61696D PUSH1 0x58 SHL PUSH1 0x44 DUP3 ADD MSTORE PUSH1 0x64 ADD PUSH2 0x64F JUMP JUMPDEST PUSH1 0x5 DUP3 ADD DUP1 SLOAD PUSH3 0x10000 PUSH1 0x1 PUSH1 0xB8 SHL SUB NOT AND PUSH4 0x1000000 PUSH1 0x1 PUSH1 0x1 PUSH1 0xA0 SHL SUB DUP5 AND MUL PUSH3 0xFF0000 NOT AND OR PUSH3 0x30000 OR SWAP1 SSTORE PUSH1 0x8 DUP3 ADD DUP1 SLOAD PUSH1 0xFF NOT AND PUSH1 0x1 OR SWAP1 SSTORE PUSH1 0x2 DUP1 DUP4 ADD SLOAD PUSH1 0x0 SWAP2 PUSH2 0xD5F SWAP2 SWAP1 PUSH2 0x21E5 JUMP JUMPDEST SWAP1 POP PUSH1 0x0 PUSH2 0x2710 PUSH1 0x6 SLOAD DUP4 PUSH2 0xD74 SWAP2 SWAP1 PUSH2 0x21E5 JUMP JUMPDEST PUSH2 0xD7E SWAP2 SWAP1 PUSH2 0x21FC JUMP JUMPDEST SWAP1 POP PUSH1 0x0 PUSH2 0xD8C DUP3 DUP5 PUSH2 0x221E JUMP JUMPDEST SWAP1 POP DUP2 PUSH1 0x8 PUSH1 0x0 DUP3 DUP3 SLOAD PUSH2 0xDA0 SWAP2 SWAP1 PUSH2 0x216F JUMP JUMPDEST SWAP1 SWAP2 SSTORE POP POP PUSH1 0x1 PUSH1 0x1 PUSH1 0xA0 SHL SUB DUP5 AND PUSH1 0x0 SWAP1 DUP2 MSTORE PUSH1 0x2 PUSH1 0x20 MSTORE PUSH1 0x40 DUP2 KECCAK256 DUP1 SLOAD SWAP2 PUSH2 0xDC9 DUP4 PUSH2 0x2156 JUMP JUMPDEST SWAP2 SWAP1 POP SSTORE POP PUSH1 0x0 DUP5 PUSH1 0x1 PUSH1 0x1 PUSH1 0xA0 SHL SUB AND DUP3 PUSH1 0x40 MLOAD PUSH1 0x0 PUSH1 0x40 MLOAD DUP1 DUP4 SUB DUP2 DUP6 DUP8 GAS CALL SWAP3 POP POP POP RETURNDATASIZE DUP1 PUSH1 0x0 DUP2 EQ PUSH2 0xE1B JUMPI PUSH1 0x40 MLOAD SWAP2 POP PUSH1 0x1F NOT PUSH1 0x3F RETURNDATASIZE ADD AND DUP3 ADD PUSH1 0x40 MSTORE RETURNDATASIZE DUP3 MSTORE RETURNDATASIZE PUSH1 0x0 PUSH1 0x20 DUP5 ADD RETURNDATACOPY PUSH2 0xE20 JUMP JUMPDEST PUSH1 0x60 SWAP2 POP JUMPDEST POP POP SWAP1 POP DUP1 PUSH2 0xE42 JUMPI PUSH1 0x40 MLOAD PUSH4 0x12171D83 PUSH1 0xE3 SHL DUP2 MSTORE PUSH1 0x4 ADD PUSH1 0x40 MLOAD DUP1 SWAP2 SUB SWAP1 REVERT JUMPDEST DUP5 PUSH1 0x1 PUSH1 0x1 PUSH1 0xA0 SHL SUB AND DUP11 PUSH32 0x4AA95F981A8337CB337DE335B965507DA0879C3B49F799D20058E913F5AD2C26 DUP5 PUSH1 0x40 MLOAD PUSH2 0xE7E SWAP2 DUP2 MSTORE PUSH1 0x20 ADD SWAP1 JUMP JUMPDEST PUSH1 0x40 MLOAD DUP1 SWAP2 SUB SWAP1 LOG3 POP POP POP POP POP POP POP POP POP POP JUMP JUMPDEST DUP3 PUSH1 0x3 SLOAD DUP2 LT PUSH2 0xEB4 JUMPI PUSH1 0x40 MLOAD PUSH3 0x461BCD PUSH1 0xE5 SHL DUP2 MSTORE PUSH1 0x4 ADD PUSH2 0x64F SWAP1 PUSH2 0x21B8 JUMP JUMPDEST PUSH1 0x0 DUP5 DUP2 MSTORE PUSH1 0x20 DUP2 DUP2 MSTORE PUSH1 0x40 DUP1 DUP4 KECCAK256 DUP2 MLOAD PUSH2 0x180 DUP2 ADD DUP4 MSTORE DUP2 SLOAD PUSH1 0x1 PUSH1 0x1 PUSH1 0xA0 SHL SUB SWAP1 DUP2 AND DUP3 MSTORE PUSH1 0x1 DUP4 ADD SLOAD AND SWAP4 DUP2 ADD SWAP4 SWAP1 SWAP4 MSTORE PUSH1 0x2 DUP2 ADD SLOAD SWAP2 DUP4 ADD SWAP2 SWAP1 SWAP2 MSTORE PUSH1 0x3 DUP1 DUP3 ADD SLOAD PUSH1 0x60 DUP5 ADD MSTORE PUSH1 0x4 DUP3 ADD SLOAD PUSH1 0x80 DUP5 ADD MSTORE PUSH1 0x5 DUP3 ADD SLOAD DUP9 SWAP5 SWAP4 SWAP3 SWAP2 PUSH1 0xA0 DUP5 ADD SWAP2 PUSH1 0xFF AND SWAP1 DUP2 GT ISZERO PUSH2 0xF2B JUMPI PUSH2 0xF2B PUSH2 0x1EFD JUMP JUMPDEST PUSH1 0x3 DUP2 GT ISZERO PUSH2 0xF3C JUMPI PUSH2 0xF3C PUSH2 0x1EFD JUMP JUMPDEST DUP2 MSTORE PUSH1 0x20 ADD PUSH1 0x5 DUP3 ADD PUSH1 0x1 SWAP1 SLOAD SWAP1 PUSH2 0x100 EXP SWAP1 DIV PUSH1 0xFF AND PUSH1 0x3 DUP2 GT ISZERO PUSH2 0xF64 JUMPI PUSH2 0xF64 PUSH2 0x1EFD JUMP JUMPDEST PUSH1 0x3 DUP2 GT ISZERO PUSH2 0xF75 JUMPI PUSH2 0xF75 PUSH2 0x1EFD JUMP JUMPDEST DUP2 MSTORE PUSH1 0x20 ADD PUSH1 0x5 DUP3 ADD PUSH1 0x2 SWAP1 SLOAD SWAP1 PUSH2 0x100 EXP SWAP1 DIV PUSH1 0xFF AND PUSH1 0x3 DUP2 GT ISZERO PUSH2 0xF9D JUMPI PUSH2 0xF9D PUSH2 0x1EFD JUMP JUMPDEST PUSH1 0x3 DUP2 GT ISZERO PUSH2 0xFAE JUMPI PUSH2 0xFAE PUSH2 0x1EFD JUMP JUMPDEST DUP2 MSTORE PUSH1 0x5 DUP3 ADD SLOAD PUSH4 0x1000000 SWAP1 DIV PUSH1 0x1 PUSH1 0x1 PUSH1 0xA0 SHL SUB SWAP1 DUP2 AND PUSH1 0x20 DUP4 ADD MSTORE PUSH1 0x6 DUP4 ADD SLOAD PUSH1 0x40 DUP4 ADD MSTORE PUSH1 0x7 DUP4 ADD SLOAD PUSH1 0x60 DUP4 ADD MSTORE PUSH1 0x8 SWAP1 SWAP3 ADD SLOAD PUSH1 0xFF AND ISZERO ISZERO PUSH1 0x80 SWAP1 SWAP2 ADD MSTORE DUP2 MLOAD SWAP2 SWAP3 POP AND CALLER EQ DUP1 PUSH2 0x1019 JUMPI POP DUP1 PUSH1 0x20 ADD MLOAD PUSH1 0x1 PUSH1 0x1 PUSH1 0xA0 SHL SUB AND CALLER PUSH1 0x1 PUSH1 0x1 PUSH1 0xA0 SHL SUB AND EQ JUMPDEST PUSH2 0x1059 JUMPI PUSH1 0x40 MLOAD PUSH3 0x461BCD PUSH1 0xE5 SHL DUP2 MSTORE PUSH1 0x20 PUSH1 0x4 DUP3 ADD MSTORE PUSH1 0x11 PUSH1 0x24 DUP3 ADD MSTORE PUSH17 0x2737BA10309033B0B6B290383630BCB2B9 PUSH1 0x79 SHL PUSH1 0x44 DUP3 ADD MSTORE PUSH1 0x64 ADD PUSH2 0x64F JUMP JUMPDEST PUSH1 0x0 DUP7 DUP2 MSTORE PUSH1 0x20 DUP2 SWAP1 MSTORE PUSH1 0x40 SWAP1 KECCAK256 PUSH1 0x1 PUSH1 0x5 DUP3 ADD SLOAD PUSH3 0x10000 SWAP1 DIV PUSH1 0xFF AND PUSH1 0x3 DUP2 GT ISZERO PUSH2 0x1088 JUMPI PUSH2 0x1088 PUSH2 0x1EFD JUMP JUMPDEST EQ ISZERO DUP1 ISZERO PUSH2 0x10B5 JUMPI POP PUSH1 0x2 PUSH1 0x5 DUP3 ADD SLOAD PUSH3 0x10000 SWAP1 DIV PUSH1 0xFF AND PUSH1 0x3 DUP2 GT ISZERO PUSH2 0x10B2 JUMPI PUSH2 0x10B2 PUSH2 0x1EFD JUMP JUMPDEST EQ ISZERO JUMPDEST ISZERO PUSH2 0x10D3 JUMPI PUSH1 0x40 MLOAD PUSH4 0xBA1E7667 PUSH1 0xE0 SHL DUP2 MSTORE PUSH1 0x4 ADD PUSH1 0x40 MLOAD DUP1 SWAP2 SUB SWAP1 REVERT JUMPDEST PUSH1 0x0 DUP7 PUSH1 0x3 DUP2 GT ISZERO PUSH2 0x10E7 JUMPI PUSH2 0x10E7 PUSH2 0x1EFD JUMP JUMPDEST EQ DUP1 PUSH2 0x1104 JUMPI POP PUSH1 0x3 DUP7 PUSH1 0x3 DUP2 GT ISZERO PUSH2 0x1102 JUMPI PUSH2 0x1102 PUSH2 0x1EFD JUMP JUMPDEST GT JUMPDEST ISZERO PUSH2 0x1122 JUMPI PUSH1 0x40 MLOAD PUSH4 0x9C454001 PUSH1 0xE0 SHL DUP2 MSTORE PUSH1 0x4 ADD PUSH1 0x40 MLOAD DUP1 SWAP2 SUB SWAP1 REVERT JUMPDEST PUSH1 0x0 DUP7 DUP7 CALLER PUSH1 0x40 MLOAD PUSH1 0x20 ADD PUSH2 0x1139 SWAP4 SWAP3 SWAP2 SWAP1 PUSH2 0x2182 JUMP JUMPDEST PUSH1 0x40 DUP1 MLOAD PUSH1 0x1F NOT DUP2 DUP5 SUB ADD DUP2 MSTORE SWAP2 SWAP1 MSTORE DUP1 MLOAD PUSH1 0x20 SWAP1 SWAP2 ADD KECCAK256 DUP3 SLOAD SWAP1 SWAP2 POP PUSH1 0x1 PUSH1 0x1 PUSH1 0xA0 SHL SUB AND CALLER SUB PUSH2 0x120F JUMPI DUP2 PUSH1 0x3 ADD SLOAD DUP2 EQ PUSH2 0x1189 JUMPI PUSH1 0x40 MLOAD PUSH4 0x6033C4FD PUSH1 0xE1 SHL DUP2 MSTORE PUSH1 0x4 ADD PUSH1 0x40 MLOAD DUP1 SWAP2 SUB SWAP1 REVERT JUMPDEST PUSH1 0x0 PUSH1 0x5 DUP4 ADD SLOAD PUSH1 0xFF AND PUSH1 0x3 DUP2 GT ISZERO PUSH2 0x11A4 JUMPI PUSH2 0x11A4 PUSH2 0x1EFD JUMP JUMPDEST EQ PUSH2 0x11E4 JUMPI PUSH1 0x40 MLOAD PUSH3 0x461BCD PUSH1 0xE5 SHL DUP2 MSTORE PUSH1 0x20 PUSH1 0x4 DUP3 ADD MSTORE PUSH1 0x10 PUSH1 0x24 DUP3 ADD MSTORE PUSH16 0x105B1C9958591E481C995D99585B1959 PUSH1 0x82 SHL PUSH1 0x44 DUP3 ADD MSTORE PUSH1 0x64 ADD PUSH2 0x64F JUMP JUMPDEST PUSH1 0x5 DUP3 ADD DUP1 SLOAD DUP9 SWAP2 SWAP1 PUSH1 0xFF NOT AND PUSH1 0x1 DUP4 PUSH1 0x3 DUP2 GT ISZERO PUSH2 0x1205 JUMPI PUSH2 0x1205 PUSH2 0x1EFD JUMP JUMPDEST MUL OR SWAP1 SSTORE POP PUSH2 0x12BC JUMP JUMPDEST DUP2 PUSH1 0x4 ADD SLOAD DUP2 EQ PUSH2 0x1233 JUMPI PUSH1 0x40 MLOAD PUSH4 0x6033C4FD PUSH1 0xE1 SHL DUP2 MSTORE PUSH1 0x4 ADD PUSH1 0x40 MLOAD DUP1 SWAP2 SUB SWAP1 REVERT JUMPDEST PUSH1 0x0 PUSH1 0x5 DUP4 ADD SLOAD PUSH2 0x100 SWAP1 DIV PUSH1 0xFF AND PUSH1 0x3 DUP2 GT ISZERO PUSH2 0x1253 JUMPI PUSH2 0x1253 PUSH2 0x1EFD JUMP JUMPDEST EQ PUSH2 0x1293 JUMPI PUSH1 0x40 MLOAD PUSH3 0x461BCD PUSH1 0xE5 SHL DUP2 MSTORE PUSH1 0x20 PUSH1 0x4 DUP3 ADD MSTORE PUSH1 0x10 PUSH1 0x24 DUP3 ADD MSTORE PUSH16 0x105B1C9958591E481C995D99585B1959 PUSH1 0x82 SHL PUSH1 0x44 DUP3 ADD MSTORE PUSH1 0x64 ADD PUSH2 0x64F JUMP JUMPDEST PUSH1 0x5 DUP3 ADD DUP1 SLOAD DUP9 SWAP2 SWAP1 PUSH2 0xFF00 NOT AND PUSH2 0x100 DUP4 PUSH1 0x3 DUP2 GT ISZERO PUSH2 0x12B6 JUMPI PUSH2 0x12B6 PUSH2 0x1EFD JUMP JUMPDEST MUL OR SWAP1 SSTORE POP JUMPDEST CALLER PUSH1 0x1 PUSH1 0x1 PUSH1 0xA0 SHL SUB AND DUP9 PUSH32 0x67A65EC25115523B341C85EF61950DA78CD3DEA21F0B9D94D952B0F7D537C05E DUP10 PUSH1 0x40 MLOAD PUSH2 0x12F6 SWAP2 SWAP1 PUSH2 0x2231 JUMP JUMPDEST PUSH1 0x40 MLOAD DUP1 SWAP2 SUB SWAP1 LOG3 PUSH1 0x0 PUSH1 0x5 DUP4 ADD SLOAD PUSH1 0xFF AND PUSH1 0x3 DUP2 GT ISZERO PUSH2 0x1319 JUMPI PUSH2 0x1319 PUSH2 0x1EFD JUMP JUMPDEST EQ ISZERO DUP1 ISZERO PUSH2 0x1345 JUMPI POP PUSH1 0x0 PUSH1 0x5 DUP4 ADD SLOAD PUSH2 0x100 SWAP1 DIV PUSH1 0xFF AND PUSH1 0x3 DUP2 GT ISZERO PUSH2 0x1342 JUMPI PUSH2 0x1342 PUSH2 0x1EFD JUMP JUMPDEST EQ ISZERO JUMPDEST ISZERO PUSH2 0x1358 JUMPI PUSH2 0x1353 DUP9 PUSH2 0x1AAD JUMP JUMPDEST PUSH2 0x1392 JUMP JUMPDEST PUSH1 0x1 PUSH1 0x5 DUP4 ADD SLOAD PUSH3 0x10000 SWAP1 DIV PUSH1 0xFF AND PUSH1 0x3 DUP2 GT ISZERO PUSH2 0x1379 JUMPI PUSH2 0x1379 PUSH2 0x1EFD JUMP JUMPDEST SUB PUSH2 0x1392 JUMPI PUSH1 0x5 DUP3 ADD DUP1 SLOAD PUSH3 0xFF0000 NOT AND PUSH3 0x20000 OR SWAP1 SSTORE JUMPDEST POP POP POP POP POP POP POP POP JUMP JUMPDEST PUSH1 0x0 DUP1 PUSH1 0x0 DUP1 PUSH1 0x0 DUP1 PUSH1 0x0 DUP1 PUSH1 0x0 DUP10 PUSH1 0x3 SLOAD DUP2 LT PUSH2 0x13CC JUMPI PUSH1 0x40 MLOAD PUSH3 0x461BCD PUSH1 0xE5 SHL DUP2 MSTORE PUSH1 0x4 ADD PUSH2 0x64F SWAP1 PUSH2 0x21B8 JUMP JUMPDEST PUSH1 0x0 DUP12 DUP2 MSTORE PUSH1 0x20 DUP2 DUP2 MSTORE PUSH1 0x40 DUP1 DUP4 KECCAK256 DUP2 MLOAD PUSH2 0x180 DUP2 ADD DUP4 MSTORE DUP2 SLOAD PUSH1 0x1 PUSH1 0x1 PUSH1 0xA0 SHL SUB SWAP1 DUP2 AND DUP3 MSTORE PUSH1 0x1 DUP4 ADD SLOAD AND SWAP4 DUP2 ADD SWAP4 SWAP1 SWAP4 MSTORE PUSH1 0x2 DUP2 ADD SLOAD SWAP2 DUP4 ADD SWAP2 SWAP1 SWAP2 MSTORE PUSH1 0x3 DUP1 DUP3 ADD SLOAD PUSH1 0x60 DUP5 ADD MSTORE PUSH1 0x4 DUP3 ADD SLOAD PUSH1 0x80 DUP5 ADD MSTORE PUSH1 0x5 DUP3 ADD SLOAD PUSH1 0xA0 DUP5 ADD SWAP2 PUSH1 0xFF SWAP1 SWAP2 AND SWAP1 DUP2 GT ISZERO PUSH2 0x1440 JUMPI PUSH2 0x1440 PUSH2 0x1EFD JUMP JUMPDEST PUSH1 0x3 DUP2 GT ISZERO PUSH2 0x1451 JUMPI PUSH2 0x1451 PUSH2 0x1EFD JUMP JUMPDEST DUP2 MSTORE PUSH1 0x20 ADD PUSH1 0x5 DUP3 ADD PUSH1 0x1 SWAP1 SLOAD SWAP1 PUSH2 0x100 EXP SWAP1 DIV PUSH1 0xFF AND PUSH1 0x3 DUP2 GT ISZERO PUSH2 0x1479 JUMPI PUSH2 0x1479 PUSH2 0x1EFD JUMP JUMPDEST PUSH1 0x3 DUP2 GT ISZERO PUSH2 0x148A JUMPI PUSH2 0x148A PUSH2 0x1EFD JUMP JUMPDEST DUP2 MSTORE PUSH1 0x20 ADD PUSH1 0x5 DUP3 ADD PUSH1 0x2 SWAP1 SLOAD SWAP1 PUSH2 0x100 EXP SWAP1 DIV PUSH1 0xFF AND PUSH1 0x3 DUP2 GT ISZERO PUSH2 0x14B2 JUMPI PUSH2 0x14B2 PUSH2 0x1EFD JUMP JUMPDEST PUSH1 0x3 DUP2 GT ISZERO PUSH2 0x14C3 JUMPI PUSH2 0x14C3 PUSH2 0x1EFD JUMP JUMPDEST DUP2 MSTORE PUSH1 0x20 ADD PUSH1 0x5 DUP3 ADD PUSH1 0x3 SWAP1 SLOAD SWAP1 PUSH2 0x100 EXP SWAP1 DIV PUSH1 0x1 PUSH1 0x1 PUSH1 0xA0 SHL SUB AND PUSH1 0x1 PUSH1 0x1 PUSH1 0xA0 SHL SUB AND PUSH1 0x1 PUSH1 0x1 PUSH1 0xA0 SHL SUB AND DUP2 MSTORE PUSH1 0x20 ADD PUSH1 0x6 DUP3 ADD SLOAD DUP2 MSTORE PUSH1 0x20 ADD PUSH1 0x7 DUP3 ADD SLOAD DUP2 MSTORE PUSH1 0x20 ADD PUSH1 0x8 DUP3 ADD PUSH1 0x0 SWAP1 SLOAD SWAP1 PUSH2 0x100 EXP SWAP1 DIV PUSH1 0xFF AND ISZERO ISZERO ISZERO ISZERO DUP2 MSTORE POP POP SWAP1 POP DUP1 PUSH1 0x0 ADD MLOAD DUP2 PUSH1 0x20 ADD MLOAD DUP3 PUSH1 0x40 ADD MLOAD DUP4 PUSH1 0xE0 ADD MLOAD DUP5 PUSH1 0xA0 ADD MLOAD DUP6 PUSH1 0xC0 ADD MLOAD DUP7 PUSH2 0x100 ADD MLOAD DUP8 PUSH2 0x140 ADD MLOAD DUP9 PUSH2 0x160 ADD MLOAD SWAP11 POP SWAP11 POP SWAP11 POP SWAP11 POP SWAP11 POP SWAP11 POP SWAP11 POP SWAP11 POP SWAP11 POP POP POP SWAP2 SWAP4 SWAP6 SWAP8 SWAP10 SWAP1 SWAP3 SWAP5 SWAP7 SWAP9 POP JUMP JUMPDEST PUSH1 0x7 SLOAD PUSH1 0x1 PUSH1 0x1 PUSH1 0xA0 SHL SUB AND CALLER EQ PUSH2 0x15A2 JUMPI PUSH1 0x40 MLOAD PUSH3 0x461BCD PUSH1 0xE5 SHL DUP2 MSTORE PUSH1 0x4 ADD PUSH2 0x64F SWAP1 PUSH2 0x2244 JUMP JUMPDEST PUSH2 0x3E8 DUP2 GT ISZERO PUSH2 0x15E3 JUMPI PUSH1 0x40 MLOAD PUSH3 0x461BCD PUSH1 0xE5 SHL DUP2 MSTORE PUSH1 0x20 PUSH1 0x4 DUP3 ADD MSTORE PUSH1 0xC PUSH1 0x24 DUP3 ADD MSTORE PUSH12 0x8CCACA40E8DEDE40D0D2CED PUSH1 0xA3 SHL PUSH1 0x44 DUP3 ADD MSTORE PUSH1 0x64 ADD PUSH2 0x64F JUMP JUMPDEST PUSH1 0x6 SSTORE JUMP JUMPDEST DUP2 PUSH1 0x3 SLOAD DUP2 LT PUSH2 0x160A JUMPI PUSH1 0x40 MLOAD PUSH3 0x461BCD PUSH1 0xE5 SHL DUP2 MSTORE PUSH1 0x4 ADD PUSH2 0x64F SWAP1 PUSH2 0x21B8 JUMP JUMPDEST PUSH1 0x0 DUP4 DUP2 MSTORE PUSH1 0x20 DUP2 SWAP1 MSTORE PUSH1 0x40 DUP2 KECCAK256 SWAP1 PUSH1 0x5 DUP3 ADD SLOAD PUSH3 0x10000 SWAP1 DIV PUSH1 0xFF AND PUSH1 0x3 DUP2 GT ISZERO PUSH2 0x1638 JUMPI PUSH2 0x1638 PUSH2 0x1EFD JUMP JUMPDEST EQ PUSH2 0x1656 JUMPI PUSH1 0x40 MLOAD PUSH4 0x5C07B6D7 PUSH1 0xE1 SHL DUP2 MSTORE PUSH1 0x4 ADD PUSH1 0x40 MLOAD DUP1 SWAP2 SUB SWAP1 REVERT JUMPDEST DUP1 SLOAD PUSH1 0x1 PUSH1 0x1 PUSH1 0xA0 SHL SUB AND CALLER SUB PUSH2 0x16AF JUMPI PUSH1 0x40 MLOAD PUSH3 0x461BCD PUSH1 0xE5 SHL DUP2 MSTORE PUSH1 0x20 PUSH1 0x4 DUP3 ADD MSTORE PUSH1 0x1C PUSH1 0x24 DUP3 ADD MSTORE PUSH32 0x43616E6E6F7420706C617920616761696E737420796F757273656C6600000000 PUSH1 0x44 DUP3 ADD MSTORE PUSH1 0x64 ADD PUSH2 0x64F JUMP JUMPDEST DUP1 PUSH1 0x2 ADD SLOAD CALLVALUE EQ PUSH2 0x16FA JUMPI PUSH1 0x40 MLOAD PUSH3 0x461BCD PUSH1 0xE5 SHL DUP2 MSTORE PUSH1 0x20 PUSH1 0x4 DUP3 ADD MSTORE PUSH1 0x15 PUSH1 0x24 DUP3 ADD MSTORE PUSH21 0x135D5CDD081B585D18DA0818995D08185B5BDD5B9D PUSH1 0x5A SHL PUSH1 0x44 DUP3 ADD MSTORE PUSH1 0x64 ADD PUSH2 0x64F JUMP JUMPDEST DUP3 PUSH2 0x173C JUMPI PUSH1 0x40 MLOAD PUSH3 0x461BCD PUSH1 0xE5 SHL DUP2 MSTORE PUSH1 0x20 PUSH1 0x4 DUP3 ADD MSTORE PUSH1 0x12 PUSH1 0x24 DUP3 ADD MSTORE PUSH18 0x125B9D985B1A590818DBDB5B5A5D1B595B9D PUSH1 0x72 SHL PUSH1 0x44 DUP3 ADD MSTORE PUSH1 0x64 ADD PUSH2 0x64F JUMP JUMPDEST PUSH1 0x1 DUP1 DUP3 ADD DUP1 SLOAD PUSH1 0x1 PUSH1 0x1 PUSH1 0xA0 SHL SUB NOT AND CALLER OR SWAP1 SSTORE PUSH1 0x4 DUP3 ADD DUP5 SWAP1 SSTORE PUSH1 0x5 DUP3 ADD DUP1 SLOAD PUSH3 0xFF0000 NOT AND PUSH3 0x10000 DUP4 MUL OR SWAP1 SSTORE POP PUSH2 0x177A PUSH2 0xE10 TIMESTAMP PUSH2 0x216F JUMP JUMPDEST PUSH1 0x7 DUP3 ADD SSTORE CALLER PUSH1 0x0 SWAP1 DUP2 MSTORE PUSH1 0x1 PUSH1 0x20 DUP2 DUP2 MSTORE PUSH1 0x40 DUP4 KECCAK256 DUP1 SLOAD SWAP3 DUP4 ADD DUP2 SSTORE DUP4 MSTORE SWAP1 SWAP2 KECCAK256 ADD DUP5 SWAP1 SSTORE PUSH2 0x17AB CALLVALUE PUSH1 0x2 PUSH2 0x21E5 JUMP JUMPDEST PUSH1 0x5 PUSH1 0x0 DUP3 DUP3 SLOAD PUSH2 0x17BC SWAP2 SWAP1 PUSH2 0x216F JUMP JUMPDEST SWAP1 SWAP2 SSTORE POP POP PUSH1 0x40 MLOAD CALLER SWAP1 DUP6 SWAP1 PUSH32 0x87969BC7FAF902221A147B95CEBA76E011C5EFB0339A0A8EE7A2BB82D9CFBBD6 SWAP1 PUSH1 0x0 SWAP1 LOG3 POP POP POP POP JUMP JUMPDEST PUSH1 0x7 SLOAD PUSH1 0x1 PUSH1 0x1 PUSH1 0xA0 SHL SUB AND CALLER EQ PUSH2 0x181E JUMPI PUSH1 0x40 MLOAD PUSH3 0x461BCD PUSH1 0xE5 SHL DUP2 MSTORE PUSH1 0x4 ADD PUSH2 0x64F SWAP1 PUSH2 0x2244 JUMP JUMPDEST PUSH1 0x8 DUP1 SLOAD PUSH1 0x0 SWAP2 DUP3 SWAP1 SSTORE PUSH1 0x7 SLOAD PUSH1 0x40 MLOAD SWAP2 SWAP3 SWAP2 PUSH1 0x1 PUSH1 0x1 PUSH1 0xA0 SHL SUB SWAP1 SWAP2 AND SWAP1 DUP4 SWAP1 DUP4 DUP2 DUP2 DUP2 DUP6 DUP8 GAS CALL SWAP3 POP POP POP RETURNDATASIZE DUP1 PUSH1 0x0 DUP2 EQ PUSH2 0x1877 JUMPI PUSH1 0x40 MLOAD SWAP2 POP PUSH1 0x1F NOT PUSH1 0x3F RETURNDATASIZE ADD AND DUP3 ADD PUSH1 0x40 MSTORE RETURNDATASIZE DUP3 MSTORE RETURNDATASIZE PUSH1 0x0 PUSH1 0x20 DUP5 ADD RETURNDATACOPY PUSH2 0x187C JUMP JUMPDEST PUSH1 0x60 SWAP2 POP JUMPDEST POP POP SWAP1 POP DUP1 PUSH2 0x189E JUMPI PUSH1 0x40 MLOAD PUSH4 0x12171D83 PUSH1 0xE3 SHL DUP2 MSTORE PUSH1 0x4 ADD PUSH1 0x40 MLOAD DUP1 SWAP2 SUB SWAP1 REVERT JUMPDEST POP POP JUMP JUMPDEST PUSH1 0x60 PUSH1 0x0 PUSH1 0x3 SLOAD PUSH8 0xFFFFFFFFFFFFFFFF DUP2 GT ISZERO PUSH2 0x18C1 JUMPI PUSH2 0x18C1 PUSH2 0x2271 JUMP JUMPDEST PUSH1 0x40 MLOAD SWAP1 DUP1 DUP3 MSTORE DUP1 PUSH1 0x20 MUL PUSH1 0x20 ADD DUP3 ADD PUSH1 0x40 MSTORE DUP1 ISZERO PUSH2 0x18EA JUMPI DUP2 PUSH1 0x20 ADD PUSH1 0x20 DUP3 MUL DUP1 CALLDATASIZE DUP4 CALLDATACOPY ADD SWAP1 POP JUMPDEST POP SWAP1 POP PUSH1 0x0 DUP5 JUMPDEST PUSH1 0x3 SLOAD DUP2 LT DUP1 ISZERO PUSH2 0x1901 JUMPI POP DUP5 DUP3 LT JUMPDEST ISZERO PUSH2 0x1976 JUMPI PUSH1 0x0 DUP1 DUP3 DUP2 MSTORE PUSH1 0x20 DUP2 SWAP1 MSTORE PUSH1 0x40 SWAP1 KECCAK256 PUSH1 0x5 ADD SLOAD PUSH3 0x10000 SWAP1 DIV PUSH1 0xFF AND PUSH1 0x3 DUP2 GT ISZERO PUSH2 0x1933 JUMPI PUSH2 0x1933 PUSH2 0x1EFD JUMP JUMPDEST SUB PUSH2 0x1964 JUMPI DUP1 DUP4 DUP4 DUP2 MLOAD DUP2 LT PUSH2 0x194B JUMPI PUSH2 0x194B PUSH2 0x2287 JUMP JUMPDEST PUSH1 0x20 SWAP1 DUP2 MUL SWAP2 SWAP1 SWAP2 ADD ADD MSTORE DUP2 PUSH2 0x1960 DUP2 PUSH2 0x2156 JUMP JUMPDEST SWAP3 POP POP JUMPDEST DUP1 PUSH2 0x196E DUP2 PUSH2 0x2156 JUMP JUMPDEST SWAP2 POP POP PUSH2 0x18F1 JUMP JUMPDEST POP DUP1 PUSH8 0xFFFFFFFFFFFFFFFF DUP2 GT ISZERO PUSH2 0x1990 JUMPI PUSH2 0x1990 PUSH2 0x2271 JUMP JUMPDEST PUSH1 0x40 MLOAD SWAP1 DUP1 DUP3 MSTORE DUP1 PUSH1 0x20 MUL PUSH1 0x20 ADD DUP3 ADD PUSH1 0x40 MSTORE DUP1 ISZERO PUSH2 0x19B9 JUMPI DUP2 PUSH1 0x20 ADD PUSH1 0x20 DUP3 MUL DUP1 CALLDATASIZE DUP4 CALLDATACOPY ADD SWAP1 POP JUMPDEST POP SWAP3 POP PUSH1 0x0 JUMPDEST DUP2 DUP2 LT ISZERO PUSH2 0x1A10 JUMPI DUP3 DUP2 DUP2 MLOAD DUP2 LT PUSH2 0x19D9 JUMPI PUSH2 0x19D9 PUSH2 0x2287 JUMP JUMPDEST PUSH1 0x20 MUL PUSH1 0x20 ADD ADD MLOAD DUP5 DUP3 DUP2 MLOAD DUP2 LT PUSH2 0x19F3 JUMPI PUSH2 0x19F3 PUSH2 0x2287 JUMP JUMPDEST PUSH1 0x20 SWAP1 DUP2 MUL SWAP2 SWAP1 SWAP2 ADD ADD MSTORE DUP1 PUSH2 0x1A08 DUP2 PUSH2 0x2156 JUMP JUMPDEST SWAP2 POP POP PUSH2 0x19BF JUMP JUMPDEST POP POP POP SWAP3 SWAP2 POP POP JUMP JUMPDEST PUSH1 0x7 SLOAD PUSH1 0x1 PUSH1 0x1 PUSH1 0xA0 SHL SUB AND CALLER EQ PUSH2 0x1A43 JUMPI PUSH1 0x40 MLOAD PUSH3 0x461BCD PUSH1 0xE5 SHL DUP2 MSTORE PUSH1 0x4 ADD PUSH2 0x64F SWAP1 PUSH2 0x2244 JUMP JUMPDEST PUSH1 0x1 PUSH1 0x1 PUSH1 0xA0 SHL SUB DUP2 AND PUSH2 0x1A8B JUMPI PUSH1 0x40 MLOAD PUSH3 0x461BCD PUSH1 0xE5 SHL DUP2 MSTORE PUSH1 0x20 PUSH1 0x4 DUP3 ADD MSTORE PUSH1 0xF PUSH1 0x24 DUP3 ADD MSTORE PUSH15 0x496E76616C69642061646472657373 PUSH1 0x88 SHL PUSH1 0x44 DUP3 ADD MSTORE PUSH1 0x64 ADD PUSH2 0x64F JUMP JUMPDEST PUSH1 0x7 DUP1 SLOAD PUSH1 0x1 PUSH1 0x1 PUSH1 0xA0 SHL SUB NOT AND PUSH1 0x1 PUSH1 0x1 PUSH1 0xA0 SHL SUB SWAP3 SWAP1 SWAP3 AND SWAP2 SWAP1 SWAP2 OR SWAP1 SSTORE JUMP JUMPDEST PUSH1 0x0 DUP2 DUP2 MSTORE PUSH1 0x20 DUP2 SWAP1 MSTORE PUSH1 0x40 DUP2 KECCAK256 PUSH1 0x5 DUP2 ADD SLOAD SWAP1 SWAP2 SWAP1 PUSH2 0x1AD8 SWAP1 PUSH1 0xFF DUP1 DUP3 AND SWAP2 PUSH2 0x100 SWAP1 DIV AND PUSH2 0x1D74 JUMP JUMPDEST PUSH1 0x5 DUP4 ADD DUP1 SLOAD PUSH3 0x30000 PUSH3 0x10000 PUSH1 0x1 PUSH1 0xB8 SHL SUB NOT SWAP1 SWAP2 AND PUSH3 0xFF0000 NOT PUSH4 0x1000000 PUSH1 0x1 PUSH1 0x1 PUSH1 0xA0 SHL SUB DUP7 AND MUL AND OR OR SWAP1 SSTORE PUSH1 0x2 DUP1 DUP5 ADD SLOAD SWAP2 SWAP3 POP PUSH1 0x0 SWAP2 PUSH2 0x1B1F SWAP2 PUSH2 0x21E5 JUMP JUMPDEST SWAP1 POP PUSH1 0x0 PUSH2 0x2710 PUSH1 0x6 SLOAD DUP4 PUSH2 0x1B34 SWAP2 SWAP1 PUSH2 0x21E5 JUMP JUMPDEST PUSH2 0x1B3E SWAP2 SWAP1 PUSH2 0x21FC JUMP JUMPDEST SWAP1 POP PUSH1 0x0 PUSH2 0x1B4C DUP3 DUP5 PUSH2 0x221E JUMP JUMPDEST SWAP1 POP DUP2 PUSH1 0x8 PUSH1 0x0 DUP3 DUP3 SLOAD PUSH2 0x1B60 SWAP2 SWAP1 PUSH2 0x216F JUMP JUMPDEST SWAP1 SWAP2 SSTORE POP POP PUSH1 0x1 PUSH1 0x1 PUSH1 0xA0 SHL SUB DUP5 AND ISZERO PUSH2 0x1C17 JUMPI PUSH1 0x1 PUSH1 0x1 PUSH1 0xA0 SHL SUB DUP5 AND PUSH1 0x0 SWAP1 DUP2 MSTORE PUSH1 0x2 PUSH1 0x20 MSTORE PUSH1 0x40 DUP2 KECCAK256 DUP1 SLOAD SWAP2 PUSH2 0x1B98 DUP4 PUSH2 0x2156 JUMP JUMPDEST SWAP2 SWAP1 POP SSTORE POP PUSH1 0x0 DUP5 PUSH1 0x1 PUSH1 0x1 PUSH1 0xA0 SHL SUB AND DUP3 PUSH1 0x40 MLOAD PUSH1 0x0 PUSH1 0x40 MLOAD DUP1 DUP4 SUB DUP2 DUP6 DUP8 GAS CALL SWAP3 POP POP POP RETURNDATASIZE DUP1 PUSH1 0x0 DUP2 EQ PUSH2 0x1BEA JUMPI PUSH1 0x40 MLOAD SWAP2 POP PUSH1 0x1F NOT PUSH1 0x3F RETURNDATASIZE ADD AND DUP3 ADD PUSH1 0x40 MSTORE RETURNDATASIZE DUP3 MSTORE RETURNDATASIZE PUSH1 0x0 PUSH1 0x20 DUP5 ADD RETURNDATACOPY PUSH2 0x1BEF JUMP JUMPDEST PUSH1 0x60 SWAP2 POP JUMPDEST POP POP SWAP1 POP DUP1 PUSH2 0x1C11 JUMPI PUSH1 0x40 MLOAD PUSH4 0x12171D83 PUSH1 0xE3 SHL DUP2 MSTORE PUSH1 0x4 ADD PUSH1 0x40 MLOAD DUP1 SWAP2 SUB SWAP1 REVERT JUMPDEST POP PUSH2 0x1D06 JUMP JUMPDEST PUSH1 0x0 PUSH2 0x1C24 PUSH1 0x2 DUP4 PUSH2 0x21FC JUMP JUMPDEST DUP7 SLOAD PUSH1 0x40 MLOAD SWAP2 SWAP3 POP PUSH1 0x0 SWAP2 PUSH1 0x1 PUSH1 0x1 PUSH1 0xA0 SHL SUB SWAP1 SWAP2 AND SWAP1 DUP4 SWAP1 DUP4 DUP2 DUP2 DUP2 DUP6 DUP8 GAS CALL SWAP3 POP POP POP RETURNDATASIZE DUP1 PUSH1 0x0 DUP2 EQ PUSH2 0x1C75 JUMPI PUSH1 0x40 MLOAD SWAP2 POP PUSH1 0x1F NOT PUSH1 0x3F RETURNDATASIZE ADD AND DUP3 ADD PUSH1 0x40 MSTORE RETURNDATASIZE DUP3 MSTORE RETURNDATASIZE PUSH1 0x0 PUSH1 0x20 DUP5 ADD RETURNDATACOPY PUSH2 0x1C7A JUMP JUMPDEST PUSH1 0x60 SWAP2 POP JUMPDEST POP POP PUSH1 0x1 DUP9 ADD SLOAD PUSH1 0x40 MLOAD SWAP2 SWAP3 POP PUSH1 0x0 SWAP2 PUSH1 0x1 PUSH1 0x1 PUSH1 0xA0 SHL SUB SWAP1 SWAP2 AND SWAP1 DUP5 SWAP1 DUP4 DUP2 DUP2 DUP2 DUP6 DUP8 GAS CALL SWAP3 POP POP POP RETURNDATASIZE DUP1 PUSH1 0x0 DUP2 EQ PUSH2 0x1CD0 JUMPI PUSH1 0x40 MLOAD SWAP2 POP PUSH1 0x1F NOT PUSH1 0x3F RETURNDATASIZE ADD AND DUP3 ADD PUSH1 0x40 MSTORE RETURNDATASIZE DUP3 MSTORE RETURNDATASIZE PUSH1 0x0 PUSH1 0x20 DUP5 ADD RETURNDATACOPY PUSH2 0x1CD5 JUMP JUMPDEST PUSH1 0x60 SWAP2 POP JUMPDEST POP POP SWAP1 POP DUP2 ISZERO DUP1 PUSH2 0x1CE4 JUMPI POP DUP1 ISZERO JUMPDEST ISZERO PUSH2 0x1D02 JUMPI PUSH1 0x40 MLOAD PUSH4 0x12171D83 PUSH1 0xE3 SHL DUP2 MSTORE PUSH1 0x4 ADD PUSH1 0x40 MLOAD DUP1 SWAP2 SUB SWAP1 REVERT JUMPDEST POP POP POP JUMPDEST PUSH1 0x8 DUP6 ADD DUP1 SLOAD PUSH1 0xFF NOT AND PUSH1 0x1 OR SWAP1 SSTORE PUSH1 0x5 DUP6 ADD SLOAD PUSH1 0x40 MLOAD PUSH1 0x1 PUSH1 0x1 PUSH1 0xA0 SHL SUB DUP7 AND SWAP2 DUP9 SWAP2 PUSH32 0x3EAA8EF3D1F3D0F08BA8D83B92F95EDB50E575ECCF1775C6A07647B39EC7E78F SWAP2 PUSH2 0x1D64 SWAP2 PUSH1 0xFF DUP3 DUP2 AND SWAP3 PUSH2 0x100 SWAP1 DIV AND SWAP1 DUP8 SWAP1 PUSH2 0x229D JUMP JUMPDEST PUSH1 0x40 MLOAD DUP1 SWAP2 SUB SWAP1 LOG3 POP POP POP POP POP POP JUMP JUMPDEST PUSH1 0x0 DUP2 PUSH1 0x3 DUP2 GT ISZERO PUSH2 0x1D88 JUMPI PUSH2 0x1D88 PUSH2 0x1EFD JUMP JUMPDEST DUP4 PUSH1 0x3 DUP2 GT ISZERO PUSH2 0x1D9A JUMPI PUSH2 0x1D9A PUSH2 0x1EFD JUMP JUMPDEST SUB PUSH2 0x1DA7 JUMPI POP PUSH1 0x0 PUSH2 0x1E98 JUMP JUMPDEST PUSH1 0x0 DUP1 DUP1 MSTORE PUSH1 0x20 MSTORE PUSH32 0xAD3228B676F7D3CD4284A5443F17F1962B36E491B30A40B2405849E597BA5FB5 PUSH1 0x1 DUP5 PUSH1 0x3 DUP2 GT ISZERO PUSH2 0x1DE4 JUMPI PUSH2 0x1DE4 PUSH2 0x1EFD JUMP JUMPDEST EQ DUP1 ISZERO PUSH2 0x1E02 JUMPI POP PUSH1 0x3 DUP4 PUSH1 0x3 DUP2 GT ISZERO PUSH2 0x1E00 JUMPI PUSH2 0x1E00 PUSH2 0x1EFD JUMP JUMPDEST EQ JUMPDEST DUP1 PUSH2 0x1E3A JUMPI POP PUSH1 0x2 DUP5 PUSH1 0x3 DUP2 GT ISZERO PUSH2 0x1E1C JUMPI PUSH2 0x1E1C PUSH2 0x1EFD JUMP JUMPDEST EQ DUP1 ISZERO PUSH2 0x1E3A JUMPI POP PUSH1 0x1 DUP4 PUSH1 0x3 DUP2 GT ISZERO PUSH2 0x1E38 JUMPI PUSH2 0x1E38 PUSH2 0x1EFD JUMP JUMPDEST EQ JUMPDEST DUP1 PUSH2 0x1E72 JUMPI POP PUSH1 0x3 DUP5 PUSH1 0x3 DUP2 GT ISZERO PUSH2 0x1E54 JUMPI PUSH2 0x1E54 PUSH2 0x1EFD JUMP JUMPDEST EQ DUP1 ISZERO PUSH2 0x1E72 JUMPI POP PUSH1 0x2 DUP4 PUSH1 0x3 DUP2 GT ISZERO PUSH2 0x1E70 JUMPI PUSH2 0x1E70 PUSH2 0x1EFD JUMP JUMPDEST EQ JUMPDEST ISZERO PUSH2 0x1E88 JUMPI SLOAD PUSH1 0x1 PUSH1 0x1 PUSH1 0xA0 SHL SUB AND SWAP1 POP PUSH2 0x1E98 JUMP JUMPDEST PUSH1 0x1 ADD SLOAD PUSH1 0x1 PUSH1 0x1 PUSH1 0xA0 SHL SUB AND SWAP1 POP JUMPDEST SWAP3 SWAP2 POP POP JUMP JUMPDEST DUP1 CALLDATALOAD PUSH1 0x1 PUSH1 0x1 PUSH1 0xA0 SHL SUB DUP2 AND DUP2 EQ PUSH2 0x1EB5 JUMPI PUSH1 0x0 DUP1 REVERT JUMPDEST SWAP2 SWAP1 POP JUMP JUMPDEST PUSH1 0x0 DUP1 PUSH1 0x40 DUP4 DUP6 SUB SLT ISZERO PUSH2 0x1ECD JUMPI PUSH1 0x0 DUP1 REVERT JUMPDEST PUSH2 0x1ED6 DUP4 PUSH2 0x1E9E JUMP JUMPDEST SWAP5 PUSH1 0x20 SWAP4 SWAP1 SWAP4 ADD CALLDATALOAD SWAP4 POP POP POP JUMP JUMPDEST PUSH1 0x0 PUSH1 0x20 DUP3 DUP5 SUB SLT ISZERO PUSH2 0x1EF6 JUMPI PUSH1 0x0 DUP1 REVERT JUMPDEST POP CALLDATALOAD SWAP2 SWAP1 POP JUMP JUMPDEST PUSH4 0x4E487B71 PUSH1 0xE0 SHL PUSH1 0x0 MSTORE PUSH1 0x21 PUSH1 0x4 MSTORE PUSH1 0x24 PUSH1 0x0 REVERT JUMPDEST PUSH1 0x4 DUP2 LT PUSH2 0x1F31 JUMPI PUSH4 0x4E487B71 PUSH1 0xE0 SHL PUSH1 0x0 MSTORE PUSH1 0x21 PUSH1 0x4 MSTORE PUSH1 0x24 PUSH1 0x0 REVERT JUMPDEST POP JUMP JUMPDEST PUSH1 0x1 PUSH1 0x1 PUSH1 0xA0 SHL SUB DUP14 DUP2 AND DUP3 MSTORE DUP13 DUP2 AND PUSH1 0x20 DUP4 ADD MSTORE PUSH1 0x40 DUP3 ADD DUP13 SWAP1 MSTORE PUSH1 0x60 DUP3 ADD DUP12 SWAP1 MSTORE PUSH1 0x80 DUP3 ADD DUP11 SWAP1 MSTORE PUSH2 0x180 DUP3 ADD SWAP1 PUSH2 0x1F6D DUP11 PUSH2 0x1F13 JUMP JUMPDEST DUP10 PUSH1 0xA0 DUP5 ADD MSTORE PUSH2 0x1F7C DUP10 PUSH2 0x1F13 JUMP JUMPDEST DUP9 PUSH1 0xC0 DUP5 ADD MSTORE PUSH2 0x1F8B DUP9 PUSH2 0x1F13 JUMP JUMPDEST DUP8 PUSH1 0xE0 DUP5 ADD MSTORE DUP1 DUP8 AND PUSH2 0x100 DUP5 ADD MSTORE POP DUP5 PUSH2 0x120 DUP4 ADD MSTORE DUP4 PUSH2 0x140 DUP4 ADD MSTORE DUP3 ISZERO ISZERO PUSH2 0x160 DUP4 ADD MSTORE SWAP14 SWAP13 POP POP POP POP POP POP POP POP POP POP POP POP POP JUMP JUMPDEST PUSH1 0x0 PUSH1 0x20 DUP3 DUP5 SUB SLT ISZERO PUSH2 0x1FD5 JUMPI PUSH1 0x0 DUP1 REVERT JUMPDEST PUSH2 0x1FDE DUP3 PUSH2 0x1E9E JUMP JUMPDEST SWAP4 SWAP3 POP POP POP JUMP JUMPDEST PUSH1 0x20 DUP1 DUP3 MSTORE DUP3 MLOAD DUP3 DUP3 ADD DUP2 SWAP1 MSTORE PUSH1 0x0 SWAP2 SWAP1 DUP5 DUP3 ADD SWAP1 PUSH1 0x40 DUP6 ADD SWAP1 DUP5 JUMPDEST DUP2 DUP2 LT ISZERO PUSH2 0x201D JUMPI DUP4 MLOAD DUP4 MSTORE SWAP3 DUP5 ADD SWAP3 SWAP2 DUP5 ADD SWAP2 PUSH1 0x1 ADD PUSH2 0x2001 JUMP JUMPDEST POP SWAP1 SWAP7 SWAP6 POP POP POP POP POP POP JUMP JUMPDEST DUP1 CALLDATALOAD PUSH1 0x4 DUP2 LT PUSH2 0x1EB5 JUMPI PUSH1 0x0 DUP1 REVERT JUMPDEST PUSH1 0x0 DUP1 PUSH1 0x0 PUSH1 0x60 DUP5 DUP7 SUB SLT ISZERO PUSH2 0x204D JUMPI PUSH1 0x0 DUP1 REVERT JUMPDEST PUSH2 0x2056 DUP5 PUSH2 0x2029 JUMP JUMPDEST SWAP3 POP PUSH1 0x20 DUP5 ADD CALLDATALOAD SWAP2 POP PUSH2 0x206B PUSH1 0x40 DUP6 ADD PUSH2 0x1E9E JUMP JUMPDEST SWAP1 POP SWAP3 POP SWAP3 POP SWAP3 JUMP JUMPDEST PUSH1 0x0 DUP1 PUSH1 0x0 PUSH1 0x60 DUP5 DUP7 SUB SLT ISZERO PUSH2 0x2089 JUMPI PUSH1 0x0 DUP1 REVERT JUMPDEST DUP4 CALLDATALOAD SWAP3 POP PUSH2 0x2099 PUSH1 0x20 DUP6 ADD PUSH2 0x2029 JUMP JUMPDEST SWAP2 POP PUSH1 0x40 DUP5 ADD CALLDATALOAD SWAP1 POP SWAP3 POP SWAP3 POP SWAP3 JUMP JUMPDEST PUSH1 0x1 PUSH1 0x1 PUSH1 0xA0 SHL SUB DUP11 DUP2 AND DUP3 MSTORE DUP10 DUP2 AND PUSH1 0x20 DUP4 ADD MSTORE PUSH1 0x40 DUP3 ADD DUP10 SWAP1 MSTORE PUSH2 0x120 DUP3 ADD SWAP1 PUSH2 0x20D4 DUP10 PUSH2 0x1F13 JUMP JUMPDEST DUP9 PUSH1 0x60 DUP5 ADD MSTORE PUSH2 0x20E3 DUP9 PUSH2 0x1F13 JUMP JUMPDEST DUP8 PUSH1 0x80 DUP5 ADD MSTORE PUSH2 0x20F2 DUP8 PUSH2 0x1F13 JUMP JUMPDEST DUP7 PUSH1 0xA0 DUP5 ADD MSTORE DUP1 DUP7 AND PUSH1 0xC0 DUP5 ADD MSTORE POP DUP4 PUSH1 0xE0 DUP4 ADD MSTORE DUP3 ISZERO ISZERO PUSH2 0x100 DUP4 ADD MSTORE SWAP11 SWAP10 POP POP POP POP POP POP POP POP POP POP JUMP JUMPDEST PUSH1 0x0 DUP1 PUSH1 0x40 DUP4 DUP6 SUB SLT ISZERO PUSH2 0x2131 JUMPI PUSH1 0x0 DUP1 REVERT JUMPDEST POP POP DUP1 CALLDATALOAD SWAP3 PUSH1 0x20 SWAP1 SWAP2 ADD CALLDATALOAD SWAP2 POP JUMP JUMPDEST PUSH4 0x4E487B71 PUSH1 0xE0 SHL PUSH1 0x0 MSTORE PUSH1 0x11 PUSH1 0x4 MSTORE PUSH1 0x24 PUSH1 0x0 REVERT JUMPDEST PUSH1 0x0 PUSH1 0x1 DUP3 ADD PUSH2 0x2168 JUMPI PUSH2 0x2168 PUSH2 0x2140 JUMP JUMPDEST POP PUSH1 0x1 ADD SWAP1 JUMP JUMPDEST DUP1 DUP3 ADD DUP1 DUP3 GT ISZERO PUSH2 0x1E98 JUMPI PUSH2 0x1E98 PUSH2 0x2140 JUMP JUMPDEST PUSH2 0x218B DUP5 PUSH2 0x1F13 JUMP JUMPDEST PUSH1 0xF8 SWAP4 SWAP1 SWAP4 SHL DUP4 MSTORE PUSH1 0x1 DUP4 ADD SWAP2 SWAP1 SWAP2 MSTORE PUSH1 0x60 SHL PUSH12 0xFFFFFFFFFFFFFFFFFFFFFFFF NOT AND PUSH1 0x21 DUP3 ADD MSTORE PUSH1 0x35 ADD SWAP1 JUMP JUMPDEST PUSH1 0x20 DUP1 DUP3 MSTORE PUSH1 0x13 SWAP1 DUP3 ADD MSTORE PUSH19 0x11D85B5948191BD95CC81B9BDD08195E1A5CDD PUSH1 0x6A SHL PUSH1 0x40 DUP3 ADD MSTORE PUSH1 0x60 ADD SWAP1 JUMP JUMPDEST DUP1 DUP3 MUL DUP2 ISZERO DUP3 DUP3 DIV DUP5 EQ OR PUSH2 0x1E98 JUMPI PUSH2 0x1E98 PUSH2 0x2140 JUMP JUMPDEST PUSH1 0x0 DUP3 PUSH2 0x2219 JUMPI PUSH4 0x4E487B71 PUSH1 0xE0 SHL PUSH1 0x0 MSTORE PUSH1 0x12 PUSH1 0x4 MSTORE PUSH1 0x24 PUSH1 0x0 REVERT JUMPDEST POP DIV SWAP1 JUMP JUMPDEST DUP2 DUP2 SUB DUP2 DUP2 GT ISZERO PUSH2 0x1E98 JUMPI PUSH2 0x1E98 PUSH2 0x2140 JUMP JUMPDEST PUSH1 0x20 DUP2 ADD PUSH2 0x223E DUP4 PUSH2 0x1F13 JUMP JUMPDEST SWAP2 SWAP1 MSTORE SWAP1 JUMP JUMPDEST PUSH1 0x20 DUP1 DUP3 MSTORE PUSH1 0x13 SWAP1 DUP3 ADD MSTORE PUSH19 0x27B7363C90383630BA3337B9369037BBB732B9 PUSH1 0x69 SHL PUSH1 0x40 DUP3 ADD MSTORE PUSH1 0x60 ADD SWAP1 JUMP JUMPDEST PUSH4 0x4E487B71 PUSH1 0xE0 SHL PUSH1 0x0 MSTORE PUSH1 0x41 PUSH1 0x4 MSTORE PUSH1 0x24 PUSH1 0x0 REVERT JUMPDEST PUSH4 0x4E487B71 PUSH1 0xE0 SHL PUSH1 0x0 MSTORE PUSH1 0x32 PUSH1 0x4 MSTORE PUSH1 0x24 PUSH1 0x0 REVERT JUMPDEST PUSH1 0x60 DUP2 ADD PUSH2 0x22AA DUP6 PUSH2 0x1F13 JUMP JUMPDEST DUP5 DUP3 MSTORE PUSH2 0x22B6 DUP5 PUSH2 0x1F13 JUMP JUMPDEST PUSH1 0x20 DUP3 ADD SWAP4 SWAP1 SWAP4 MSTORE PUSH1 0x40 ADD MSTORE SWAP2 SWAP1 POP JUMP INVALID LOG2 PUSH5 0x6970667358 0x22 SLT KECCAK256 0xFB 0xEB PUSH7 0x202D21A3BAD11F CREATE2 EQ REVERT DUP7 SELFBALANCE STOP LOG3 SELFDESTRUCT MULMOD 0xB0 PUSH31 0xB355A94F80C5A6F052995364736F6C63430008140033000000000000000000 "},"gasEstimates":{"creation":{"codeDepositCost":"1791400","executionCost":"48225","totalCost":"1839625"},"external":{"MAX_BET()":"251","MIN_BET()":"207","REVEAL_TIMEOUT()":"207","claimTimeoutPrize(uint256)":"infinite","createGame(bytes32)":"infinite","games(uint256)":"infinite","generateCommitment(uint8,uint256,address)":"infinite","getGame(uint256)":"infinite","getOpenGames(uint256,uint256)":"infinite","getPlatformStats()":"8736","getPlayerGames(address)":"infinite","getPlayerStats(address)":"2615","joinGame(uint256,bytes32)":"infinite","nextGameId()":"2373","platformBalance()":"2417","platformFee()":"2396","platformOwner()":"2404","playerGames(address,uint256)":"4757","playerStats(address)":"2552","revealChoice(uint256,uint8,uint256)":"infinite","totalGames()":"2418","totalVolume()":"2395","transferOwnership(address)":"26856","updatePlatformFee(uint256)":"24535","withdrawPlatformFees()":"infinite"},"internal":{"_determineWinner(enum RockPaperScissors.Choice,enum RockPaperScissors.Choice)":"2587","_finishGame(uint256)":"infinite"}},"methodIdentifiers":{"MAX_BET()":"7e95b523","MIN_BET()":"6540742f","REVEAL_TIMEOUT()":"3d6ae3a7","claimTimeoutPrize(uint256)":"9e466298","createGame(bytes32)":"457391e5","games(uint256)":"117a5b90","generateCommitment(uint8,uint256,address)":"681911bc","getGame(uint256)":"a2f77bcc","getOpenGames(uint256,uint256)":"de92285f","getPlatformStats()":"136d8883","getPlayerGames(address)":"129daf84","getPlayerStats(address)":"4fd66eae","joinGame(uint256,bytes32)":"ac952671","nextGameId()":"b135bbb0","platformBalance()":"62a5dbbc","platformFee()":"26232a2e","platformOwner()":"4df8ccb1","playerGames(address,uint256)":"0a5694c2","playerStats(address)":"cdafbbb6","revealChoice(uint256,uint8,uint256)":"a023b9bf","totalGames()":"2c4e591b","totalVolume()":"5f81a57c","transferOwnership(address)":"f2fde38b","updatePlatformFee(uint256)":"aa0b5988","withdrawPlatformFees()":"d0b7830b"}},"storageLayout":{"storage":[{"astId":45,"contract":"contracts/RockPaperScissors.sol:RockPaperScissors","label":"games","offset":0,"slot":"0","type":"t_mapping(t_uint256,t_struct(Game)40_storage)"},{"astId":50,"contract":"contracts/RockPaperScissors.sol:RockPaperScissors","label":"playerGames","offset":0,"slot":"1","type":"t_mapping(t_address,t_array(t_uint256)dyn_storage)"},{"astId":54,"contract":"contracts/RockPaperScissors.sol:RockPaperScissors","label":"playerStats","offset":0,"slot":"2","type":"t_mapping(t_address,t_uint256)"},{"astId":56,"contract":"contracts/RockPaperScissors.sol:RockPaperScissors","label":"nextGameId","offset":0,"slot":"3","type":"t_uint256"},{"astId":58,"contract":"contracts/RockPaperScissors.sol:RockPaperScissors","label":"totalGames","offset":0,"slot":"4","type":"t_uint256"},{"astId":60,"contract":"contracts/RockPaperScissors.sol:RockPaperScissors","label":"totalVolume","offset":0,"slot":"5","type":"t_uint256"},{"astId":63,"contract":"contracts/RockPaperScissors.sol:RockPaperScissors","label":"platformFee","offset":0,"slot":"6","type":"t_uint256"},{"astId":65,"contract":"contracts/RockPaperScissors.sol:RockPaperScissors","label":"platformOwner","offset":0,"slot":"7","type":"t_address"},{"astId":67,"contract":"contracts/RockPaperScissors.sol:RockPaperScissors","label":"platformBalance","offset":0,"slot":"8","type":"t_uint256"}],"types":{"t_address":{"encoding":"inplace","label":"address","numberOfBytes":"20"},"t_array(t_uint256)dyn_storage":{"base":"t_uint256","encoding":"dynamic_array","label":"uint256[]","numberOfBytes":"32"},"t_bool":{"encoding":"inplace","label":"bool","numberOfBytes":"1"},"t_bytes32":{"encoding":"inplace","label":"bytes32","numberOfBytes":"32"},"t_enum(Choice)7":{"encoding":"inplace","label":"enum RockPaperScissors.Choice","numberOfBytes":"1"},"t_enum(GameState)12":{"encoding":"inplace","label":"enum RockPaperScissors.GameState","numberOfBytes":"1"},"t_mapping(t_address,t_array(t_uint256)dyn_storage)":{"encoding":"mapping","key":"t_address","label":"mapping(address => uint256[])","numberOfBytes":"32","value":"t_array(t_uint256)dyn_storage"},"t_mapping(t_address,t_uint256)":{"encoding":"mapping","key":"t_address","label":"mapping(address => uint256)","numberOfBytes":"32","value":"t_uint256"},"t_mapping(t_uint256,t_struct(Game)40_storage)":{"encoding":"mapping","key":"t_uint256","label":"mapping(uint256 => struct RockPaperScissors.Game)","numberOfBytes":"32","value":"t_struct(Game)40_storage"},"t_struct(Game)40_storage":{"encoding":"inplace","label":"struct RockPaperScissors.Game","members":[{"astId":14,"contract":"contracts/RockPaperScissors.sol:RockPaperScissors","label":"player1","offset":0,"slot":"0","type":"t_address"},{"astId":16,"contract":"contracts/RockPaperScissors.sol:RockPaperScissors","label":"player2","offset":0,"slot":"1","type":"t_address"},{"astId":18,"contract":"contracts/RockPaperScissors.sol:RockPaperScissors","label":"betAmount","offset":0,"slot":"2","type":"t_uint256"},{"astId":20,"contract":"contracts/RockPaperScissors.sol:RockPaperScissors","label":"player1Commitment","offset":0,"slot":"3","type":"t_bytes32"},{"astId":22,"contract":"contracts/RockPaperScissors.sol:RockPaperScissors","label":"player2Commitment","offset":0,"slot":"4","type":"t_bytes32"},{"astId":25,"contract":"contracts/RockPaperScissors.sol:RockPaperScissors","label":"player1Choice","offset":0,"slot":"5","type":"t_enum(Choice)7"},{"astId":28,"contract":"contracts/RockPaperScissors.sol:RockPaperScissors","label":"player2Choice","offset":1,"slot":"5","type":"t_enum(Choice)7"},{"astId":31,"contract":"contracts/RockPaperScissors.sol:RockPaperScissors","label":"state","offset":2,"slot":"5","type":"t_enum(GameState)12"},{"astId":33,"contract":"contracts/RockPaperScissors.sol:RockPaperScissors","label":"winner","offset":3,"slot":"5","type":"t_address"},{"astId":35,"contract":"contracts/RockPaperScissors.sol:RockPaperScissors","label":"createdAt","offset":0,"slot":"6","type":"t_uint256"},{"astId":37,"contract":"contracts/RockPaperScissors.sol:RockPaperScissors","label":"deadline","offset":0,"slot":"7","type":"t_uint256"},{"astId":39,"contract":"contracts/RockPaperScissors.sol:RockPaperScissors","label":"prizeClaimed","offset":0,"slot":"8","type":"t_bool"}],"numberOfBytes":"288"},"t_uint256":{"encoding":"inplace","label":"uint256","numberOfBytes":"32"}}},"userdoc":{"kind":"user","methods":{},"version":1}}}}